{
  "_format": "hh-sol-artifact-1",
  "contractName": "SignableRegistry",
  "sourceName": "contracts/SignableRegistry.sol",
  "abi": [
    {
      "inputs": [],
      "stateMutability": "nonpayable",
      "type": "constructor"
    },
    {
      "anonymous": false,
      "inputs": [
        {
          "indexed": true,
          "internalType": "address",
          "name": "author",
          "type": "address"
        },
        {
          "indexed": true,
          "internalType": "uint256",
          "name": "index",
          "type": "uint256"
        },
        {
          "indexed": true,
          "internalType": "string",
          "name": "content",
          "type": "string"
        }
      ],
      "name": "Amend",
      "type": "event"
    },
    {
      "anonymous": false,
      "inputs": [
        {
          "indexed": true,
          "internalType": "address",
          "name": "author",
          "type": "address"
        },
        {
          "indexed": true,
          "internalType": "string",
          "name": "content",
          "type": "string"
        }
      ],
      "name": "Register",
      "type": "event"
    },
    {
      "anonymous": false,
      "inputs": [
        {
          "indexed": true,
          "internalType": "address",
          "name": "revoker",
          "type": "address"
        },
        {
          "indexed": true,
          "internalType": "uint256",
          "name": "index",
          "type": "uint256"
        }
      ],
      "name": "Revoke",
      "type": "event"
    },
    {
      "anonymous": false,
      "inputs": [
        {
          "indexed": true,
          "internalType": "address",
          "name": "signer",
          "type": "address"
        },
        {
          "indexed": true,
          "internalType": "uint256",
          "name": "index",
          "type": "uint256"
        }
      ],
      "name": "Sign",
      "type": "event"
    },
    {
      "inputs": [],
      "name": "DOMAIN_SEPARATOR",
      "outputs": [
        {
          "internalType": "bytes32",
          "name": "",
          "type": "bytes32"
        }
      ],
      "stateMutability": "view",
      "type": "function"
    },
    {
      "inputs": [],
      "name": "SIG_HASH",
      "outputs": [
        {
          "internalType": "bytes32",
          "name": "",
          "type": "bytes32"
        }
      ],
      "stateMutability": "view",
      "type": "function"
    },
    {
      "inputs": [
        {
          "internalType": "uint256",
          "name": "index",
          "type": "uint256"
        },
        {
          "internalType": "string",
          "name": "content",
          "type": "string"
        }
      ],
      "name": "amend",
      "outputs": [],
      "stateMutability": "nonpayable",
      "type": "function"
    },
    {
      "inputs": [
        {
          "internalType": "address",
          "name": "account",
          "type": "address"
        },
        {
          "internalType": "uint256",
          "name": "index",
          "type": "uint256"
        }
      ],
      "name": "checkSignature",
      "outputs": [
        {
          "internalType": "bool",
          "name": "signed",
          "type": "bool"
        }
      ],
      "stateMutability": "view",
      "type": "function"
    },
    {
      "inputs": [
        {
          "internalType": "string",
          "name": "content",
          "type": "string"
        }
      ],
      "name": "register",
      "outputs": [],
      "stateMutability": "nonpayable",
      "type": "function"
    },
    {
      "inputs": [
        {
          "internalType": "uint256",
          "name": "index",
          "type": "uint256"
        }
      ],
      "name": "revoke",
      "outputs": [],
      "stateMutability": "nonpayable",
      "type": "function"
    },
    {
      "inputs": [
        {
          "internalType": "address",
          "name": "account",
          "type": "address"
        },
        {
          "internalType": "uint256",
          "name": "index",
          "type": "uint256"
        },
        {
          "internalType": "uint8",
          "name": "v",
          "type": "uint8"
        },
        {
          "internalType": "bytes32",
          "name": "r",
          "type": "bytes32"
        },
        {
          "internalType": "bytes32",
          "name": "s",
          "type": "bytes32"
        }
      ],
      "name": "revokeMeta",
      "outputs": [],
      "stateMutability": "nonpayable",
      "type": "function"
    },
    {
      "inputs": [
        {
          "internalType": "uint256",
          "name": "index",
          "type": "uint256"
        }
      ],
      "name": "sign",
      "outputs": [],
      "stateMutability": "nonpayable",
      "type": "function"
    },
    {
      "inputs": [
        {
          "internalType": "address",
          "name": "account",
          "type": "address"
        },
        {
          "internalType": "uint256",
          "name": "index",
          "type": "uint256"
        },
        {
          "internalType": "uint8",
          "name": "v",
          "type": "uint8"
        },
        {
          "internalType": "bytes32",
          "name": "r",
          "type": "bytes32"
        },
        {
          "internalType": "bytes32",
          "name": "s",
          "type": "bytes32"
        }
      ],
      "name": "signMeta",
      "outputs": [],
      "stateMutability": "nonpayable",
      "type": "function"
    },
    {
      "inputs": [],
      "name": "signablesCount",
      "outputs": [
        {
          "internalType": "uint256",
          "name": "",
          "type": "uint256"
        }
      ],
      "stateMutability": "view",
      "type": "function"
    }
  ],
  "bytecode": "0x60a06040523480156200001157600080fd5b507f8b73c3c69bb8fe3d512ecc4cf759cc79239f7b179b0ffacaa9a75d522b39400f6040518060400160405280601081526020017f5369676e61626c65526567697374727900000000000000000000000000000000815250805190602001206040518060400160405280600181526020017f3100000000000000000000000000000000000000000000000000000000000000815250805190602001204630604051602001620000c59594939291906200011b565b6040516020818303038152906040528051906020012060808181525050620001c0565b620000f38162000178565b82525050565b62000104816200018c565b82525050565b6200011581620001b6565b82525050565b600060a082019050620001326000830188620000f9565b620001416020830187620000f9565b620001506040830186620000f9565b6200015f60608301856200010a565b6200016e6080830184620000e8565b9695505050505050565b6000620001858262000196565b9050919050565b6000819050919050565b600073ffffffffffffffffffffffffffffffffffffffff82169050919050565b6000819050919050565b608051611194620001ea6000396000818161033c01528181610368015261060801526111946000f3fe608060405234801561001057600080fd5b506004361061009e5760003560e01c8063ba820dff11610066578063ba820dff14610133578063bd3e530e14610163578063df6fab8814610181578063e14c9d2b1461019d578063f2c298be146101b95761009e565b806320c5429b146100a35780632fb1b25f146100bf5780633644e515146100db57806392705eeb146100f9578063a66900c814610117575b600080fd5b6100bd60048036038101906100b89190610c70565b6101d5565b005b6100d960048036038101906100d49190610c70565b610288565b005b6100e361033a565b6040516100f09190610ea3565b60405180910390f35b61010161035e565b60405161010e9190610f7a565b60405180910390f35b610131600480360381019061012c9190610bb4565b610364565b005b61014d60048036038101906101489190610b78565b610575565b60405161015a9190610e88565b60405180910390f35b61016b6105e0565b6040516101789190610ea3565b60405180910390f35b61019b60048036038101906101969190610bb4565b610604565b005b6101b760048036038101906101b29190610c99565b610814565b005b6101d360048036038101906101ce9190610c2b565b61093f565b005b60006001600083815260200190815260200160002060020160003373ffffffffffffffffffffffffffffffffffffffff1673ffffffffffffffffffffffffffffffffffffffff16815260200190815260200160002060006101000a81548160ff021916908315150217905550803373ffffffffffffffffffffffffffffffffffffffff167fec9ab91322523c899ede7830ec9bfc992b5981cdcc27b91162fb23de5791117b60405160405180910390a350565b600180600083815260200190815260200160002060020160003373ffffffffffffffffffffffffffffffffffffffff1673ffffffffffffffffffffffffffffffffffffffff16815260200190815260200160002060006101000a81548160ff021916908315150217905550803373ffffffffffffffffffffffffffffffffffffffff167f9a10b6124411386407c4a174729b856d293832181c352e98b5cb316b96cd305960405160405180910390a350565b7f000000000000000000000000000000000000000000000000000000000000000081565b60005481565b60007f00000000000000000000000000000000000000000000000000000000000000007f6911baa76452d27a94e79f72f6dd0ffe4abc8da013aaf181a8fe4c09e663c49487876040516020016103bc93929190610ebe565b604051602081830303815290604052805190602001206040516020016103e3929190610e51565b6040516020818303038152906040528051906020012090506000600182868686604051600081526020016040526040516104209493929190610ef5565b6020604051602081039080840390855afa158015610442573d6000803e3d6000fd5b5050506020604051035190508673ffffffffffffffffffffffffffffffffffffffff168173ffffffffffffffffffffffffffffffffffffffff16146104bc576040517f08c379a00000000000000000000000000000000000000000000000000000000081526004016104b390610f5a565b60405180910390fd5b60006001600088815260200190815260200160002060020160008973ffffffffffffffffffffffffffffffffffffffff1673ffffffffffffffffffffffffffffffffffffffff16815260200190815260200160002060006101000a81548160ff021916908315150217905550858773ffffffffffffffffffffffffffffffffffffffff167fec9ab91322523c899ede7830ec9bfc992b5981cdcc27b91162fb23de5791117b60405160405180910390a350505050505050565b60006001600083815260200190815260200160002060020160008473ffffffffffffffffffffffffffffffffffffffff1673ffffffffffffffffffffffffffffffffffffffff16815260200190815260200160002060009054906101000a900460ff16905092915050565b7f6911baa76452d27a94e79f72f6dd0ffe4abc8da013aaf181a8fe4c09e663c49481565b60007f00000000000000000000000000000000000000000000000000000000000000007f6911baa76452d27a94e79f72f6dd0ffe4abc8da013aaf181a8fe4c09e663c494878760405160200161065c93929190610ebe565b60405160208183030381529060405280519060200120604051602001610683929190610e51565b6040516020818303038152906040528051906020012090506000600182868686604051600081526020016040526040516106c09493929190610ef5565b6020604051602081039080840390855afa1580156106e2573d6000803e3d6000fd5b5050506020604051035190508673ffffffffffffffffffffffffffffffffffffffff168173ffffffffffffffffffffffffffffffffffffffff161461075c576040517f08c379a000000000000000000000000000000000000000000000000000000000815260040161075390610f5a565b60405180910390fd5b600180600088815260200190815260200160002060020160008973ffffffffffffffffffffffffffffffffffffffff1673ffffffffffffffffffffffffffffffffffffffff16815260200190815260200160002060006101000a81548160ff021916908315150217905550858773ffffffffffffffffffffffffffffffffffffffff167f9a10b6124411386407c4a174729b856d293832181c352e98b5cb316b96cd305960405160405180910390a350505050505050565b6001600084815260200190815260200160002060000160009054906101000a900473ffffffffffffffffffffffffffffffffffffffff1673ffffffffffffffffffffffffffffffffffffffff163373ffffffffffffffffffffffffffffffffffffffff16146108b8576040517f08c379a00000000000000000000000000000000000000000000000000000000081526004016108af90610f3a565b60405180910390fd5b81816001600086815260200190815260200160002060010191906108dd929190610a37565b5081816040516108ee929190610e38565b6040518091039020833373ffffffffffffffffffffffffffffffffffffffff167fc3d58c656695d768ad89713475e2bca291cda769672ef5aaba2a24f91445195760405160405180910390a4505050565b60008081548092919061095190611051565b9190505550600080549050336001600083815260200190815260200160002060000160006101000a81548173ffffffffffffffffffffffffffffffffffffffff021916908373ffffffffffffffffffffffffffffffffffffffff16021790555082826001600084815260200190815260200160002060010191906109d6929190610a37565b5082826040516109e7929190610e38565b60405180910390203373ffffffffffffffffffffffffffffffffffffffff167f6ba0831d2f62ae5cbf7214bcc1d79c5da1d705f12811efda0beaa840006f874e60405160405180910390a3505050565b828054610a439061101f565b90600052602060002090601f016020900481019282610a655760008555610aac565b82601f10610a7e57803560ff1916838001178555610aac565b82800160010185558215610aac579182015b82811115610aab578235825591602001919060010190610a90565b5b509050610ab99190610abd565b5090565b5b80821115610ad6576000816000905550600101610abe565b5090565b600081359050610ae981611102565b92915050565b600081359050610afe81611119565b92915050565b60008083601f840112610b1657600080fd5b8235905067ffffffffffffffff811115610b2f57600080fd5b602083019150836001820283011115610b4757600080fd5b9250929050565b600081359050610b5d81611130565b92915050565b600081359050610b7281611147565b92915050565b60008060408385031215610b8b57600080fd5b6000610b9985828601610ada565b9250506020610baa85828601610b4e565b9150509250929050565b600080600080600060a08688031215610bcc57600080fd5b6000610bda88828901610ada565b9550506020610beb88828901610b4e565b9450506040610bfc88828901610b63565b9350506060610c0d88828901610aef565b9250506080610c1e88828901610aef565b9150509295509295909350565b60008060208385031215610c3e57600080fd5b600083013567ffffffffffffffff811115610c5857600080fd5b610c6485828601610b04565b92509250509250929050565b600060208284031215610c8257600080fd5b6000610c9084828501610b4e565b91505092915050565b600080600060408486031215610cae57600080fd5b6000610cbc86828701610b4e565b935050602084013567ffffffffffffffff811115610cd957600080fd5b610ce586828701610b04565b92509250509250925092565b610cfa81610fb1565b82525050565b610d0981610fc3565b82525050565b610d1881610fcf565b82525050565b610d2f610d2a82610fcf565b61109a565b82525050565b6000610d418385610fa6565b9350610d4e838584611010565b82840190509392505050565b6000610d67600283610fa6565b91507f19010000000000000000000000000000000000000000000000000000000000006000830152600282019050919050565b6000610da7600a83610f95565b91507f4e4f545f415554484f52000000000000000000000000000000000000000000006000830152602082019050919050565b6000610de7600b83610f95565b91507f494e56414c49445f5349470000000000000000000000000000000000000000006000830152602082019050919050565b610e2381610ff9565b82525050565b610e3281611003565b82525050565b6000610e45828486610d35565b91508190509392505050565b6000610e5c82610d5a565b9150610e688285610d1e565b602082019150610e788284610d1e565b6020820191508190509392505050565b6000602082019050610e9d6000830184610d00565b92915050565b6000602082019050610eb86000830184610d0f565b92915050565b6000606082019050610ed36000830186610d0f565b610ee06020830185610cf1565b610eed6040830184610e1a565b949350505050565b6000608082019050610f0a6000830187610d0f565b610f176020830186610e29565b610f246040830185610d0f565b610f316060830184610d0f565b95945050505050565b60006020820190508181036000830152610f5381610d9a565b9050919050565b60006020820190508181036000830152610f7381610dda565b9050919050565b6000602082019050610f8f6000830184610e1a565b92915050565b600082825260208201905092915050565b600081905092915050565b6000610fbc82610fd9565b9050919050565b60008115159050919050565b6000819050919050565b600073ffffffffffffffffffffffffffffffffffffffff82169050919050565b6000819050919050565b600060ff82169050919050565b82818337600083830152505050565b6000600282049050600182168061103757607f821691505b6020821081141561104b5761104a6110d3565b5b50919050565b600061105c82610ff9565b91507fffffffffffffffffffffffffffffffffffffffffffffffffffffffffffffffff82141561108f5761108e6110a4565b5b600182019050919050565b6000819050919050565b7f4e487b7100000000000000000000000000000000000000000000000000000000600052601160045260246000fd5b7f4e487b7100000000000000000000000000000000000000000000000000000000600052602260045260246000fd5b61110b81610fb1565b811461111657600080fd5b50565b61112281610fcf565b811461112d57600080fd5b50565b61113981610ff9565b811461114457600080fd5b50565b61115081611003565b811461115b57600080fd5b5056fea264697066735822122080a451fc5450ef0b81de8a5489558f7bd65a244b15ad4f24bba571b27b418fa864736f6c63430008000033",
  "linkReferences": {},
  "deployedLinkReferences": {}
}