{
  "_format": "hh-sol-artifact-1",
  "contractName": "LexNFTIncrementalMintableOwnable",
  "sourceName": "contracts/LexNFTIncrementalMintableOwnable.sol",
  "abi": [
    {
      "inputs": [
        {
          "internalType": "string",
          "name": "_name",
          "type": "string"
        },
        {
          "internalType": "string",
          "name": "_symbol",
          "type": "string"
        },
        {
          "internalType": "address",
          "name": "_owner",
          "type": "address"
        },
        {
          "internalType": "bool",
          "name": "_whitelistenabled",
          "type": "bool"
        }
      ],
      "stateMutability": "nonpayable",
      "type": "constructor"
    },
    {
      "anonymous": false,
      "inputs": [
        {
          "indexed": true,
          "internalType": "address",
          "name": "owner",
          "type": "address"
        },
        {
          "indexed": true,
          "internalType": "address",
          "name": "spender",
          "type": "address"
        },
        {
          "indexed": true,
          "internalType": "uint256",
          "name": "tokenId",
          "type": "uint256"
        }
      ],
      "name": "Approval",
      "type": "event"
    },
    {
      "anonymous": false,
      "inputs": [
        {
          "indexed": true,
          "internalType": "address",
          "name": "owner",
          "type": "address"
        },
        {
          "indexed": true,
          "internalType": "address",
          "name": "operator",
          "type": "address"
        },
        {
          "indexed": false,
          "internalType": "bool",
          "name": "approved",
          "type": "bool"
        }
      ],
      "name": "ApprovalForAll",
      "type": "event"
    },
    {
      "anonymous": false,
      "inputs": [
        {
          "indexed": true,
          "internalType": "bool",
          "name": "whitelistEnabled",
          "type": "bool"
        }
      ],
      "name": "ToggleWhiteList",
      "type": "event"
    },
    {
      "anonymous": false,
      "inputs": [
        {
          "indexed": true,
          "internalType": "address",
          "name": "from",
          "type": "address"
        },
        {
          "indexed": true,
          "internalType": "address",
          "name": "to",
          "type": "address"
        },
        {
          "indexed": true,
          "internalType": "uint256",
          "name": "tokenId",
          "type": "uint256"
        }
      ],
      "name": "Transfer",
      "type": "event"
    },
    {
      "anonymous": false,
      "inputs": [
        {
          "indexed": true,
          "internalType": "address",
          "name": "from",
          "type": "address"
        },
        {
          "indexed": true,
          "internalType": "address",
          "name": "to",
          "type": "address"
        }
      ],
      "name": "TransferOwner",
      "type": "event"
    },
    {
      "anonymous": false,
      "inputs": [
        {
          "indexed": true,
          "internalType": "address",
          "name": "from",
          "type": "address"
        },
        {
          "indexed": true,
          "internalType": "address",
          "name": "to",
          "type": "address"
        }
      ],
      "name": "TransferOwnerClaim",
      "type": "event"
    },
    {
      "anonymous": false,
      "inputs": [
        {
          "indexed": true,
          "internalType": "address",
          "name": "account",
          "type": "address"
        },
        {
          "indexed": true,
          "internalType": "bool",
          "name": "whitelisted",
          "type": "bool"
        }
      ],
      "name": "UpdateWhitelist",
      "type": "event"
    },
    {
      "inputs": [],
      "name": "DOMAIN_SEPARATOR",
      "outputs": [
        {
          "internalType": "bytes32",
          "name": "domainSeperator",
          "type": "bytes32"
        }
      ],
      "stateMutability": "view",
      "type": "function"
    },
    {
      "inputs": [],
      "name": "PERMIT_ALL_TYPEHASH",
      "outputs": [
        {
          "internalType": "bytes32",
          "name": "",
          "type": "bytes32"
        }
      ],
      "stateMutability": "view",
      "type": "function"
    },
    {
      "inputs": [],
      "name": "PERMIT_TYPEHASH",
      "outputs": [
        {
          "internalType": "bytes32",
          "name": "",
          "type": "bytes32"
        }
      ],
      "stateMutability": "view",
      "type": "function"
    },
    {
      "inputs": [
        {
          "internalType": "address",
          "name": "spender",
          "type": "address"
        },
        {
          "internalType": "uint256",
          "name": "tokenId",
          "type": "uint256"
        }
      ],
      "name": "approve",
      "outputs": [],
      "stateMutability": "nonpayable",
      "type": "function"
    },
    {
      "inputs": [
        {
          "internalType": "address",
          "name": "",
          "type": "address"
        }
      ],
      "name": "balanceOf",
      "outputs": [
        {
          "internalType": "uint256",
          "name": "",
          "type": "uint256"
        }
      ],
      "stateMutability": "view",
      "type": "function"
    },
    {
      "inputs": [],
      "name": "claimOwner",
      "outputs": [],
      "stateMutability": "nonpayable",
      "type": "function"
    },
    {
      "inputs": [
        {
          "internalType": "bytes32[]",
          "name": "proof",
          "type": "bytes32[]"
        }
      ],
      "name": "claimWhiteList",
      "outputs": [],
      "stateMutability": "nonpayable",
      "type": "function"
    },
    {
      "inputs": [
        {
          "internalType": "uint256",
          "name": "",
          "type": "uint256"
        }
      ],
      "name": "getApproved",
      "outputs": [
        {
          "internalType": "address",
          "name": "",
          "type": "address"
        }
      ],
      "stateMutability": "view",
      "type": "function"
    },
    {
      "inputs": [
        {
          "internalType": "address",
          "name": "",
          "type": "address"
        },
        {
          "internalType": "address",
          "name": "",
          "type": "address"
        }
      ],
      "name": "isApprovedForAll",
      "outputs": [
        {
          "internalType": "bool",
          "name": "",
          "type": "bool"
        }
      ],
      "stateMutability": "view",
      "type": "function"
    },
    {
      "inputs": [
        {
          "internalType": "address",
          "name": "to",
          "type": "address"
        },
        {
          "internalType": "string",
          "name": "_tokenURI",
          "type": "string"
        }
      ],
      "name": "mint",
      "outputs": [],
      "stateMutability": "nonpayable",
      "type": "function"
    },
    {
      "inputs": [],
      "name": "name",
      "outputs": [
        {
          "internalType": "string",
          "name": "",
          "type": "string"
        }
      ],
      "stateMutability": "view",
      "type": "function"
    },
    {
      "inputs": [
        {
          "internalType": "uint256",
          "name": "",
          "type": "uint256"
        }
      ],
      "name": "nonces",
      "outputs": [
        {
          "internalType": "uint256",
          "name": "",
          "type": "uint256"
        }
      ],
      "stateMutability": "view",
      "type": "function"
    },
    {
      "inputs": [
        {
          "internalType": "address",
          "name": "",
          "type": "address"
        }
      ],
      "name": "noncesForAll",
      "outputs": [
        {
          "internalType": "uint256",
          "name": "",
          "type": "uint256"
        }
      ],
      "stateMutability": "view",
      "type": "function"
    },
    {
      "inputs": [],
      "name": "owner",
      "outputs": [
        {
          "internalType": "address",
          "name": "",
          "type": "address"
        }
      ],
      "stateMutability": "view",
      "type": "function"
    },
    {
      "inputs": [
        {
          "internalType": "uint256",
          "name": "",
          "type": "uint256"
        }
      ],
      "name": "ownerOf",
      "outputs": [
        {
          "internalType": "address",
          "name": "",
          "type": "address"
        }
      ],
      "stateMutability": "view",
      "type": "function"
    },
    {
      "inputs": [],
      "name": "pendingOwner",
      "outputs": [
        {
          "internalType": "address",
          "name": "",
          "type": "address"
        }
      ],
      "stateMutability": "view",
      "type": "function"
    },
    {
      "inputs": [
        {
          "internalType": "address",
          "name": "spender",
          "type": "address"
        },
        {
          "internalType": "uint256",
          "name": "tokenId",
          "type": "uint256"
        },
        {
          "internalType": "uint256",
          "name": "deadline",
          "type": "uint256"
        },
        {
          "internalType": "uint8",
          "name": "v",
          "type": "uint8"
        },
        {
          "internalType": "bytes32",
          "name": "r",
          "type": "bytes32"
        },
        {
          "internalType": "bytes32",
          "name": "s",
          "type": "bytes32"
        }
      ],
      "name": "permit",
      "outputs": [],
      "stateMutability": "nonpayable",
      "type": "function"
    },
    {
      "inputs": [
        {
          "internalType": "address",
          "name": "owner",
          "type": "address"
        },
        {
          "internalType": "address",
          "name": "operator",
          "type": "address"
        },
        {
          "internalType": "uint256",
          "name": "deadline",
          "type": "uint256"
        },
        {
          "internalType": "uint8",
          "name": "v",
          "type": "uint8"
        },
        {
          "internalType": "bytes32",
          "name": "r",
          "type": "bytes32"
        },
        {
          "internalType": "bytes32",
          "name": "s",
          "type": "bytes32"
        }
      ],
      "name": "permitAll",
      "outputs": [],
      "stateMutability": "nonpayable",
      "type": "function"
    },
    {
      "inputs": [
        {
          "internalType": "address",
          "name": "",
          "type": "address"
        },
        {
          "internalType": "address",
          "name": "to",
          "type": "address"
        },
        {
          "internalType": "uint256",
          "name": "tokenId",
          "type": "uint256"
        }
      ],
      "name": "safeTransferFrom",
      "outputs": [],
      "stateMutability": "nonpayable",
      "type": "function"
    },
    {
      "inputs": [
        {
          "internalType": "address",
          "name": "",
          "type": "address"
        },
        {
          "internalType": "address",
          "name": "to",
          "type": "address"
        },
        {
          "internalType": "uint256",
          "name": "tokenId",
          "type": "uint256"
        },
        {
          "internalType": "bytes",
          "name": "data",
          "type": "bytes"
        }
      ],
      "name": "safeTransferFrom",
      "outputs": [],
      "stateMutability": "nonpayable",
      "type": "function"
    },
    {
      "inputs": [
        {
          "internalType": "address",
          "name": "operator",
          "type": "address"
        },
        {
          "internalType": "bool",
          "name": "approved",
          "type": "bool"
        }
      ],
      "name": "setApprovalForAll",
      "outputs": [],
      "stateMutability": "nonpayable",
      "type": "function"
    },
    {
      "inputs": [
        {
          "internalType": "bytes32",
          "name": "root",
          "type": "bytes32"
        }
      ],
      "name": "setMerkleRoot",
      "outputs": [],
      "stateMutability": "nonpayable",
      "type": "function"
    },
    {
      "inputs": [
        {
          "internalType": "bytes4",
          "name": "interfaceId",
          "type": "bytes4"
        }
      ],
      "name": "supportsInterface",
      "outputs": [
        {
          "internalType": "bool",
          "name": "supported",
          "type": "bool"
        }
      ],
      "stateMutability": "pure",
      "type": "function"
    },
    {
      "inputs": [],
      "name": "symbol",
      "outputs": [
        {
          "internalType": "string",
          "name": "",
          "type": "string"
        }
      ],
      "stateMutability": "view",
      "type": "function"
    },
    {
      "inputs": [
        {
          "internalType": "bool",
          "name": "_whitelistEnabled",
          "type": "bool"
        }
      ],
      "name": "toggleWhitelist",
      "outputs": [],
      "stateMutability": "nonpayable",
      "type": "function"
    },
    {
      "inputs": [
        {
          "internalType": "uint256",
          "name": "",
          "type": "uint256"
        }
      ],
      "name": "tokenURI",
      "outputs": [
        {
          "internalType": "string",
          "name": "",
          "type": "string"
        }
      ],
      "stateMutability": "view",
      "type": "function"
    },
    {
      "inputs": [],
      "name": "totalSupply",
      "outputs": [
        {
          "internalType": "uint256",
          "name": "",
          "type": "uint256"
        }
      ],
      "stateMutability": "view",
      "type": "function"
    },
    {
      "inputs": [
        {
          "internalType": "address",
          "name": "to",
          "type": "address"
        },
        {
          "internalType": "uint256",
          "name": "tokenId",
          "type": "uint256"
        }
      ],
      "name": "transfer",
      "outputs": [],
      "stateMutability": "nonpayable",
      "type": "function"
    },
    {
      "inputs": [
        {
          "internalType": "address",
          "name": "",
          "type": "address"
        },
        {
          "internalType": "address",
          "name": "to",
          "type": "address"
        },
        {
          "internalType": "uint256",
          "name": "tokenId",
          "type": "uint256"
        }
      ],
      "name": "transferFrom",
      "outputs": [],
      "stateMutability": "nonpayable",
      "type": "function"
    },
    {
      "inputs": [
        {
          "internalType": "address",
          "name": "to",
          "type": "address"
        },
        {
          "internalType": "bool",
          "name": "direct",
          "type": "bool"
        }
      ],
      "name": "transferOwner",
      "outputs": [],
      "stateMutability": "nonpayable",
      "type": "function"
    },
    {
      "inputs": [
        {
          "internalType": "address",
          "name": "account",
          "type": "address"
        },
        {
          "internalType": "bool",
          "name": "_whitelisted",
          "type": "bool"
        }
      ],
      "name": "updateWhitelist",
      "outputs": [],
      "stateMutability": "nonpayable",
      "type": "function"
    },
    {
      "inputs": [],
      "name": "whitelistEnabled",
      "outputs": [
        {
          "internalType": "bool",
          "name": "",
          "type": "bool"
        }
      ],
      "stateMutability": "view",
      "type": "function"
    },
    {
      "inputs": [
        {
          "internalType": "address",
          "name": "",
          "type": "address"
        }
      ],
      "name": "whitelisted",
      "outputs": [
        {
          "internalType": "bool",
          "name": "",
          "type": "bool"
        }
      ],
      "stateMutability": "view",
      "type": "function"
    }
  ],
  "bytecode": "0x60c06040523480156200001157600080fd5b50604051620043563803806200435683398181016040528101906200003791906200037d565b80828086868160009080519060200190620000549291906200022d565b5080600190805190602001906200006d9291906200022d565b504660808181525050620000866200018160201b60201c565b60a08181525050505080600a60006101000a81548173ffffffffffffffffffffffffffffffffffffffff021916908373ffffffffffffffffffffffffffffffffffffffff1602179055508073ffffffffffffffffffffffffffffffffffffffff16600073ffffffffffffffffffffffffffffffffffffffff167f5bb496b3f951b55d3a1d8e479725a4d25bdc7644fc355f0b71c540354820a1c560405160405180910390a35081600b60146101000a81548160ff0219169083151502179055508115157f1bce650c18d48dc571157e199d09844825d5cd56d07410dbc8f7ddc86966048060405160405180910390a250505050505062000767565b60007f8b73c3c69bb8fe3d512ecc4cf759cc79239f7b179b0ffacaa9a75d522b39400f6000604051620001b59190620004d9565b60405180910390206040518060400160405280600181526020017f310000000000000000000000000000000000000000000000000000000000000081525080519060200120463060405160200162000212959493929190620004f2565b60405160208183030381529060405280519060200120905090565b8280546200023b9062000658565b90600052602060002090601f0160209004810192826200025f5760008555620002ab565b82601f106200027a57805160ff1916838001178555620002ab565b82800160010185558215620002ab579182015b82811115620002aa5782518255916020019190600101906200028d565b5b509050620002ba9190620002be565b5090565b5b80821115620002d9576000816000905550600101620002bf565b5090565b6000620002f4620002ee8462000578565b6200054f565b9050828152602081018484840111156200030d57600080fd5b6200031a84828562000622565b509392505050565b600081519050620003338162000733565b92915050565b6000815190506200034a816200074d565b92915050565b600082601f8301126200036257600080fd5b815162000374848260208601620002dd565b91505092915050565b600080600080608085870312156200039457600080fd5b600085015167ffffffffffffffff811115620003af57600080fd5b620003bd8782880162000350565b945050602085015167ffffffffffffffff811115620003db57600080fd5b620003e98782880162000350565b9350506040620003fc8782880162000322565b92505060606200040f8782880162000339565b91505092959194509250565b6200042681620005ce565b82525050565b6200043781620005ee565b82525050565b600081546200044c8162000658565b620004588186620005c3565b945060018216600081146200047657600181146200048857620004bf565b60ff19831686528186019350620004bf565b6200049385620005ae565b60005b83811015620004b75781548189015260018201915060208101905062000496565b838801955050505b50505092915050565b620004d38162000618565b82525050565b6000620004e782846200043d565b915081905092915050565b600060a0820190506200050960008301886200042c565b6200051860208301876200042c565b6200052760408301866200042c565b620005366060830185620004c8565b6200054560808301846200041b565b9695505050505050565b60006200055b6200056e565b90506200056982826200068e565b919050565b6000604051905090565b600067ffffffffffffffff821115620005965762000595620006f3565b5b620005a18262000722565b9050602081019050919050565b60008190508160005260206000209050919050565b600081905092915050565b6000620005db82620005f8565b9050919050565b60008115159050919050565b6000819050919050565b600073ffffffffffffffffffffffffffffffffffffffff82169050919050565b6000819050919050565b60005b838110156200064257808201518184015260208101905062000625565b8381111562000652576000848401525b50505050565b600060028204905060018216806200067157607f821691505b60208210811415620006885762000687620006c4565b5b50919050565b620006998262000722565b810181811067ffffffffffffffff82111715620006bb57620006ba620006f3565b5b80604052505050565b7f4e487b7100000000000000000000000000000000000000000000000000000000600052602260045260246000fd5b7f4e487b7100000000000000000000000000000000000000000000000000000000600052604160045260246000fd5b6000601f19601f8301169050919050565b6200073e81620005ce565b81146200074a57600080fd5b50565b6200075881620005e2565b81146200076457600080fd5b50565b60805160a051613bc96200078d6000396000610e5f01526000610e2b0152613bc96000f3fe608060405234801561001057600080fd5b50600436106101fb5760003560e01c80637ac2ff7b1161011a578063aba07847116100ad578063cf81afaa1161007c578063cf81afaa1461059a578063d0def521146105b6578063d936547e146105d2578063e30c397814610602578063e985e9c514610620576101fb565b8063aba0784714610514578063b4e13c8d14610530578063b88d4fde1461054e578063c87b56dd1461056a576101fb565b8063904dfb8e116100e9578063904dfb8e1461048e57806395d89b41146104be578063a22cb465146104dc578063a9059cbb146104f8576101fb565b80637ac2ff7b1461041c5780637cb647591461043857806380e3f1ad146104545780638da5cb5b14610470576101fb565b806330adf81f1161019257806345b6c60d1161016157806345b6c60d1461038257806351fb012d1461039e5780636352211e146103bc57806370a08231146103ec576101fb565b806330adf81f146103205780633644e5151461033e5780633bd1adec1461035c57806342842e0e14610366576101fb565b80630d392cd9116101ce5780630d392cd91461029a578063141a468c146102b657806318160ddd146102e657806323b872dd14610304576101fb565b806301ffc9a71461020057806306fdde0314610230578063081812fc1461024e578063095ea7b31461027e575b600080fd5b61021a60048036038101906102159190612dd7565b610650565b60405161022791906132a4565b60405180910390f35b6102386106e2565b6040516102459190613418565b60405180910390f35b61026860048036038101906102639190612e29565b610770565b604051610275919061323d565b60405180910390f35b61029860048036038101906102939190612c7f565b6107a3565b005b6102b460048036038101906102af9190612bef565b61098c565b005b6102d060048036038101906102cb9190612e29565b610abd565b6040516102dd919061359a565b60405180910390f35b6102ee610ad5565b6040516102fb919061359a565b60405180910390f35b61031e60048036038101906103199190612a9c565b610adb565b005b610328610e03565b60405161033591906132bf565b60405180910390f35b610346610e27565b60405161035391906132bf565b60405180910390f35b610364610e84565b005b610380600480360381019061037b9190612a9c565b611015565b005b61039c60048036038101906103979190612d44565b611036565b005b6103a661119c565b6040516103b391906132a4565b60405180910390f35b6103d660048036038101906103d19190612e29565b6111af565b6040516103e3919061323d565b60405180910390f35b61040660048036038101906104019190612a37565b6111e2565b604051610413919061359a565b60405180910390f35b61043660048036038101906104319190612cbb565b6111fa565b005b610452600480360381019061044d9190612dae565b611592565b005b61046e60048036038101906104699190612d85565b61162c565b005b610478611708565b604051610485919061323d565b60405180910390f35b6104a860048036038101906104a39190612a37565b61172e565b6040516104b5919061359a565b60405180910390f35b6104c6611746565b6040516104d39190613418565b60405180910390f35b6104f660048036038101906104f19190612bef565b6117d4565b005b610512600480360381019061050d9190612c7f565b6118d1565b005b61052e60048036038101906105299190612b66565b611af8565b005b610538611e9a565b60405161054591906132bf565b60405180910390f35b61056860048036038101906105639190612aeb565b611ebe565b005b610584600480360381019061057f9190612e29565b61203a565b6040516105919190613418565b60405180910390f35b6105b460048036038101906105af9190612bef565b6120da565b005b6105d060048036038101906105cb9190612c2b565b612320565b005b6105ec60048036038101906105e79190612a37565b6123c4565b6040516105f991906132a4565b60405180910390f35b61060a6123e4565b604051610617919061323d565b60405180910390f35b61063a60048036038101906106359190612a60565b61240a565b60405161064791906132a4565b60405180910390f35b60006380ac58cd60e01b827bffffffffffffffffffffffffffffffffffffffffffffffffffffffff191614806106ab5750635b5e139f60e01b827bffffffffffffffffffffffffffffffffffffffffffffffffffffffff1916145b806106db57506301ffc9a760e01b827bffffffffffffffffffffffffffffffffffffffffffffffffffffffff1916145b9050919050565b600080546106ef90613798565b80601f016020809104026020016040519081016040528092919081815260200182805461071b90613798565b80156107685780601f1061073d57610100808354040283529160200191610768565b820191906000526020600020905b81548152906001019060200180831161074b57829003601f168201915b505050505081565b60066020528060005260406000206000915054906101000a900473ffffffffffffffffffffffffffffffffffffffff1681565b60006004600083815260200190815260200160002060009054906101000a900473ffffffffffffffffffffffffffffffffffffffff1690508073ffffffffffffffffffffffffffffffffffffffff163373ffffffffffffffffffffffffffffffffffffffff16148061089b5750600760008273ffffffffffffffffffffffffffffffffffffffff1673ffffffffffffffffffffffffffffffffffffffff16815260200190815260200160002060003373ffffffffffffffffffffffffffffffffffffffff1673ffffffffffffffffffffffffffffffffffffffff16815260200190815260200160002060009054906101000a900460ff165b6108da576040517f08c379a00000000000000000000000000000000000000000000000000000000081526004016108d19061347a565b60405180910390fd5b826006600084815260200190815260200160002060006101000a81548173ffffffffffffffffffffffffffffffffffffffff021916908373ffffffffffffffffffffffffffffffffffffffff160217905550818373ffffffffffffffffffffffffffffffffffffffff168273ffffffffffffffffffffffffffffffffffffffff167f8c5be1e5ebec7d5bd14f71427d1e84f3dd0314c0f7b2291e5b200ac8c7c3b92560405160405180910390a4505050565b600a60009054906101000a900473ffffffffffffffffffffffffffffffffffffffff1673ffffffffffffffffffffffffffffffffffffffff163373ffffffffffffffffffffffffffffffffffffffff1614610a1c576040517f08c379a0000000000000000000000000000000000000000000000000000000008152600401610a139061353a565b60405180910390fd5b80600c60008473ffffffffffffffffffffffffffffffffffffffff1673ffffffffffffffffffffffffffffffffffffffff16815260200190815260200160002060006101000a81548160ff0219169083151502179055508015158273ffffffffffffffffffffffffffffffffffffffff167f08b2c0469ecd1d7a21d7e1492f0fc75fc7e8e0fa4fdf4275949c90875f5ebdf560405160405180910390a35050565b60086020528060005260406000206000915090505481565b60025481565b60006004600083815260200190815260200160002060009054906101000a900473ffffffffffffffffffffffffffffffffffffffff1690508073ffffffffffffffffffffffffffffffffffffffff163373ffffffffffffffffffffffffffffffffffffffff161480610bab57506006600083815260200190815260200160002060009054906101000a900473ffffffffffffffffffffffffffffffffffffffff1673ffffffffffffffffffffffffffffffffffffffff163373ffffffffffffffffffffffffffffffffffffffff16145b80610c3c5750600760008273ffffffffffffffffffffffffffffffffffffffff1673ffffffffffffffffffffffffffffffffffffffff16815260200190815260200160002060003373ffffffffffffffffffffffffffffffffffffffff1673ffffffffffffffffffffffffffffffffffffffff16815260200190815260200160002060009054906101000a900460ff165b610c7b576040517f08c379a0000000000000000000000000000000000000000000000000000000008152600401610c729061347a565b60405180910390fd5b600360008273ffffffffffffffffffffffffffffffffffffffff1673ffffffffffffffffffffffffffffffffffffffff1681526020019081526020016000206000815480929190600190039190505550600360008473ffffffffffffffffffffffffffffffffffffffff1673ffffffffffffffffffffffffffffffffffffffff168152602001908152602001600020600081548092919060010191905055506006600083815260200190815260200160002060006101000a81549073ffffffffffffffffffffffffffffffffffffffff0219169055826004600084815260200190815260200160002060006101000a81548173ffffffffffffffffffffffffffffffffffffffff021916908373ffffffffffffffffffffffffffffffffffffffff160217905550818373ffffffffffffffffffffffffffffffffffffffff168273ffffffffffffffffffffffffffffffffffffffff167fddf252ad1be2c89b69c2b068fc378daa952ba7f163c4a11628f55a4df523b3ef60405160405180910390a450505050565b7f49ecf333e5b8c95c40fdafc95c1ad136e8914a8fb55e9dc8bb01eaa83a2df9ad81565b60007f00000000000000000000000000000000000000000000000000000000000000004614610e5d57610e58612439565b610e7f565b7f00000000000000000000000000000000000000000000000000000000000000005b905090565b600b60009054906101000a900473ffffffffffffffffffffffffffffffffffffffff1673ffffffffffffffffffffffffffffffffffffffff163373ffffffffffffffffffffffffffffffffffffffff1614610f14576040517f08c379a0000000000000000000000000000000000000000000000000000000008152600401610f0b9061351a565b60405180910390fd5b3373ffffffffffffffffffffffffffffffffffffffff16600a60009054906101000a900473ffffffffffffffffffffffffffffffffffffffff1673ffffffffffffffffffffffffffffffffffffffff167f5bb496b3f951b55d3a1d8e479725a4d25bdc7644fc355f0b71c540354820a1c560405160405180910390a333600a60006101000a81548173ffffffffffffffffffffffffffffffffffffffff021916908373ffffffffffffffffffffffffffffffffffffffff1602179055506000600b60006101000a81548173ffffffffffffffffffffffffffffffffffffffff021916908373ffffffffffffffffffffffffffffffffffffffff160217905550565b6110316000838360405180602001604052806000815250611ebe565b505050565b6000801b600d54141561107e576040517f08c379a00000000000000000000000000000000000000000000000000000000081526004016110759061349a565b60405180910390fd5b6110bb600d54336040516020016110959190613191565b60405160208183030381529060405280519060200120836124e19092919063ffffffff16565b6110fa576040517f08c379a00000000000000000000000000000000000000000000000000000000081526004016110f19061343a565b60405180910390fd5b6001600c60003373ffffffffffffffffffffffffffffffffffffffff1673ffffffffffffffffffffffffffffffffffffffff16815260200190815260200160002060006101000a81548160ff021916908315150217905550600115153373ffffffffffffffffffffffffffffffffffffffff167f08b2c0469ecd1d7a21d7e1492f0fc75fc7e8e0fa4fdf4275949c90875f5ebdf560405160405180910390a350565b600b60149054906101000a900460ff1681565b60046020528060005260406000206000915054906101000a900473ffffffffffffffffffffffffffffffffffffffff1681565b60036020528060005260406000206000915090505481565b4284101561123d576040517f08c379a00000000000000000000000000000000000000000000000000000000081526004016112349061355a565b60405180910390fd5b60006004600087815260200190815260200160002060009054906101000a900473ffffffffffffffffffffffffffffffffffffffff169050600061127f610e27565b7f49ecf333e5b8c95c40fdafc95c1ad136e8914a8fb55e9dc8bb01eaa83a2df9ad8989600860008c81526020019081526020016000206000815480929190600101919050558a6040516020016112d995949392919061332d565b60405160208183030381529060405280519060200120604051602001611300929190613206565b60405160208183030381529060405280519060200120905060006001828787876040516000815260200160405260405161133d94939291906133d3565b6020604051602081039080840390855afa15801561135f573d6000803e3d6000fd5b505050602060405103519050600073ffffffffffffffffffffffffffffffffffffffff168173ffffffffffffffffffffffffffffffffffffffff1614156113db576040517f08c379a00000000000000000000000000000000000000000000000000000000081526004016113d29061345a565b60405180910390fd5b8273ffffffffffffffffffffffffffffffffffffffff168173ffffffffffffffffffffffffffffffffffffffff16148061149b5750600760008473ffffffffffffffffffffffffffffffffffffffff1673ffffffffffffffffffffffffffffffffffffffff16815260200190815260200160002060008273ffffffffffffffffffffffffffffffffffffffff1673ffffffffffffffffffffffffffffffffffffffff16815260200190815260200160002060009054906101000a900460ff165b6114da576040517f08c379a00000000000000000000000000000000000000000000000000000000081526004016114d1906134da565b60405180910390fd5b5050866006600088815260200190815260200160002060006101000a81548173ffffffffffffffffffffffffffffffffffffffff021916908373ffffffffffffffffffffffffffffffffffffffff160217905550858773ffffffffffffffffffffffffffffffffffffffff168273ffffffffffffffffffffffffffffffffffffffff167f8c5be1e5ebec7d5bd14f71427d1e84f3dd0314c0f7b2291e5b200ac8c7c3b92560405160405180910390a450505050505050565b600a60009054906101000a900473ffffffffffffffffffffffffffffffffffffffff1673ffffffffffffffffffffffffffffffffffffffff163373ffffffffffffffffffffffffffffffffffffffff1614611622576040517f08c379a00000000000000000000000000000000000000000000000000000000081526004016116199061353a565b60405180910390fd5b80600d8190555050565b600a60009054906101000a900473ffffffffffffffffffffffffffffffffffffffff1673ffffffffffffffffffffffffffffffffffffffff163373ffffffffffffffffffffffffffffffffffffffff16146116bc576040517f08c379a00000000000000000000000000000000000000000000000000000000081526004016116b39061353a565b60405180910390fd5b80600b60146101000a81548160ff0219169083151502179055508015157f1bce650c18d48dc571157e199d09844825d5cd56d07410dbc8f7ddc86966048060405160405180910390a250565b600a60009054906101000a900473ffffffffffffffffffffffffffffffffffffffff1681565b60096020528060005260406000206000915090505481565b6001805461175390613798565b80601f016020809104026020016040519081016040528092919081815260200182805461177f90613798565b80156117cc5780601f106117a1576101008083540402835291602001916117cc565b820191906000526020600020905b8154815290600101906020018083116117af57829003601f168201915b505050505081565b80600760003373ffffffffffffffffffffffffffffffffffffffff1673ffffffffffffffffffffffffffffffffffffffff16815260200190815260200160002060008473ffffffffffffffffffffffffffffffffffffffff1673ffffffffffffffffffffffffffffffffffffffff16815260200190815260200160002060006101000a81548160ff0219169083151502179055508173ffffffffffffffffffffffffffffffffffffffff163373ffffffffffffffffffffffffffffffffffffffff167f17307eab39ab6107e8899845ad3d59bd9653f200f220920489ca2b5937696c31836040516118c591906132a4565b60405180910390a35050565b6004600082815260200190815260200160002060009054906101000a900473ffffffffffffffffffffffffffffffffffffffff1673ffffffffffffffffffffffffffffffffffffffff163373ffffffffffffffffffffffffffffffffffffffff1614611972576040517f08c379a00000000000000000000000000000000000000000000000000000000081526004016119699061353a565b60405180910390fd5b600360003373ffffffffffffffffffffffffffffffffffffffff1673ffffffffffffffffffffffffffffffffffffffff1681526020019081526020016000206000815480929190600190039190505550600360008373ffffffffffffffffffffffffffffffffffffffff1673ffffffffffffffffffffffffffffffffffffffff168152602001908152602001600020600081548092919060010191905055506006600082815260200190815260200160002060006101000a81549073ffffffffffffffffffffffffffffffffffffffff0219169055816004600083815260200190815260200160002060006101000a81548173ffffffffffffffffffffffffffffffffffffffff021916908373ffffffffffffffffffffffffffffffffffffffff160217905550808273ffffffffffffffffffffffffffffffffffffffff163373ffffffffffffffffffffffffffffffffffffffff167fddf252ad1be2c89b69c2b068fc378daa952ba7f163c4a11628f55a4df523b3ef60405160405180910390a45050565b42841015611b3b576040517f08c379a0000000000000000000000000000000000000000000000000000000008152600401611b329061355a565b60405180910390fd5b6000611b45610e27565b7fdaab21af31ece73a508939fedd476a5ee5129a5ed4bb091f3236ffb45394df628888600960008c73ffffffffffffffffffffffffffffffffffffffff1673ffffffffffffffffffffffffffffffffffffffff16815260200190815260200160002060008154809291906001019190505589604051602001611bcb9594939291906132da565b60405160208183030381529060405280519060200120604051602001611bf2929190613206565b604051602081830303815290604052805190602001209050600060018286868660405160008152602001604052604051611c2f94939291906133d3565b6020604051602081039080840390855afa158015611c51573d6000803e3d6000fd5b505050602060405103519050600073ffffffffffffffffffffffffffffffffffffffff168173ffffffffffffffffffffffffffffffffffffffff1614158015611cc557508773ffffffffffffffffffffffffffffffffffffffff168173ffffffffffffffffffffffffffffffffffffffff16145b80611d565750600760008973ffffffffffffffffffffffffffffffffffffffff1673ffffffffffffffffffffffffffffffffffffffff16815260200190815260200160002060008273ffffffffffffffffffffffffffffffffffffffff1673ffffffffffffffffffffffffffffffffffffffff16815260200190815260200160002060009054906101000a900460ff165b611d95576040517f08c379a0000000000000000000000000000000000000000000000000000000008152600401611d8c9061345a565b60405180910390fd5b50506001600760008873ffffffffffffffffffffffffffffffffffffffff1673ffffffffffffffffffffffffffffffffffffffff16815260200190815260200160002060008773ffffffffffffffffffffffffffffffffffffffff1673ffffffffffffffffffffffffffffffffffffffff16815260200190815260200160002060006101000a81548160ff0219169083151502179055508473ffffffffffffffffffffffffffffffffffffffff168673ffffffffffffffffffffffffffffffffffffffff167f17307eab39ab6107e8899845ad3d59bd9653f200f220920489ca2b5937696c316001604051611e8a91906132a4565b60405180910390a3505050505050565b7fdaab21af31ece73a508939fedd476a5ee5129a5ed4bb091f3236ffb45394df6281565b611eca60008484610adb565b60008373ffffffffffffffffffffffffffffffffffffffff163b146120345760008373ffffffffffffffffffffffffffffffffffffffff1663150b7a023360008686604051602401611f1f9493929190613258565b6040516020818303038152906040529060e01b6020820180517bffffffffffffffffffffffffffffffffffffffffffffffffffffffff8381831617835250505050604051611f6d91906131d8565b600060405180830381855afa9150503d8060008114611fa8576040519150601f19603f3d011682016040523d82523d6000602084013e611fad565b606091505b50915050600081806020019051810190611fc79190612e00565b905063150b7a0260e01b817bffffffffffffffffffffffffffffffffffffffffffffffffffffffff191614612031576040517f08c379a0000000000000000000000000000000000000000000000000000000008152600401612028906134fa565b60405180910390fd5b50505b50505050565b6005602052806000526040600020600091509050805461205990613798565b80601f016020809104026020016040519081016040528092919081815260200182805461208590613798565b80156120d25780601f106120a7576101008083540402835291602001916120d2565b820191906000526020600020905b8154815290600101906020018083116120b557829003601f168201915b505050505081565b600a60009054906101000a900473ffffffffffffffffffffffffffffffffffffffff1673ffffffffffffffffffffffffffffffffffffffff163373ffffffffffffffffffffffffffffffffffffffff161461216a576040517f08c379a00000000000000000000000000000000000000000000000000000000081526004016121619061353a565b60405180910390fd5b600073ffffffffffffffffffffffffffffffffffffffff168273ffffffffffffffffffffffffffffffffffffffff1614156121da576040517f08c379a00000000000000000000000000000000000000000000000000000000081526004016121d1906134ba565b60405180910390fd5b80156122805781600a60006101000a81548173ffffffffffffffffffffffffffffffffffffffff021916908373ffffffffffffffffffffffffffffffffffffffff1602179055508173ffffffffffffffffffffffffffffffffffffffff163373ffffffffffffffffffffffffffffffffffffffff167f5bb496b3f951b55d3a1d8e479725a4d25bdc7644fc355f0b71c540354820a1c560405160405180910390a361231c565b81600b60006101000a81548173ffffffffffffffffffffffffffffffffffffffff021916908373ffffffffffffffffffffffffffffffffffffffff1602179055508173ffffffffffffffffffffffffffffffffffffffff163373ffffffffffffffffffffffffffffffffffffffff167f87f5c8846f4c51400fa448cfb84edcec5cc0f333b6d20a5b903e050823dcb66760405160405180910390a35b5050565b600a60009054906101000a900473ffffffffffffffffffffffffffffffffffffffff1673ffffffffffffffffffffffffffffffffffffffff163373ffffffffffffffffffffffffffffffffffffffff16146123b0576040517f08c379a00000000000000000000000000000000000000000000000000000000081526004016123a79061353a565b60405180910390fd5b6123c082600160025401836125bd565b5050565b600c6020528060005260406000206000915054906101000a900460ff1681565b600b60009054906101000a900473ffffffffffffffffffffffffffffffffffffffff1681565b60076020528160005260406000206020528060005260406000206000915091509054906101000a900460ff1681565b60007f8b73c3c69bb8fe3d512ecc4cf759cc79239f7b179b0ffacaa9a75d522b39400f600060405161246b91906131ef565b60405180910390206040518060400160405280600181526020017f31000000000000000000000000000000000000000000000000000000000000008152508051906020012046306040516020016124c6959493929190613380565b60405160208183030381529060405280519060200120905090565b60008082905060005b85518110156125af57600086828151811061252e577f4e487b7100000000000000000000000000000000000000000000000000000000600052603260045260246000fd5b6020026020010151905080831161256f5782816040516020016125529291906131ac565b60405160208183030381529060405280519060200120925061259b565b80836040516020016125829291906131ac565b6040516020818303038152906040528051906020012092505b5080806125a7906137fb565b9150506124ea565b508381149150509392505050565b600073ffffffffffffffffffffffffffffffffffffffff166004600084815260200190815260200160002060009054906101000a900473ffffffffffffffffffffffffffffffffffffffff1673ffffffffffffffffffffffffffffffffffffffff161461265f576040517f08c379a00000000000000000000000000000000000000000000000000000000081526004016126569061357a565b60405180910390fd5b600260008154809291906001019190505550600360008473ffffffffffffffffffffffffffffffffffffffff1673ffffffffffffffffffffffffffffffffffffffff16815260200190815260200160002060008154809291906001019190505550826004600084815260200190815260200160002060006101000a81548173ffffffffffffffffffffffffffffffffffffffff021916908373ffffffffffffffffffffffffffffffffffffffff1602179055508060056000848152602001908152602001600020908051906020019061273992919061279b565b50818373ffffffffffffffffffffffffffffffffffffffff16600073ffffffffffffffffffffffffffffffffffffffff167fddf252ad1be2c89b69c2b068fc378daa952ba7f163c4a11628f55a4df523b3ef60405160405180910390a4505050565b8280546127a790613798565b90600052602060002090601f0160209004810192826127c95760008555612810565b82601f106127e257805160ff1916838001178555612810565b82800160010185558215612810579182015b8281111561280f5782518255916020019190600101906127f4565b5b50905061281d9190612821565b5090565b5b8082111561283a576000816000905550600101612822565b5090565b600061285161284c846135da565b6135b5565b9050808382526020820190508285602086028201111561287057600080fd5b60005b858110156128a05781612886888261297a565b845260208401935060208301925050600181019050612873565b5050509392505050565b60006128bd6128b884613606565b6135b5565b9050828152602081018484840111156128d557600080fd5b6128e0848285613756565b509392505050565b60006128fb6128f684613637565b6135b5565b90508281526020810184848401111561291357600080fd5b61291e848285613756565b509392505050565b60008135905061293581613b09565b92915050565b600082601f83011261294c57600080fd5b813561295c84826020860161283e565b91505092915050565b60008135905061297481613b20565b92915050565b60008135905061298981613b37565b92915050565b60008135905061299e81613b4e565b92915050565b6000815190506129b381613b4e565b92915050565b600082601f8301126129ca57600080fd5b81356129da8482602086016128aa565b91505092915050565b600082601f8301126129f457600080fd5b8135612a048482602086016128e8565b91505092915050565b600081359050612a1c81613b65565b92915050565b600081359050612a3181613b7c565b92915050565b600060208284031215612a4957600080fd5b6000612a5784828501612926565b91505092915050565b60008060408385031215612a7357600080fd5b6000612a8185828601612926565b9250506020612a9285828601612926565b9150509250929050565b600080600060608486031215612ab157600080fd5b6000612abf86828701612926565b9350506020612ad086828701612926565b9250506040612ae186828701612a0d565b9150509250925092565b60008060008060808587031215612b0157600080fd5b6000612b0f87828801612926565b9450506020612b2087828801612926565b9350506040612b3187828801612a0d565b925050606085013567ffffffffffffffff811115612b4e57600080fd5b612b5a878288016129b9565b91505092959194509250565b60008060008060008060c08789031215612b7f57600080fd5b6000612b8d89828a01612926565b9650506020612b9e89828a01612926565b9550506040612baf89828a01612a0d565b9450506060612bc089828a01612a22565b9350506080612bd189828a0161297a565b92505060a0612be289828a0161297a565b9150509295509295509295565b60008060408385031215612c0257600080fd5b6000612c1085828601612926565b9250506020612c2185828601612965565b9150509250929050565b60008060408385031215612c3e57600080fd5b6000612c4c85828601612926565b925050602083013567ffffffffffffffff811115612c6957600080fd5b612c75858286016129e3565b9150509250929050565b60008060408385031215612c9257600080fd5b6000612ca085828601612926565b9250506020612cb185828601612a0d565b9150509250929050565b60008060008060008060c08789031215612cd457600080fd5b6000612ce289828a01612926565b9650506020612cf389828a01612a0d565b9550506040612d0489828a01612a0d565b9450506060612d1589828a01612a22565b9350506080612d2689828a0161297a565b92505060a0612d3789828a0161297a565b9150509295509295509295565b600060208284031215612d5657600080fd5b600082013567ffffffffffffffff811115612d7057600080fd5b612d7c8482850161293b565b91505092915050565b600060208284031215612d9757600080fd5b6000612da584828501612965565b91505092915050565b600060208284031215612dc057600080fd5b6000612dce8482850161297a565b91505092915050565b600060208284031215612de957600080fd5b6000612df78482850161298f565b91505092915050565b600060208284031215612e1257600080fd5b6000612e20848285016129a4565b91505092915050565b600060208284031215612e3b57600080fd5b6000612e4984828501612a0d565b91505092915050565b612e5b816136cb565b82525050565b612e72612e6d826136cb565b613844565b82525050565b612e81816136dd565b82525050565b612e90816136e9565b82525050565b612ea7612ea2826136e9565b613856565b82525050565b6000612eb88261367d565b612ec28185613693565b9350612ed2818560208601613765565b612edb816138ff565b840191505092915050565b6000612ef18261367d565b612efb81856136a4565b9350612f0b818560208601613765565b80840191505092915050565b60008154612f2481613798565b612f2e81866136a4565b94506001821660008114612f495760018114612f5a57612f8d565b60ff19831686528186019350612f8d565b612f6385613668565b60005b83811015612f8557815481890152600182019150602081019050612f66565b838801955050505b50505092915050565b6000612fa182613688565b612fab81856136af565b9350612fbb818560208601613765565b612fc4816138ff565b840191505092915050565b6000612fdc601c836136af565b9150612fe78261391d565b602082019050919050565b6000612fff6002836136c0565b915061300a82613946565b600282019050919050565b60006130226018836136af565b915061302d8261396f565b602082019050919050565b6000613045600c836136af565b915061305082613998565b602082019050919050565b60006130686018836136af565b9150613073826139c1565b602082019050919050565b600061308b600c836136af565b9150613096826139ea565b602082019050919050565b60006130ae600e836136af565b91506130b982613a13565b602082019050919050565b60006130d16013836136af565b91506130dc82613a3c565b602082019050919050565b60006130f46011836136af565b91506130ff82613a65565b602082019050919050565b60006131176009836136af565b915061312282613a8e565b602082019050919050565b600061313a6017836136af565b915061314582613ab7565b602082019050919050565b600061315d600e836136af565b915061316882613ae0565b602082019050919050565b61317c8161373f565b82525050565b61318b81613749565b82525050565b600061319d8284612e61565b60148201915081905092915050565b60006131b88285612e96565b6020820191506131c88284612e96565b6020820191508190509392505050565b60006131e48284612ee6565b915081905092915050565b60006131fb8284612f17565b915081905092915050565b600061321182612ff2565b915061321d8285612e96565b60208201915061322d8284612e96565b6020820191508190509392505050565b60006020820190506132526000830184612e52565b92915050565b600060808201905061326d6000830187612e52565b61327a6020830186612e52565b6132876040830185613173565b81810360608301526132998184612ead565b905095945050505050565b60006020820190506132b96000830184612e78565b92915050565b60006020820190506132d46000830184612e87565b92915050565b600060a0820190506132ef6000830188612e87565b6132fc6020830187612e52565b6133096040830186612e52565b6133166060830185613173565b6133236080830184613173565b9695505050505050565b600060a0820190506133426000830188612e87565b61334f6020830187612e52565b61335c6040830186613173565b6133696060830185613173565b6133766080830184613173565b9695505050505050565b600060a0820190506133956000830188612e87565b6133a26020830187612e87565b6133af6040830186612e87565b6133bc6060830185613173565b6133c96080830184612e52565b9695505050505050565b60006080820190506133e86000830187612e87565b6133f56020830186613182565b6134026040830185612e87565b61340f6060830184612e87565b95945050505050565b600060208201905081810360008301526134328184612f96565b905092915050565b6000602082019050818103600083015261345381612fcf565b9050919050565b6000602082019050818103600083015261347381613015565b9050919050565b6000602082019050818103600083015261349381613038565b9050919050565b600060208201905081810360008301526134b38161305b565b9050919050565b600060208201905081810360008301526134d38161307e565b9050919050565b600060208201905081810360008301526134f3816130a1565b9050919050565b60006020820190508181036000830152613513816130c4565b9050919050565b60006020820190508181036000830152613533816130e7565b9050919050565b600060208201905081810360008301526135538161310a565b9050919050565b600060208201905081810360008301526135738161312d565b9050919050565b6000602082019050818103600083015261359381613150565b9050919050565b60006020820190506135af6000830184613173565b92915050565b60006135bf6135d0565b90506135cb82826137ca565b919050565b6000604051905090565b600067ffffffffffffffff8211156135f5576135f46138d0565b5b602082029050602081019050919050565b600067ffffffffffffffff821115613621576136206138d0565b5b61362a826138ff565b9050602081019050919050565b600067ffffffffffffffff821115613652576136516138d0565b5b61365b826138ff565b9050602081019050919050565b60008190508160005260206000209050919050565b600081519050919050565b600081519050919050565b600082825260208201905092915050565b600081905092915050565b600082825260208201905092915050565b600081905092915050565b60006136d68261371f565b9050919050565b60008115159050919050565b6000819050919050565b60007fffffffff0000000000000000000000000000000000000000000000000000000082169050919050565b600073ffffffffffffffffffffffffffffffffffffffff82169050919050565b6000819050919050565b600060ff82169050919050565b82818337600083830152505050565b60005b83811015613783578082015181840152602081019050613768565b83811115613792576000848401525b50505050565b600060028204905060018216806137b057607f821691505b602082108114156137c4576137c36138a1565b5b50919050565b6137d3826138ff565b810181811067ffffffffffffffff821117156137f2576137f16138d0565b5b80604052505050565b60006138068261373f565b91507fffffffffffffffffffffffffffffffffffffffffffffffffffffffffffffffff82141561383957613838613872565b5b600182019050919050565b600061384f82613860565b9050919050565b6000819050919050565b600061386b82613910565b9050919050565b7f4e487b7100000000000000000000000000000000000000000000000000000000600052601160045260246000fd5b7f4e487b7100000000000000000000000000000000000000000000000000000000600052602260045260246000fd5b7f4e487b7100000000000000000000000000000000000000000000000000000000600052604160045260246000fd5b6000601f19601f8301169050919050565b60008160601b9050919050565b7f596f7520617265206e6f74206f6e207468652077686974656c69737400000000600082015250565b7f1901000000000000000000000000000000000000000000000000000000000000600082015250565b7f494e56414c49445f5045524d49545f5349474e41545552450000000000000000600082015250565b7f4e4f545f415050524f5645440000000000000000000000000000000000000000600082015250565b7f4e6f742074696d6520746f206d616b65206120636c61696d0000000000000000600082015250565b7f5a45524f5f414444524553530000000000000000000000000000000000000000600082015250565b7f494e56414c49445f5349474e4552000000000000000000000000000000000000600082015250565b7f4e4f545f4552433732315f524543454956455200000000000000000000000000600082015250565b7f4e4f545f50454e44494e475f4f574e4552000000000000000000000000000000600082015250565b7f4e4f545f4f574e45520000000000000000000000000000000000000000000000600082015250565b7f5045524d49545f444541444c494e455f45585049524544000000000000000000600082015250565b7f414c52454144595f4d494e544544000000000000000000000000000000000000600082015250565b613b12816136cb565b8114613b1d57600080fd5b50565b613b29816136dd565b8114613b3457600080fd5b50565b613b40816136e9565b8114613b4b57600080fd5b50565b613b57816136f3565b8114613b6257600080fd5b50565b613b6e8161373f565b8114613b7957600080fd5b50565b613b8581613749565b8114613b9057600080fd5b5056fea26469706673582212208ab9b52adb49a4a59d81283b5a04a97dbdeea04b0202f3feb18b65446e35fdbd64736f6c63430008040033",
  "linkReferences": {},
  "deployedLinkReferences": {}
}