{
  "fileName": "ZeppelinTest.sol",
  "contractName": "Counter",
  "source": "// contracts/Counter.sol\npragma solidity ^0.5.0;\n\ncontract Counter {\n  uint256 public value;\n\n  function increase(uint256 amount) public {\n    value += amount;\n  }\n}\n",
  "sourcePath": "contracts/ZeppelinTest.sol",
  "abi": [
    {
      "constant": false,
      "inputs": [
        {
          "internalType": "uint256",
          "name": "amount",
          "type": "uint256"
        }
      ],
      "name": "increase",
      "outputs": [],
      "payable": false,
      "stateMutability": "nonpayable",
      "type": "function"
    },
    {
      "constant": true,
      "inputs": [],
      "name": "value",
      "outputs": [
        {
          "internalType": "uint256",
          "name": "",
          "type": "uint256"
        }
      ],
      "payable": false,
      "stateMutability": "view",
      "type": "function"
    }
  ],
  "bytecode": "0x608060405234801561001057600080fd5b5060cb8061001f6000396000f3fe6080604052348015600f57600080fd5b506004361060325760003560e01c806330f3f0db1460375780633fa4f245146062575b600080fd5b606060048036036020811015604b57600080fd5b8101908080359060200190929190505050607e565b005b60686090565b6040518082815260200191505060405180910390f35b80600080828254019250508190555050565b6000548156fea265627a7a72315820d28b06c3af5760b5f5aa181d215ea052c4047fafa5a20c3f92092770ee3ab2e964736f6c63430005110032",
  "compiler": {
    "name": "solc",
    "version": "0.5.17+commit.d19bba13.Emscripten.clang",
    "optimizer": {
      "enabled": false,
      "runs": 200
    },
    "evmVersion": "petersburg"
  }
}