{
  "contracts/LexNFTIncrementalMintableOwnable.sol": {
    "LexNFTIncrementalMintableOwnable": {
      "abi": [
        {
          "inputs": [
            {
              "internalType": "string",
              "name": "_name",
              "type": "string"
            },
            {
              "internalType": "string",
              "name": "_symbol",
              "type": "string"
            },
            {
              "internalType": "address",
              "name": "_owner",
              "type": "address"
            },
            {
              "internalType": "bool",
              "name": "_whitelistenabled",
              "type": "bool"
            }
          ],
          "stateMutability": "nonpayable",
          "type": "constructor"
        },
        {
          "anonymous": false,
          "inputs": [
            {
              "indexed": true,
              "internalType": "address",
              "name": "owner",
              "type": "address"
            },
            {
              "indexed": true,
              "internalType": "address",
              "name": "spender",
              "type": "address"
            },
            {
              "indexed": true,
              "internalType": "uint256",
              "name": "tokenId",
              "type": "uint256"
            }
          ],
          "name": "Approval",
          "type": "event"
        },
        {
          "anonymous": false,
          "inputs": [
            {
              "indexed": true,
              "internalType": "address",
              "name": "owner",
              "type": "address"
            },
            {
              "indexed": true,
              "internalType": "address",
              "name": "operator",
              "type": "address"
            },
            {
              "indexed": false,
              "internalType": "bool",
              "name": "approved",
              "type": "bool"
            }
          ],
          "name": "ApprovalForAll",
          "type": "event"
        },
        {
          "anonymous": false,
          "inputs": [
            {
              "indexed": true,
              "internalType": "bool",
              "name": "whitelistEnabled",
              "type": "bool"
            }
          ],
          "name": "ToggleWhiteList",
          "type": "event"
        },
        {
          "anonymous": false,
          "inputs": [
            {
              "indexed": true,
              "internalType": "address",
              "name": "from",
              "type": "address"
            },
            {
              "indexed": true,
              "internalType": "address",
              "name": "to",
              "type": "address"
            },
            {
              "indexed": true,
              "internalType": "uint256",
              "name": "tokenId",
              "type": "uint256"
            }
          ],
          "name": "Transfer",
          "type": "event"
        },
        {
          "anonymous": false,
          "inputs": [
            {
              "indexed": true,
              "internalType": "address",
              "name": "from",
              "type": "address"
            },
            {
              "indexed": true,
              "internalType": "address",
              "name": "to",
              "type": "address"
            }
          ],
          "name": "TransferOwner",
          "type": "event"
        },
        {
          "anonymous": false,
          "inputs": [
            {
              "indexed": true,
              "internalType": "address",
              "name": "from",
              "type": "address"
            },
            {
              "indexed": true,
              "internalType": "address",
              "name": "to",
              "type": "address"
            }
          ],
          "name": "TransferOwnerClaim",
          "type": "event"
        },
        {
          "anonymous": false,
          "inputs": [
            {
              "indexed": true,
              "internalType": "address",
              "name": "account",
              "type": "address"
            },
            {
              "indexed": true,
              "internalType": "bool",
              "name": "whitelisted",
              "type": "bool"
            }
          ],
          "name": "UpdateWhitelist",
          "type": "event"
        },
        {
          "inputs": [],
          "name": "DOMAIN_SEPARATOR",
          "outputs": [
            {
              "internalType": "bytes32",
              "name": "domainSeperator",
              "type": "bytes32"
            }
          ],
          "stateMutability": "view",
          "type": "function"
        },
        {
          "inputs": [],
          "name": "PERMIT_ALL_TYPEHASH",
          "outputs": [
            {
              "internalType": "bytes32",
              "name": "",
              "type": "bytes32"
            }
          ],
          "stateMutability": "view",
          "type": "function"
        },
        {
          "inputs": [],
          "name": "PERMIT_TYPEHASH",
          "outputs": [
            {
              "internalType": "bytes32",
              "name": "",
              "type": "bytes32"
            }
          ],
          "stateMutability": "view",
          "type": "function"
        },
        {
          "inputs": [
            {
              "internalType": "address",
              "name": "spender",
              "type": "address"
            },
            {
              "internalType": "uint256",
              "name": "tokenId",
              "type": "uint256"
            }
          ],
          "name": "approve",
          "outputs": [],
          "stateMutability": "nonpayable",
          "type": "function"
        },
        {
          "inputs": [
            {
              "internalType": "address",
              "name": "",
              "type": "address"
            }
          ],
          "name": "balanceOf",
          "outputs": [
            {
              "internalType": "uint256",
              "name": "",
              "type": "uint256"
            }
          ],
          "stateMutability": "view",
          "type": "function"
        },
        {
          "inputs": [],
          "name": "claimOwner",
          "outputs": [],
          "stateMutability": "nonpayable",
          "type": "function"
        },
        {
          "inputs": [
            {
              "internalType": "bytes32[]",
              "name": "proof",
              "type": "bytes32[]"
            }
          ],
          "name": "claimWhiteList",
          "outputs": [],
          "stateMutability": "nonpayable",
          "type": "function"
        },
        {
          "inputs": [
            {
              "internalType": "uint256",
              "name": "",
              "type": "uint256"
            }
          ],
          "name": "getApproved",
          "outputs": [
            {
              "internalType": "address",
              "name": "",
              "type": "address"
            }
          ],
          "stateMutability": "view",
          "type": "function"
        },
        {
          "inputs": [
            {
              "internalType": "address",
              "name": "",
              "type": "address"
            },
            {
              "internalType": "address",
              "name": "",
              "type": "address"
            }
          ],
          "name": "isApprovedForAll",
          "outputs": [
            {
              "internalType": "bool",
              "name": "",
              "type": "bool"
            }
          ],
          "stateMutability": "view",
          "type": "function"
        },
        {
          "inputs": [
            {
              "internalType": "address",
              "name": "to",
              "type": "address"
            },
            {
              "internalType": "string",
              "name": "_tokenURI",
              "type": "string"
            }
          ],
          "name": "mint",
          "outputs": [],
          "stateMutability": "nonpayable",
          "type": "function"
        },
        {
          "inputs": [],
          "name": "name",
          "outputs": [
            {
              "internalType": "string",
              "name": "",
              "type": "string"
            }
          ],
          "stateMutability": "view",
          "type": "function"
        },
        {
          "inputs": [
            {
              "internalType": "uint256",
              "name": "",
              "type": "uint256"
            }
          ],
          "name": "nonces",
          "outputs": [
            {
              "internalType": "uint256",
              "name": "",
              "type": "uint256"
            }
          ],
          "stateMutability": "view",
          "type": "function"
        },
        {
          "inputs": [
            {
              "internalType": "address",
              "name": "",
              "type": "address"
            }
          ],
          "name": "noncesForAll",
          "outputs": [
            {
              "internalType": "uint256",
              "name": "",
              "type": "uint256"
            }
          ],
          "stateMutability": "view",
          "type": "function"
        },
        {
          "inputs": [],
          "name": "owner",
          "outputs": [
            {
              "internalType": "address",
              "name": "",
              "type": "address"
            }
          ],
          "stateMutability": "view",
          "type": "function"
        },
        {
          "inputs": [
            {
              "internalType": "uint256",
              "name": "",
              "type": "uint256"
            }
          ],
          "name": "ownerOf",
          "outputs": [
            {
              "internalType": "address",
              "name": "",
              "type": "address"
            }
          ],
          "stateMutability": "view",
          "type": "function"
        },
        {
          "inputs": [],
          "name": "pendingOwner",
          "outputs": [
            {
              "internalType": "address",
              "name": "",
              "type": "address"
            }
          ],
          "stateMutability": "view",
          "type": "function"
        },
        {
          "inputs": [
            {
              "internalType": "address",
              "name": "spender",
              "type": "address"
            },
            {
              "internalType": "uint256",
              "name": "tokenId",
              "type": "uint256"
            },
            {
              "internalType": "uint256",
              "name": "deadline",
              "type": "uint256"
            },
            {
              "internalType": "uint8",
              "name": "v",
              "type": "uint8"
            },
            {
              "internalType": "bytes32",
              "name": "r",
              "type": "bytes32"
            },
            {
              "internalType": "bytes32",
              "name": "s",
              "type": "bytes32"
            }
          ],
          "name": "permit",
          "outputs": [],
          "stateMutability": "nonpayable",
          "type": "function"
        },
        {
          "inputs": [
            {
              "internalType": "address",
              "name": "owner",
              "type": "address"
            },
            {
              "internalType": "address",
              "name": "operator",
              "type": "address"
            },
            {
              "internalType": "uint256",
              "name": "deadline",
              "type": "uint256"
            },
            {
              "internalType": "uint8",
              "name": "v",
              "type": "uint8"
            },
            {
              "internalType": "bytes32",
              "name": "r",
              "type": "bytes32"
            },
            {
              "internalType": "bytes32",
              "name": "s",
              "type": "bytes32"
            }
          ],
          "name": "permitAll",
          "outputs": [],
          "stateMutability": "nonpayable",
          "type": "function"
        },
        {
          "inputs": [
            {
              "internalType": "address",
              "name": "",
              "type": "address"
            },
            {
              "internalType": "address",
              "name": "to",
              "type": "address"
            },
            {
              "internalType": "uint256",
              "name": "tokenId",
              "type": "uint256"
            }
          ],
          "name": "safeTransferFrom",
          "outputs": [],
          "stateMutability": "nonpayable",
          "type": "function"
        },
        {
          "inputs": [
            {
              "internalType": "address",
              "name": "",
              "type": "address"
            },
            {
              "internalType": "address",
              "name": "to",
              "type": "address"
            },
            {
              "internalType": "uint256",
              "name": "tokenId",
              "type": "uint256"
            },
            {
              "internalType": "bytes",
              "name": "data",
              "type": "bytes"
            }
          ],
          "name": "safeTransferFrom",
          "outputs": [],
          "stateMutability": "nonpayable",
          "type": "function"
        },
        {
          "inputs": [
            {
              "internalType": "address",
              "name": "operator",
              "type": "address"
            },
            {
              "internalType": "bool",
              "name": "approved",
              "type": "bool"
            }
          ],
          "name": "setApprovalForAll",
          "outputs": [],
          "stateMutability": "nonpayable",
          "type": "function"
        },
        {
          "inputs": [
            {
              "internalType": "bytes32",
              "name": "root",
              "type": "bytes32"
            }
          ],
          "name": "setMerkleRoot",
          "outputs": [],
          "stateMutability": "nonpayable",
          "type": "function"
        },
        {
          "inputs": [
            {
              "internalType": "bytes4",
              "name": "interfaceId",
              "type": "bytes4"
            }
          ],
          "name": "supportsInterface",
          "outputs": [
            {
              "internalType": "bool",
              "name": "supported",
              "type": "bool"
            }
          ],
          "stateMutability": "pure",
          "type": "function"
        },
        {
          "inputs": [],
          "name": "symbol",
          "outputs": [
            {
              "internalType": "string",
              "name": "",
              "type": "string"
            }
          ],
          "stateMutability": "view",
          "type": "function"
        },
        {
          "inputs": [
            {
              "internalType": "bool",
              "name": "_whitelistEnabled",
              "type": "bool"
            }
          ],
          "name": "toggleWhitelist",
          "outputs": [],
          "stateMutability": "nonpayable",
          "type": "function"
        },
        {
          "inputs": [
            {
              "internalType": "uint256",
              "name": "",
              "type": "uint256"
            }
          ],
          "name": "tokenURI",
          "outputs": [
            {
              "internalType": "string",
              "name": "",
              "type": "string"
            }
          ],
          "stateMutability": "view",
          "type": "function"
        },
        {
          "inputs": [],
          "name": "totalSupply",
          "outputs": [
            {
              "internalType": "uint256",
              "name": "",
              "type": "uint256"
            }
          ],
          "stateMutability": "view",
          "type": "function"
        },
        {
          "inputs": [
            {
              "internalType": "address",
              "name": "to",
              "type": "address"
            },
            {
              "internalType": "uint256",
              "name": "tokenId",
              "type": "uint256"
            }
          ],
          "name": "transfer",
          "outputs": [],
          "stateMutability": "nonpayable",
          "type": "function"
        },
        {
          "inputs": [
            {
              "internalType": "address",
              "name": "",
              "type": "address"
            },
            {
              "internalType": "address",
              "name": "to",
              "type": "address"
            },
            {
              "internalType": "uint256",
              "name": "tokenId",
              "type": "uint256"
            }
          ],
          "name": "transferFrom",
          "outputs": [],
          "stateMutability": "nonpayable",
          "type": "function"
        },
        {
          "inputs": [
            {
              "internalType": "address",
              "name": "to",
              "type": "address"
            },
            {
              "internalType": "bool",
              "name": "direct",
              "type": "bool"
            }
          ],
          "name": "transferOwner",
          "outputs": [],
          "stateMutability": "nonpayable",
          "type": "function"
        },
        {
          "inputs": [
            {
              "internalType": "address",
              "name": "account",
              "type": "address"
            },
            {
              "internalType": "bool",
              "name": "_whitelisted",
              "type": "bool"
            }
          ],
          "name": "updateWhitelist",
          "outputs": [],
          "stateMutability": "nonpayable",
          "type": "function"
        },
        {
          "inputs": [],
          "name": "whitelistEnabled",
          "outputs": [
            {
              "internalType": "bool",
              "name": "",
              "type": "bool"
            }
          ],
          "stateMutability": "view",
          "type": "function"
        },
        {
          "inputs": [
            {
              "internalType": "address",
              "name": "",
              "type": "address"
            }
          ],
          "name": "whitelisted",
          "outputs": [
            {
              "internalType": "bool",
              "name": "",
              "type": "bool"
            }
          ],
          "stateMutability": "view",
          "type": "function"
        }
      ],
      "evm": {
        "bytecode": {
          "linkReferences": {},
          "object": "60c06040523480156200001157600080fd5b50604051620043563803806200435683398181016040528101906200003791906200037d565b80828086868160009080519060200190620000549291906200022d565b5080600190805190602001906200006d9291906200022d565b504660808181525050620000866200018160201b60201c565b60a08181525050505080600a60006101000a81548173ffffffffffffffffffffffffffffffffffffffff021916908373ffffffffffffffffffffffffffffffffffffffff1602179055508073ffffffffffffffffffffffffffffffffffffffff16600073ffffffffffffffffffffffffffffffffffffffff167f5bb496b3f951b55d3a1d8e479725a4d25bdc7644fc355f0b71c540354820a1c560405160405180910390a35081600b60146101000a81548160ff0219169083151502179055508115157f1bce650c18d48dc571157e199d09844825d5cd56d07410dbc8f7ddc86966048060405160405180910390a250505050505062000767565b60007f8b73c3c69bb8fe3d512ecc4cf759cc79239f7b179b0ffacaa9a75d522b39400f6000604051620001b59190620004d9565b60405180910390206040518060400160405280600181526020017f310000000000000000000000000000000000000000000000000000000000000081525080519060200120463060405160200162000212959493929190620004f2565b60405160208183030381529060405280519060200120905090565b8280546200023b9062000658565b90600052602060002090601f0160209004810192826200025f5760008555620002ab565b82601f106200027a57805160ff1916838001178555620002ab565b82800160010185558215620002ab579182015b82811115620002aa5782518255916020019190600101906200028d565b5b509050620002ba9190620002be565b5090565b5b80821115620002d9576000816000905550600101620002bf565b5090565b6000620002f4620002ee8462000578565b6200054f565b9050828152602081018484840111156200030d57600080fd5b6200031a84828562000622565b509392505050565b600081519050620003338162000733565b92915050565b6000815190506200034a816200074d565b92915050565b600082601f8301126200036257600080fd5b815162000374848260208601620002dd565b91505092915050565b600080600080608085870312156200039457600080fd5b600085015167ffffffffffffffff811115620003af57600080fd5b620003bd8782880162000350565b945050602085015167ffffffffffffffff811115620003db57600080fd5b620003e98782880162000350565b9350506040620003fc8782880162000322565b92505060606200040f8782880162000339565b91505092959194509250565b6200042681620005ce565b82525050565b6200043781620005ee565b82525050565b600081546200044c8162000658565b620004588186620005c3565b945060018216600081146200047657600181146200048857620004bf565b60ff19831686528186019350620004bf565b6200049385620005ae565b60005b83811015620004b75781548189015260018201915060208101905062000496565b838801955050505b50505092915050565b620004d38162000618565b82525050565b6000620004e782846200043d565b915081905092915050565b600060a0820190506200050960008301886200042c565b6200051860208301876200042c565b6200052760408301866200042c565b620005366060830185620004c8565b6200054560808301846200041b565b9695505050505050565b60006200055b6200056e565b90506200056982826200068e565b919050565b6000604051905090565b600067ffffffffffffffff821115620005965762000595620006f3565b5b620005a18262000722565b9050602081019050919050565b60008190508160005260206000209050919050565b600081905092915050565b6000620005db82620005f8565b9050919050565b60008115159050919050565b6000819050919050565b600073ffffffffffffffffffffffffffffffffffffffff82169050919050565b6000819050919050565b60005b838110156200064257808201518184015260208101905062000625565b8381111562000652576000848401525b50505050565b600060028204905060018216806200067157607f821691505b60208210811415620006885762000687620006c4565b5b50919050565b620006998262000722565b810181811067ffffffffffffffff82111715620006bb57620006ba620006f3565b5b80604052505050565b7f4e487b7100000000000000000000000000000000000000000000000000000000600052602260045260246000fd5b7f4e487b7100000000000000000000000000000000000000000000000000000000600052604160045260246000fd5b6000601f19601f8301169050919050565b6200073e81620005ce565b81146200074a57600080fd5b50565b6200075881620005e2565b81146200076457600080fd5b50565b60805160a051613bc96200078d6000396000610e5f01526000610e2b0152613bc96000f3fe608060405234801561001057600080fd5b50600436106101fb5760003560e01c80637ac2ff7b1161011a578063aba07847116100ad578063cf81afaa1161007c578063cf81afaa1461059a578063d0def521146105b6578063d936547e146105d2578063e30c397814610602578063e985e9c514610620576101fb565b8063aba0784714610514578063b4e13c8d14610530578063b88d4fde1461054e578063c87b56dd1461056a576101fb565b8063904dfb8e116100e9578063904dfb8e1461048e57806395d89b41146104be578063a22cb465146104dc578063a9059cbb146104f8576101fb565b80637ac2ff7b1461041c5780637cb647591461043857806380e3f1ad146104545780638da5cb5b14610470576101fb565b806330adf81f1161019257806345b6c60d1161016157806345b6c60d1461038257806351fb012d1461039e5780636352211e146103bc57806370a08231146103ec576101fb565b806330adf81f146103205780633644e5151461033e5780633bd1adec1461035c57806342842e0e14610366576101fb565b80630d392cd9116101ce5780630d392cd91461029a578063141a468c146102b657806318160ddd146102e657806323b872dd14610304576101fb565b806301ffc9a71461020057806306fdde0314610230578063081812fc1461024e578063095ea7b31461027e575b600080fd5b61021a60048036038101906102159190612dd7565b610650565b60405161022791906132a4565b60405180910390f35b6102386106e2565b6040516102459190613418565b60405180910390f35b61026860048036038101906102639190612e29565b610770565b604051610275919061323d565b60405180910390f35b61029860048036038101906102939190612c7f565b6107a3565b005b6102b460048036038101906102af9190612bef565b61098c565b005b6102d060048036038101906102cb9190612e29565b610abd565b6040516102dd919061359a565b60405180910390f35b6102ee610ad5565b6040516102fb919061359a565b60405180910390f35b61031e60048036038101906103199190612a9c565b610adb565b005b610328610e03565b60405161033591906132bf565b60405180910390f35b610346610e27565b60405161035391906132bf565b60405180910390f35b610364610e84565b005b610380600480360381019061037b9190612a9c565b611015565b005b61039c60048036038101906103979190612d44565b611036565b005b6103a661119c565b6040516103b391906132a4565b60405180910390f35b6103d660048036038101906103d19190612e29565b6111af565b6040516103e3919061323d565b60405180910390f35b61040660048036038101906104019190612a37565b6111e2565b604051610413919061359a565b60405180910390f35b61043660048036038101906104319190612cbb565b6111fa565b005b610452600480360381019061044d9190612dae565b611592565b005b61046e60048036038101906104699190612d85565b61162c565b005b610478611708565b604051610485919061323d565b60405180910390f35b6104a860048036038101906104a39190612a37565b61172e565b6040516104b5919061359a565b60405180910390f35b6104c6611746565b6040516104d39190613418565b60405180910390f35b6104f660048036038101906104f19190612bef565b6117d4565b005b610512600480360381019061050d9190612c7f565b6118d1565b005b61052e60048036038101906105299190612b66565b611af8565b005b610538611e9a565b60405161054591906132bf565b60405180910390f35b61056860048036038101906105639190612aeb565b611ebe565b005b610584600480360381019061057f9190612e29565b61203a565b6040516105919190613418565b60405180910390f35b6105b460048036038101906105af9190612bef565b6120da565b005b6105d060048036038101906105cb9190612c2b565b612320565b005b6105ec60048036038101906105e79190612a37565b6123c4565b6040516105f991906132a4565b60405180910390f35b61060a6123e4565b604051610617919061323d565b60405180910390f35b61063a60048036038101906106359190612a60565b61240a565b60405161064791906132a4565b60405180910390f35b60006380ac58cd60e01b827bffffffffffffffffffffffffffffffffffffffffffffffffffffffff191614806106ab5750635b5e139f60e01b827bffffffffffffffffffffffffffffffffffffffffffffffffffffffff1916145b806106db57506301ffc9a760e01b827bffffffffffffffffffffffffffffffffffffffffffffffffffffffff1916145b9050919050565b600080546106ef90613798565b80601f016020809104026020016040519081016040528092919081815260200182805461071b90613798565b80156107685780601f1061073d57610100808354040283529160200191610768565b820191906000526020600020905b81548152906001019060200180831161074b57829003601f168201915b505050505081565b60066020528060005260406000206000915054906101000a900473ffffffffffffffffffffffffffffffffffffffff1681565b60006004600083815260200190815260200160002060009054906101000a900473ffffffffffffffffffffffffffffffffffffffff1690508073ffffffffffffffffffffffffffffffffffffffff163373ffffffffffffffffffffffffffffffffffffffff16148061089b5750600760008273ffffffffffffffffffffffffffffffffffffffff1673ffffffffffffffffffffffffffffffffffffffff16815260200190815260200160002060003373ffffffffffffffffffffffffffffffffffffffff1673ffffffffffffffffffffffffffffffffffffffff16815260200190815260200160002060009054906101000a900460ff165b6108da576040517f08c379a00000000000000000000000000000000000000000000000000000000081526004016108d19061347a565b60405180910390fd5b826006600084815260200190815260200160002060006101000a81548173ffffffffffffffffffffffffffffffffffffffff021916908373ffffffffffffffffffffffffffffffffffffffff160217905550818373ffffffffffffffffffffffffffffffffffffffff168273ffffffffffffffffffffffffffffffffffffffff167f8c5be1e5ebec7d5bd14f71427d1e84f3dd0314c0f7b2291e5b200ac8c7c3b92560405160405180910390a4505050565b600a60009054906101000a900473ffffffffffffffffffffffffffffffffffffffff1673ffffffffffffffffffffffffffffffffffffffff163373ffffffffffffffffffffffffffffffffffffffff1614610a1c576040517f08c379a0000000000000000000000000000000000000000000000000000000008152600401610a139061353a565b60405180910390fd5b80600c60008473ffffffffffffffffffffffffffffffffffffffff1673ffffffffffffffffffffffffffffffffffffffff16815260200190815260200160002060006101000a81548160ff0219169083151502179055508015158273ffffffffffffffffffffffffffffffffffffffff167f08b2c0469ecd1d7a21d7e1492f0fc75fc7e8e0fa4fdf4275949c90875f5ebdf560405160405180910390a35050565b60086020528060005260406000206000915090505481565b60025481565b60006004600083815260200190815260200160002060009054906101000a900473ffffffffffffffffffffffffffffffffffffffff1690508073ffffffffffffffffffffffffffffffffffffffff163373ffffffffffffffffffffffffffffffffffffffff161480610bab57506006600083815260200190815260200160002060009054906101000a900473ffffffffffffffffffffffffffffffffffffffff1673ffffffffffffffffffffffffffffffffffffffff163373ffffffffffffffffffffffffffffffffffffffff16145b80610c3c5750600760008273ffffffffffffffffffffffffffffffffffffffff1673ffffffffffffffffffffffffffffffffffffffff16815260200190815260200160002060003373ffffffffffffffffffffffffffffffffffffffff1673ffffffffffffffffffffffffffffffffffffffff16815260200190815260200160002060009054906101000a900460ff165b610c7b576040517f08c379a0000000000000000000000000000000000000000000000000000000008152600401610c729061347a565b60405180910390fd5b600360008273ffffffffffffffffffffffffffffffffffffffff1673ffffffffffffffffffffffffffffffffffffffff1681526020019081526020016000206000815480929190600190039190505550600360008473ffffffffffffffffffffffffffffffffffffffff1673ffffffffffffffffffffffffffffffffffffffff168152602001908152602001600020600081548092919060010191905055506006600083815260200190815260200160002060006101000a81549073ffffffffffffffffffffffffffffffffffffffff0219169055826004600084815260200190815260200160002060006101000a81548173ffffffffffffffffffffffffffffffffffffffff021916908373ffffffffffffffffffffffffffffffffffffffff160217905550818373ffffffffffffffffffffffffffffffffffffffff168273ffffffffffffffffffffffffffffffffffffffff167fddf252ad1be2c89b69c2b068fc378daa952ba7f163c4a11628f55a4df523b3ef60405160405180910390a450505050565b7f49ecf333e5b8c95c40fdafc95c1ad136e8914a8fb55e9dc8bb01eaa83a2df9ad81565b60007f00000000000000000000000000000000000000000000000000000000000000004614610e5d57610e58612439565b610e7f565b7f00000000000000000000000000000000000000000000000000000000000000005b905090565b600b60009054906101000a900473ffffffffffffffffffffffffffffffffffffffff1673ffffffffffffffffffffffffffffffffffffffff163373ffffffffffffffffffffffffffffffffffffffff1614610f14576040517f08c379a0000000000000000000000000000000000000000000000000000000008152600401610f0b9061351a565b60405180910390fd5b3373ffffffffffffffffffffffffffffffffffffffff16600a60009054906101000a900473ffffffffffffffffffffffffffffffffffffffff1673ffffffffffffffffffffffffffffffffffffffff167f5bb496b3f951b55d3a1d8e479725a4d25bdc7644fc355f0b71c540354820a1c560405160405180910390a333600a60006101000a81548173ffffffffffffffffffffffffffffffffffffffff021916908373ffffffffffffffffffffffffffffffffffffffff1602179055506000600b60006101000a81548173ffffffffffffffffffffffffffffffffffffffff021916908373ffffffffffffffffffffffffffffffffffffffff160217905550565b6110316000838360405180602001604052806000815250611ebe565b505050565b6000801b600d54141561107e576040517f08c379a00000000000000000000000000000000000000000000000000000000081526004016110759061349a565b60405180910390fd5b6110bb600d54336040516020016110959190613191565b60405160208183030381529060405280519060200120836124e19092919063ffffffff16565b6110fa576040517f08c379a00000000000000000000000000000000000000000000000000000000081526004016110f19061343a565b60405180910390fd5b6001600c60003373ffffffffffffffffffffffffffffffffffffffff1673ffffffffffffffffffffffffffffffffffffffff16815260200190815260200160002060006101000a81548160ff021916908315150217905550600115153373ffffffffffffffffffffffffffffffffffffffff167f08b2c0469ecd1d7a21d7e1492f0fc75fc7e8e0fa4fdf4275949c90875f5ebdf560405160405180910390a350565b600b60149054906101000a900460ff1681565b60046020528060005260406000206000915054906101000a900473ffffffffffffffffffffffffffffffffffffffff1681565b60036020528060005260406000206000915090505481565b4284101561123d576040517f08c379a00000000000000000000000000000000000000000000000000000000081526004016112349061355a565b60405180910390fd5b60006004600087815260200190815260200160002060009054906101000a900473ffffffffffffffffffffffffffffffffffffffff169050600061127f610e27565b7f49ecf333e5b8c95c40fdafc95c1ad136e8914a8fb55e9dc8bb01eaa83a2df9ad8989600860008c81526020019081526020016000206000815480929190600101919050558a6040516020016112d995949392919061332d565b60405160208183030381529060405280519060200120604051602001611300929190613206565b60405160208183030381529060405280519060200120905060006001828787876040516000815260200160405260405161133d94939291906133d3565b6020604051602081039080840390855afa15801561135f573d6000803e3d6000fd5b505050602060405103519050600073ffffffffffffffffffffffffffffffffffffffff168173ffffffffffffffffffffffffffffffffffffffff1614156113db576040517f08c379a00000000000000000000000000000000000000000000000000000000081526004016113d29061345a565b60405180910390fd5b8273ffffffffffffffffffffffffffffffffffffffff168173ffffffffffffffffffffffffffffffffffffffff16148061149b5750600760008473ffffffffffffffffffffffffffffffffffffffff1673ffffffffffffffffffffffffffffffffffffffff16815260200190815260200160002060008273ffffffffffffffffffffffffffffffffffffffff1673ffffffffffffffffffffffffffffffffffffffff16815260200190815260200160002060009054906101000a900460ff165b6114da576040517f08c379a00000000000000000000000000000000000000000000000000000000081526004016114d1906134da565b60405180910390fd5b5050866006600088815260200190815260200160002060006101000a81548173ffffffffffffffffffffffffffffffffffffffff021916908373ffffffffffffffffffffffffffffffffffffffff160217905550858773ffffffffffffffffffffffffffffffffffffffff168273ffffffffffffffffffffffffffffffffffffffff167f8c5be1e5ebec7d5bd14f71427d1e84f3dd0314c0f7b2291e5b200ac8c7c3b92560405160405180910390a450505050505050565b600a60009054906101000a900473ffffffffffffffffffffffffffffffffffffffff1673ffffffffffffffffffffffffffffffffffffffff163373ffffffffffffffffffffffffffffffffffffffff1614611622576040517f08c379a00000000000000000000000000000000000000000000000000000000081526004016116199061353a565b60405180910390fd5b80600d8190555050565b600a60009054906101000a900473ffffffffffffffffffffffffffffffffffffffff1673ffffffffffffffffffffffffffffffffffffffff163373ffffffffffffffffffffffffffffffffffffffff16146116bc576040517f08c379a00000000000000000000000000000000000000000000000000000000081526004016116b39061353a565b60405180910390fd5b80600b60146101000a81548160ff0219169083151502179055508015157f1bce650c18d48dc571157e199d09844825d5cd56d07410dbc8f7ddc86966048060405160405180910390a250565b600a60009054906101000a900473ffffffffffffffffffffffffffffffffffffffff1681565b60096020528060005260406000206000915090505481565b6001805461175390613798565b80601f016020809104026020016040519081016040528092919081815260200182805461177f90613798565b80156117cc5780601f106117a1576101008083540402835291602001916117cc565b820191906000526020600020905b8154815290600101906020018083116117af57829003601f168201915b505050505081565b80600760003373ffffffffffffffffffffffffffffffffffffffff1673ffffffffffffffffffffffffffffffffffffffff16815260200190815260200160002060008473ffffffffffffffffffffffffffffffffffffffff1673ffffffffffffffffffffffffffffffffffffffff16815260200190815260200160002060006101000a81548160ff0219169083151502179055508173ffffffffffffffffffffffffffffffffffffffff163373ffffffffffffffffffffffffffffffffffffffff167f17307eab39ab6107e8899845ad3d59bd9653f200f220920489ca2b5937696c31836040516118c591906132a4565b60405180910390a35050565b6004600082815260200190815260200160002060009054906101000a900473ffffffffffffffffffffffffffffffffffffffff1673ffffffffffffffffffffffffffffffffffffffff163373ffffffffffffffffffffffffffffffffffffffff1614611972576040517f08c379a00000000000000000000000000000000000000000000000000000000081526004016119699061353a565b60405180910390fd5b600360003373ffffffffffffffffffffffffffffffffffffffff1673ffffffffffffffffffffffffffffffffffffffff1681526020019081526020016000206000815480929190600190039190505550600360008373ffffffffffffffffffffffffffffffffffffffff1673ffffffffffffffffffffffffffffffffffffffff168152602001908152602001600020600081548092919060010191905055506006600082815260200190815260200160002060006101000a81549073ffffffffffffffffffffffffffffffffffffffff0219169055816004600083815260200190815260200160002060006101000a81548173ffffffffffffffffffffffffffffffffffffffff021916908373ffffffffffffffffffffffffffffffffffffffff160217905550808273ffffffffffffffffffffffffffffffffffffffff163373ffffffffffffffffffffffffffffffffffffffff167fddf252ad1be2c89b69c2b068fc378daa952ba7f163c4a11628f55a4df523b3ef60405160405180910390a45050565b42841015611b3b576040517f08c379a0000000000000000000000000000000000000000000000000000000008152600401611b329061355a565b60405180910390fd5b6000611b45610e27565b7fdaab21af31ece73a508939fedd476a5ee5129a5ed4bb091f3236ffb45394df628888600960008c73ffffffffffffffffffffffffffffffffffffffff1673ffffffffffffffffffffffffffffffffffffffff16815260200190815260200160002060008154809291906001019190505589604051602001611bcb9594939291906132da565b60405160208183030381529060405280519060200120604051602001611bf2929190613206565b604051602081830303815290604052805190602001209050600060018286868660405160008152602001604052604051611c2f94939291906133d3565b6020604051602081039080840390855afa158015611c51573d6000803e3d6000fd5b505050602060405103519050600073ffffffffffffffffffffffffffffffffffffffff168173ffffffffffffffffffffffffffffffffffffffff1614158015611cc557508773ffffffffffffffffffffffffffffffffffffffff168173ffffffffffffffffffffffffffffffffffffffff16145b80611d565750600760008973ffffffffffffffffffffffffffffffffffffffff1673ffffffffffffffffffffffffffffffffffffffff16815260200190815260200160002060008273ffffffffffffffffffffffffffffffffffffffff1673ffffffffffffffffffffffffffffffffffffffff16815260200190815260200160002060009054906101000a900460ff165b611d95576040517f08c379a0000000000000000000000000000000000000000000000000000000008152600401611d8c9061345a565b60405180910390fd5b50506001600760008873ffffffffffffffffffffffffffffffffffffffff1673ffffffffffffffffffffffffffffffffffffffff16815260200190815260200160002060008773ffffffffffffffffffffffffffffffffffffffff1673ffffffffffffffffffffffffffffffffffffffff16815260200190815260200160002060006101000a81548160ff0219169083151502179055508473ffffffffffffffffffffffffffffffffffffffff168673ffffffffffffffffffffffffffffffffffffffff167f17307eab39ab6107e8899845ad3d59bd9653f200f220920489ca2b5937696c316001604051611e8a91906132a4565b60405180910390a3505050505050565b7fdaab21af31ece73a508939fedd476a5ee5129a5ed4bb091f3236ffb45394df6281565b611eca60008484610adb565b60008373ffffffffffffffffffffffffffffffffffffffff163b146120345760008373ffffffffffffffffffffffffffffffffffffffff1663150b7a023360008686604051602401611f1f9493929190613258565b6040516020818303038152906040529060e01b6020820180517bffffffffffffffffffffffffffffffffffffffffffffffffffffffff8381831617835250505050604051611f6d91906131d8565b600060405180830381855afa9150503d8060008114611fa8576040519150601f19603f3d011682016040523d82523d6000602084013e611fad565b606091505b50915050600081806020019051810190611fc79190612e00565b905063150b7a0260e01b817bffffffffffffffffffffffffffffffffffffffffffffffffffffffff191614612031576040517f08c379a0000000000000000000000000000000000000000000000000000000008152600401612028906134fa565b60405180910390fd5b50505b50505050565b6005602052806000526040600020600091509050805461205990613798565b80601f016020809104026020016040519081016040528092919081815260200182805461208590613798565b80156120d25780601f106120a7576101008083540402835291602001916120d2565b820191906000526020600020905b8154815290600101906020018083116120b557829003601f168201915b505050505081565b600a60009054906101000a900473ffffffffffffffffffffffffffffffffffffffff1673ffffffffffffffffffffffffffffffffffffffff163373ffffffffffffffffffffffffffffffffffffffff161461216a576040517f08c379a00000000000000000000000000000000000000000000000000000000081526004016121619061353a565b60405180910390fd5b600073ffffffffffffffffffffffffffffffffffffffff168273ffffffffffffffffffffffffffffffffffffffff1614156121da576040517f08c379a00000000000000000000000000000000000000000000000000000000081526004016121d1906134ba565b60405180910390fd5b80156122805781600a60006101000a81548173ffffffffffffffffffffffffffffffffffffffff021916908373ffffffffffffffffffffffffffffffffffffffff1602179055508173ffffffffffffffffffffffffffffffffffffffff163373ffffffffffffffffffffffffffffffffffffffff167f5bb496b3f951b55d3a1d8e479725a4d25bdc7644fc355f0b71c540354820a1c560405160405180910390a361231c565b81600b60006101000a81548173ffffffffffffffffffffffffffffffffffffffff021916908373ffffffffffffffffffffffffffffffffffffffff1602179055508173ffffffffffffffffffffffffffffffffffffffff163373ffffffffffffffffffffffffffffffffffffffff167f87f5c8846f4c51400fa448cfb84edcec5cc0f333b6d20a5b903e050823dcb66760405160405180910390a35b5050565b600a60009054906101000a900473ffffffffffffffffffffffffffffffffffffffff1673ffffffffffffffffffffffffffffffffffffffff163373ffffffffffffffffffffffffffffffffffffffff16146123b0576040517f08c379a00000000000000000000000000000000000000000000000000000000081526004016123a79061353a565b60405180910390fd5b6123c082600160025401836125bd565b5050565b600c6020528060005260406000206000915054906101000a900460ff1681565b600b60009054906101000a900473ffffffffffffffffffffffffffffffffffffffff1681565b60076020528160005260406000206020528060005260406000206000915091509054906101000a900460ff1681565b60007f8b73c3c69bb8fe3d512ecc4cf759cc79239f7b179b0ffacaa9a75d522b39400f600060405161246b91906131ef565b60405180910390206040518060400160405280600181526020017f31000000000000000000000000000000000000000000000000000000000000008152508051906020012046306040516020016124c6959493929190613380565b60405160208183030381529060405280519060200120905090565b60008082905060005b85518110156125af57600086828151811061252e577f4e487b7100000000000000000000000000000000000000000000000000000000600052603260045260246000fd5b6020026020010151905080831161256f5782816040516020016125529291906131ac565b60405160208183030381529060405280519060200120925061259b565b80836040516020016125829291906131ac565b6040516020818303038152906040528051906020012092505b5080806125a7906137fb565b9150506124ea565b508381149150509392505050565b600073ffffffffffffffffffffffffffffffffffffffff166004600084815260200190815260200160002060009054906101000a900473ffffffffffffffffffffffffffffffffffffffff1673ffffffffffffffffffffffffffffffffffffffff161461265f576040517f08c379a00000000000000000000000000000000000000000000000000000000081526004016126569061357a565b60405180910390fd5b600260008154809291906001019190505550600360008473ffffffffffffffffffffffffffffffffffffffff1673ffffffffffffffffffffffffffffffffffffffff16815260200190815260200160002060008154809291906001019190505550826004600084815260200190815260200160002060006101000a81548173ffffffffffffffffffffffffffffffffffffffff021916908373ffffffffffffffffffffffffffffffffffffffff1602179055508060056000848152602001908152602001600020908051906020019061273992919061279b565b50818373ffffffffffffffffffffffffffffffffffffffff16600073ffffffffffffffffffffffffffffffffffffffff167fddf252ad1be2c89b69c2b068fc378daa952ba7f163c4a11628f55a4df523b3ef60405160405180910390a4505050565b8280546127a790613798565b90600052602060002090601f0160209004810192826127c95760008555612810565b82601f106127e257805160ff1916838001178555612810565b82800160010185558215612810579182015b8281111561280f5782518255916020019190600101906127f4565b5b50905061281d9190612821565b5090565b5b8082111561283a576000816000905550600101612822565b5090565b600061285161284c846135da565b6135b5565b9050808382526020820190508285602086028201111561287057600080fd5b60005b858110156128a05781612886888261297a565b845260208401935060208301925050600181019050612873565b5050509392505050565b60006128bd6128b884613606565b6135b5565b9050828152602081018484840111156128d557600080fd5b6128e0848285613756565b509392505050565b60006128fb6128f684613637565b6135b5565b90508281526020810184848401111561291357600080fd5b61291e848285613756565b509392505050565b60008135905061293581613b09565b92915050565b600082601f83011261294c57600080fd5b813561295c84826020860161283e565b91505092915050565b60008135905061297481613b20565b92915050565b60008135905061298981613b37565b92915050565b60008135905061299e81613b4e565b92915050565b6000815190506129b381613b4e565b92915050565b600082601f8301126129ca57600080fd5b81356129da8482602086016128aa565b91505092915050565b600082601f8301126129f457600080fd5b8135612a048482602086016128e8565b91505092915050565b600081359050612a1c81613b65565b92915050565b600081359050612a3181613b7c565b92915050565b600060208284031215612a4957600080fd5b6000612a5784828501612926565b91505092915050565b60008060408385031215612a7357600080fd5b6000612a8185828601612926565b9250506020612a9285828601612926565b9150509250929050565b600080600060608486031215612ab157600080fd5b6000612abf86828701612926565b9350506020612ad086828701612926565b9250506040612ae186828701612a0d565b9150509250925092565b60008060008060808587031215612b0157600080fd5b6000612b0f87828801612926565b9450506020612b2087828801612926565b9350506040612b3187828801612a0d565b925050606085013567ffffffffffffffff811115612b4e57600080fd5b612b5a878288016129b9565b91505092959194509250565b60008060008060008060c08789031215612b7f57600080fd5b6000612b8d89828a01612926565b9650506020612b9e89828a01612926565b9550506040612baf89828a01612a0d565b9450506060612bc089828a01612a22565b9350506080612bd189828a0161297a565b92505060a0612be289828a0161297a565b9150509295509295509295565b60008060408385031215612c0257600080fd5b6000612c1085828601612926565b9250506020612c2185828601612965565b9150509250929050565b60008060408385031215612c3e57600080fd5b6000612c4c85828601612926565b925050602083013567ffffffffffffffff811115612c6957600080fd5b612c75858286016129e3565b9150509250929050565b60008060408385031215612c9257600080fd5b6000612ca085828601612926565b9250506020612cb185828601612a0d565b9150509250929050565b60008060008060008060c08789031215612cd457600080fd5b6000612ce289828a01612926565b9650506020612cf389828a01612a0d565b9550506040612d0489828a01612a0d565b9450506060612d1589828a01612a22565b9350506080612d2689828a0161297a565b92505060a0612d3789828a0161297a565b9150509295509295509295565b600060208284031215612d5657600080fd5b600082013567ffffffffffffffff811115612d7057600080fd5b612d7c8482850161293b565b91505092915050565b600060208284031215612d9757600080fd5b6000612da584828501612965565b91505092915050565b600060208284031215612dc057600080fd5b6000612dce8482850161297a565b91505092915050565b600060208284031215612de957600080fd5b6000612df78482850161298f565b91505092915050565b600060208284031215612e1257600080fd5b6000612e20848285016129a4565b91505092915050565b600060208284031215612e3b57600080fd5b6000612e4984828501612a0d565b91505092915050565b612e5b816136cb565b82525050565b612e72612e6d826136cb565b613844565b82525050565b612e81816136dd565b82525050565b612e90816136e9565b82525050565b612ea7612ea2826136e9565b613856565b82525050565b6000612eb88261367d565b612ec28185613693565b9350612ed2818560208601613765565b612edb816138ff565b840191505092915050565b6000612ef18261367d565b612efb81856136a4565b9350612f0b818560208601613765565b80840191505092915050565b60008154612f2481613798565b612f2e81866136a4565b94506001821660008114612f495760018114612f5a57612f8d565b60ff19831686528186019350612f8d565b612f6385613668565b60005b83811015612f8557815481890152600182019150602081019050612f66565b838801955050505b50505092915050565b6000612fa182613688565b612fab81856136af565b9350612fbb818560208601613765565b612fc4816138ff565b840191505092915050565b6000612fdc601c836136af565b9150612fe78261391d565b602082019050919050565b6000612fff6002836136c0565b915061300a82613946565b600282019050919050565b60006130226018836136af565b915061302d8261396f565b602082019050919050565b6000613045600c836136af565b915061305082613998565b602082019050919050565b60006130686018836136af565b9150613073826139c1565b602082019050919050565b600061308b600c836136af565b9150613096826139ea565b602082019050919050565b60006130ae600e836136af565b91506130b982613a13565b602082019050919050565b60006130d16013836136af565b91506130dc82613a3c565b602082019050919050565b60006130f46011836136af565b91506130ff82613a65565b602082019050919050565b60006131176009836136af565b915061312282613a8e565b602082019050919050565b600061313a6017836136af565b915061314582613ab7565b602082019050919050565b600061315d600e836136af565b915061316882613ae0565b602082019050919050565b61317c8161373f565b82525050565b61318b81613749565b82525050565b600061319d8284612e61565b60148201915081905092915050565b60006131b88285612e96565b6020820191506131c88284612e96565b6020820191508190509392505050565b60006131e48284612ee6565b915081905092915050565b60006131fb8284612f17565b915081905092915050565b600061321182612ff2565b915061321d8285612e96565b60208201915061322d8284612e96565b6020820191508190509392505050565b60006020820190506132526000830184612e52565b92915050565b600060808201905061326d6000830187612e52565b61327a6020830186612e52565b6132876040830185613173565b81810360608301526132998184612ead565b905095945050505050565b60006020820190506132b96000830184612e78565b92915050565b60006020820190506132d46000830184612e87565b92915050565b600060a0820190506132ef6000830188612e87565b6132fc6020830187612e52565b6133096040830186612e52565b6133166060830185613173565b6133236080830184613173565b9695505050505050565b600060a0820190506133426000830188612e87565b61334f6020830187612e52565b61335c6040830186613173565b6133696060830185613173565b6133766080830184613173565b9695505050505050565b600060a0820190506133956000830188612e87565b6133a26020830187612e87565b6133af6040830186612e87565b6133bc6060830185613173565b6133c96080830184612e52565b9695505050505050565b60006080820190506133e86000830187612e87565b6133f56020830186613182565b6134026040830185612e87565b61340f6060830184612e87565b95945050505050565b600060208201905081810360008301526134328184612f96565b905092915050565b6000602082019050818103600083015261345381612fcf565b9050919050565b6000602082019050818103600083015261347381613015565b9050919050565b6000602082019050818103600083015261349381613038565b9050919050565b600060208201905081810360008301526134b38161305b565b9050919050565b600060208201905081810360008301526134d38161307e565b9050919050565b600060208201905081810360008301526134f3816130a1565b9050919050565b60006020820190508181036000830152613513816130c4565b9050919050565b60006020820190508181036000830152613533816130e7565b9050919050565b600060208201905081810360008301526135538161310a565b9050919050565b600060208201905081810360008301526135738161312d565b9050919050565b6000602082019050818103600083015261359381613150565b9050919050565b60006020820190506135af6000830184613173565b92915050565b60006135bf6135d0565b90506135cb82826137ca565b919050565b6000604051905090565b600067ffffffffffffffff8211156135f5576135f46138d0565b5b602082029050602081019050919050565b600067ffffffffffffffff821115613621576136206138d0565b5b61362a826138ff565b9050602081019050919050565b600067ffffffffffffffff821115613652576136516138d0565b5b61365b826138ff565b9050602081019050919050565b60008190508160005260206000209050919050565b600081519050919050565b600081519050919050565b600082825260208201905092915050565b600081905092915050565b600082825260208201905092915050565b600081905092915050565b60006136d68261371f565b9050919050565b60008115159050919050565b6000819050919050565b60007fffffffff0000000000000000000000000000000000000000000000000000000082169050919050565b600073ffffffffffffffffffffffffffffffffffffffff82169050919050565b6000819050919050565b600060ff82169050919050565b82818337600083830152505050565b60005b83811015613783578082015181840152602081019050613768565b83811115613792576000848401525b50505050565b600060028204905060018216806137b057607f821691505b602082108114156137c4576137c36138a1565b5b50919050565b6137d3826138ff565b810181811067ffffffffffffffff821117156137f2576137f16138d0565b5b80604052505050565b60006138068261373f565b91507fffffffffffffffffffffffffffffffffffffffffffffffffffffffffffffffff82141561383957613838613872565b5b600182019050919050565b600061384f82613860565b9050919050565b6000819050919050565b600061386b82613910565b9050919050565b7f4e487b7100000000000000000000000000000000000000000000000000000000600052601160045260246000fd5b7f4e487b7100000000000000000000000000000000000000000000000000000000600052602260045260246000fd5b7f4e487b7100000000000000000000000000000000000000000000000000000000600052604160045260246000fd5b6000601f19601f8301169050919050565b60008160601b9050919050565b7f596f7520617265206e6f74206f6e207468652077686974656c69737400000000600082015250565b7f1901000000000000000000000000000000000000000000000000000000000000600082015250565b7f494e56414c49445f5045524d49545f5349474e41545552450000000000000000600082015250565b7f4e4f545f415050524f5645440000000000000000000000000000000000000000600082015250565b7f4e6f742074696d6520746f206d616b65206120636c61696d0000000000000000600082015250565b7f5a45524f5f414444524553530000000000000000000000000000000000000000600082015250565b7f494e56414c49445f5349474e4552000000000000000000000000000000000000600082015250565b7f4e4f545f4552433732315f524543454956455200000000000000000000000000600082015250565b7f4e4f545f50454e44494e475f4f574e4552000000000000000000000000000000600082015250565b7f4e4f545f4f574e45520000000000000000000000000000000000000000000000600082015250565b7f5045524d49545f444541444c494e455f45585049524544000000000000000000600082015250565b7f414c52454144595f4d494e544544000000000000000000000000000000000000600082015250565b613b12816136cb565b8114613b1d57600080fd5b50565b613b29816136dd565b8114613b3457600080fd5b50565b613b40816136e9565b8114613b4b57600080fd5b50565b613b57816136f3565b8114613b6257600080fd5b50565b613b6e8161373f565b8114613b7957600080fd5b50565b613b8581613749565b8114613b9057600080fd5b5056fea2646970667358221220e68a447460f629061d6ec47f28f90acf6aa204b2ab6f740fdc43e225091521a464736f6c63430008040033",
          "opcodes": "PUSH1 0xC0 PUSH1 0x40 MSTORE CALLVALUE DUP1 ISZERO PUSH3 0x11 JUMPI PUSH1 0x0 DUP1 REVERT JUMPDEST POP PUSH1 0x40 MLOAD PUSH3 0x4356 CODESIZE SUB DUP1 PUSH3 0x4356 DUP4 CODECOPY DUP2 DUP2 ADD PUSH1 0x40 MSTORE DUP2 ADD SWAP1 PUSH3 0x37 SWAP2 SWAP1 PUSH3 0x37D JUMP JUMPDEST DUP1 DUP3 DUP1 DUP7 DUP7 DUP2 PUSH1 0x0 SWAP1 DUP1 MLOAD SWAP1 PUSH1 0x20 ADD SWAP1 PUSH3 0x54 SWAP3 SWAP2 SWAP1 PUSH3 0x22D JUMP JUMPDEST POP DUP1 PUSH1 0x1 SWAP1 DUP1 MLOAD SWAP1 PUSH1 0x20 ADD SWAP1 PUSH3 0x6D SWAP3 SWAP2 SWAP1 PUSH3 0x22D JUMP JUMPDEST POP CHAINID PUSH1 0x80 DUP2 DUP2 MSTORE POP POP PUSH3 0x86 PUSH3 0x181 PUSH1 0x20 SHL PUSH1 0x20 SHR JUMP JUMPDEST PUSH1 0xA0 DUP2 DUP2 MSTORE POP POP POP POP DUP1 PUSH1 0xA PUSH1 0x0 PUSH2 0x100 EXP DUP2 SLOAD DUP2 PUSH20 0xFFFFFFFFFFFFFFFFFFFFFFFFFFFFFFFFFFFFFFFF MUL NOT AND SWAP1 DUP4 PUSH20 0xFFFFFFFFFFFFFFFFFFFFFFFFFFFFFFFFFFFFFFFF AND MUL OR SWAP1 SSTORE POP DUP1 PUSH20 0xFFFFFFFFFFFFFFFFFFFFFFFFFFFFFFFFFFFFFFFF AND PUSH1 0x0 PUSH20 0xFFFFFFFFFFFFFFFFFFFFFFFFFFFFFFFFFFFFFFFF AND PUSH32 0x5BB496B3F951B55D3A1D8E479725A4D25BDC7644FC355F0B71C540354820A1C5 PUSH1 0x40 MLOAD PUSH1 0x40 MLOAD DUP1 SWAP2 SUB SWAP1 LOG3 POP DUP2 PUSH1 0xB PUSH1 0x14 PUSH2 0x100 EXP DUP2 SLOAD DUP2 PUSH1 0xFF MUL NOT AND SWAP1 DUP4 ISZERO ISZERO MUL OR SWAP1 SSTORE POP DUP2 ISZERO ISZERO PUSH32 0x1BCE650C18D48DC571157E199D09844825D5CD56D07410DBC8F7DDC869660480 PUSH1 0x40 MLOAD PUSH1 0x40 MLOAD DUP1 SWAP2 SUB SWAP1 LOG2 POP POP POP POP POP POP PUSH3 0x767 JUMP JUMPDEST PUSH1 0x0 PUSH32 0x8B73C3C69BB8FE3D512ECC4CF759CC79239F7B179B0FFACAA9A75D522B39400F PUSH1 0x0 PUSH1 0x40 MLOAD PUSH3 0x1B5 SWAP2 SWAP1 PUSH3 0x4D9 JUMP JUMPDEST PUSH1 0x40 MLOAD DUP1 SWAP2 SUB SWAP1 KECCAK256 PUSH1 0x40 MLOAD DUP1 PUSH1 0x40 ADD PUSH1 0x40 MSTORE DUP1 PUSH1 0x1 DUP2 MSTORE PUSH1 0x20 ADD PUSH32 0x3100000000000000000000000000000000000000000000000000000000000000 DUP2 MSTORE POP DUP1 MLOAD SWAP1 PUSH1 0x20 ADD KECCAK256 CHAINID ADDRESS PUSH1 0x40 MLOAD PUSH1 0x20 ADD PUSH3 0x212 SWAP6 SWAP5 SWAP4 SWAP3 SWAP2 SWAP1 PUSH3 0x4F2 JUMP JUMPDEST PUSH1 0x40 MLOAD PUSH1 0x20 DUP2 DUP4 SUB SUB DUP2 MSTORE SWAP1 PUSH1 0x40 MSTORE DUP1 MLOAD SWAP1 PUSH1 0x20 ADD KECCAK256 SWAP1 POP SWAP1 JUMP JUMPDEST DUP3 DUP1 SLOAD PUSH3 0x23B SWAP1 PUSH3 0x658 JUMP JUMPDEST SWAP1 PUSH1 0x0 MSTORE PUSH1 0x20 PUSH1 0x0 KECCAK256 SWAP1 PUSH1 0x1F ADD PUSH1 0x20 SWAP1 DIV DUP2 ADD SWAP3 DUP3 PUSH3 0x25F JUMPI PUSH1 0x0 DUP6 SSTORE PUSH3 0x2AB JUMP JUMPDEST DUP3 PUSH1 0x1F LT PUSH3 0x27A JUMPI DUP1 MLOAD PUSH1 0xFF NOT AND DUP4 DUP1 ADD OR DUP6 SSTORE PUSH3 0x2AB JUMP JUMPDEST DUP3 DUP1 ADD PUSH1 0x1 ADD DUP6 SSTORE DUP3 ISZERO PUSH3 0x2AB JUMPI SWAP2 DUP3 ADD JUMPDEST DUP3 DUP2 GT ISZERO PUSH3 0x2AA JUMPI DUP3 MLOAD DUP3 SSTORE SWAP2 PUSH1 0x20 ADD SWAP2 SWAP1 PUSH1 0x1 ADD SWAP1 PUSH3 0x28D JUMP JUMPDEST JUMPDEST POP SWAP1 POP PUSH3 0x2BA SWAP2 SWAP1 PUSH3 0x2BE JUMP JUMPDEST POP SWAP1 JUMP JUMPDEST JUMPDEST DUP1 DUP3 GT ISZERO PUSH3 0x2D9 JUMPI PUSH1 0x0 DUP2 PUSH1 0x0 SWAP1 SSTORE POP PUSH1 0x1 ADD PUSH3 0x2BF JUMP JUMPDEST POP SWAP1 JUMP JUMPDEST PUSH1 0x0 PUSH3 0x2F4 PUSH3 0x2EE DUP5 PUSH3 0x578 JUMP JUMPDEST PUSH3 0x54F JUMP JUMPDEST SWAP1 POP DUP3 DUP2 MSTORE PUSH1 0x20 DUP2 ADD DUP5 DUP5 DUP5 ADD GT ISZERO PUSH3 0x30D JUMPI PUSH1 0x0 DUP1 REVERT JUMPDEST PUSH3 0x31A DUP5 DUP3 DUP6 PUSH3 0x622 JUMP JUMPDEST POP SWAP4 SWAP3 POP POP POP JUMP JUMPDEST PUSH1 0x0 DUP2 MLOAD SWAP1 POP PUSH3 0x333 DUP2 PUSH3 0x733 JUMP JUMPDEST SWAP3 SWAP2 POP POP JUMP JUMPDEST PUSH1 0x0 DUP2 MLOAD SWAP1 POP PUSH3 0x34A DUP2 PUSH3 0x74D JUMP JUMPDEST SWAP3 SWAP2 POP POP JUMP JUMPDEST PUSH1 0x0 DUP3 PUSH1 0x1F DUP4 ADD SLT PUSH3 0x362 JUMPI PUSH1 0x0 DUP1 REVERT JUMPDEST DUP2 MLOAD PUSH3 0x374 DUP5 DUP3 PUSH1 0x20 DUP7 ADD PUSH3 0x2DD JUMP JUMPDEST SWAP2 POP POP SWAP3 SWAP2 POP POP JUMP JUMPDEST PUSH1 0x0 DUP1 PUSH1 0x0 DUP1 PUSH1 0x80 DUP6 DUP8 SUB SLT ISZERO PUSH3 0x394 JUMPI PUSH1 0x0 DUP1 REVERT JUMPDEST PUSH1 0x0 DUP6 ADD MLOAD PUSH8 0xFFFFFFFFFFFFFFFF DUP2 GT ISZERO PUSH3 0x3AF JUMPI PUSH1 0x0 DUP1 REVERT JUMPDEST PUSH3 0x3BD DUP8 DUP3 DUP9 ADD PUSH3 0x350 JUMP JUMPDEST SWAP5 POP POP PUSH1 0x20 DUP6 ADD MLOAD PUSH8 0xFFFFFFFFFFFFFFFF DUP2 GT ISZERO PUSH3 0x3DB JUMPI PUSH1 0x0 DUP1 REVERT JUMPDEST PUSH3 0x3E9 DUP8 DUP3 DUP9 ADD PUSH3 0x350 JUMP JUMPDEST SWAP4 POP POP PUSH1 0x40 PUSH3 0x3FC DUP8 DUP3 DUP9 ADD PUSH3 0x322 JUMP JUMPDEST SWAP3 POP POP PUSH1 0x60 PUSH3 0x40F DUP8 DUP3 DUP9 ADD PUSH3 0x339 JUMP JUMPDEST SWAP2 POP POP SWAP3 SWAP6 SWAP2 SWAP5 POP SWAP3 POP JUMP JUMPDEST PUSH3 0x426 DUP2 PUSH3 0x5CE JUMP JUMPDEST DUP3 MSTORE POP POP JUMP JUMPDEST PUSH3 0x437 DUP2 PUSH3 0x5EE JUMP JUMPDEST DUP3 MSTORE POP POP JUMP JUMPDEST PUSH1 0x0 DUP2 SLOAD PUSH3 0x44C DUP2 PUSH3 0x658 JUMP JUMPDEST PUSH3 0x458 DUP2 DUP7 PUSH3 0x5C3 JUMP JUMPDEST SWAP5 POP PUSH1 0x1 DUP3 AND PUSH1 0x0 DUP2 EQ PUSH3 0x476 JUMPI PUSH1 0x1 DUP2 EQ PUSH3 0x488 JUMPI PUSH3 0x4BF JUMP JUMPDEST PUSH1 0xFF NOT DUP4 AND DUP7 MSTORE DUP2 DUP7 ADD SWAP4 POP PUSH3 0x4BF JUMP JUMPDEST PUSH3 0x493 DUP6 PUSH3 0x5AE JUMP JUMPDEST PUSH1 0x0 JUMPDEST DUP4 DUP2 LT ISZERO PUSH3 0x4B7 JUMPI DUP2 SLOAD DUP2 DUP10 ADD MSTORE PUSH1 0x1 DUP3 ADD SWAP2 POP PUSH1 0x20 DUP2 ADD SWAP1 POP PUSH3 0x496 JUMP JUMPDEST DUP4 DUP9 ADD SWAP6 POP POP POP JUMPDEST POP POP POP SWAP3 SWAP2 POP POP JUMP JUMPDEST PUSH3 0x4D3 DUP2 PUSH3 0x618 JUMP JUMPDEST DUP3 MSTORE POP POP JUMP JUMPDEST PUSH1 0x0 PUSH3 0x4E7 DUP3 DUP5 PUSH3 0x43D JUMP JUMPDEST SWAP2 POP DUP2 SWAP1 POP SWAP3 SWAP2 POP POP JUMP JUMPDEST PUSH1 0x0 PUSH1 0xA0 DUP3 ADD SWAP1 POP PUSH3 0x509 PUSH1 0x0 DUP4 ADD DUP9 PUSH3 0x42C JUMP JUMPDEST PUSH3 0x518 PUSH1 0x20 DUP4 ADD DUP8 PUSH3 0x42C JUMP JUMPDEST PUSH3 0x527 PUSH1 0x40 DUP4 ADD DUP7 PUSH3 0x42C JUMP JUMPDEST PUSH3 0x536 PUSH1 0x60 DUP4 ADD DUP6 PUSH3 0x4C8 JUMP JUMPDEST PUSH3 0x545 PUSH1 0x80 DUP4 ADD DUP5 PUSH3 0x41B JUMP JUMPDEST SWAP7 SWAP6 POP POP POP POP POP POP JUMP JUMPDEST PUSH1 0x0 PUSH3 0x55B PUSH3 0x56E JUMP JUMPDEST SWAP1 POP PUSH3 0x569 DUP3 DUP3 PUSH3 0x68E JUMP JUMPDEST SWAP2 SWAP1 POP JUMP JUMPDEST PUSH1 0x0 PUSH1 0x40 MLOAD SWAP1 POP SWAP1 JUMP JUMPDEST PUSH1 0x0 PUSH8 0xFFFFFFFFFFFFFFFF DUP3 GT ISZERO PUSH3 0x596 JUMPI PUSH3 0x595 PUSH3 0x6F3 JUMP JUMPDEST JUMPDEST PUSH3 0x5A1 DUP3 PUSH3 0x722 JUMP JUMPDEST SWAP1 POP PUSH1 0x20 DUP2 ADD SWAP1 POP SWAP2 SWAP1 POP JUMP JUMPDEST PUSH1 0x0 DUP2 SWAP1 POP DUP2 PUSH1 0x0 MSTORE PUSH1 0x20 PUSH1 0x0 KECCAK256 SWAP1 POP SWAP2 SWAP1 POP JUMP JUMPDEST PUSH1 0x0 DUP2 SWAP1 POP SWAP3 SWAP2 POP POP JUMP JUMPDEST PUSH1 0x0 PUSH3 0x5DB DUP3 PUSH3 0x5F8 JUMP JUMPDEST SWAP1 POP SWAP2 SWAP1 POP JUMP JUMPDEST PUSH1 0x0 DUP2 ISZERO ISZERO SWAP1 POP SWAP2 SWAP1 POP JUMP JUMPDEST PUSH1 0x0 DUP2 SWAP1 POP SWAP2 SWAP1 POP JUMP JUMPDEST PUSH1 0x0 PUSH20 0xFFFFFFFFFFFFFFFFFFFFFFFFFFFFFFFFFFFFFFFF DUP3 AND SWAP1 POP SWAP2 SWAP1 POP JUMP JUMPDEST PUSH1 0x0 DUP2 SWAP1 POP SWAP2 SWAP1 POP JUMP JUMPDEST PUSH1 0x0 JUMPDEST DUP4 DUP2 LT ISZERO PUSH3 0x642 JUMPI DUP1 DUP3 ADD MLOAD DUP2 DUP5 ADD MSTORE PUSH1 0x20 DUP2 ADD SWAP1 POP PUSH3 0x625 JUMP JUMPDEST DUP4 DUP2 GT ISZERO PUSH3 0x652 JUMPI PUSH1 0x0 DUP5 DUP5 ADD MSTORE JUMPDEST POP POP POP POP JUMP JUMPDEST PUSH1 0x0 PUSH1 0x2 DUP3 DIV SWAP1 POP PUSH1 0x1 DUP3 AND DUP1 PUSH3 0x671 JUMPI PUSH1 0x7F DUP3 AND SWAP2 POP JUMPDEST PUSH1 0x20 DUP3 LT DUP2 EQ ISZERO PUSH3 0x688 JUMPI PUSH3 0x687 PUSH3 0x6C4 JUMP JUMPDEST JUMPDEST POP SWAP2 SWAP1 POP JUMP JUMPDEST PUSH3 0x699 DUP3 PUSH3 0x722 JUMP JUMPDEST DUP2 ADD DUP2 DUP2 LT PUSH8 0xFFFFFFFFFFFFFFFF DUP3 GT OR ISZERO PUSH3 0x6BB JUMPI PUSH3 0x6BA PUSH3 0x6F3 JUMP JUMPDEST JUMPDEST DUP1 PUSH1 0x40 MSTORE POP POP POP JUMP JUMPDEST PUSH32 0x4E487B7100000000000000000000000000000000000000000000000000000000 PUSH1 0x0 MSTORE PUSH1 0x22 PUSH1 0x4 MSTORE PUSH1 0x24 PUSH1 0x0 REVERT JUMPDEST PUSH32 0x4E487B7100000000000000000000000000000000000000000000000000000000 PUSH1 0x0 MSTORE PUSH1 0x41 PUSH1 0x4 MSTORE PUSH1 0x24 PUSH1 0x0 REVERT JUMPDEST PUSH1 0x0 PUSH1 0x1F NOT PUSH1 0x1F DUP4 ADD AND SWAP1 POP SWAP2 SWAP1 POP JUMP JUMPDEST PUSH3 0x73E DUP2 PUSH3 0x5CE JUMP JUMPDEST DUP2 EQ PUSH3 0x74A JUMPI PUSH1 0x0 DUP1 REVERT JUMPDEST POP JUMP JUMPDEST PUSH3 0x758 DUP2 PUSH3 0x5E2 JUMP JUMPDEST DUP2 EQ PUSH3 0x764 JUMPI PUSH1 0x0 DUP1 REVERT JUMPDEST POP JUMP JUMPDEST PUSH1 0x80 MLOAD PUSH1 0xA0 MLOAD PUSH2 0x3BC9 PUSH3 0x78D PUSH1 0x0 CODECOPY PUSH1 0x0 PUSH2 0xE5F ADD MSTORE PUSH1 0x0 PUSH2 0xE2B ADD MSTORE PUSH2 0x3BC9 PUSH1 0x0 RETURN INVALID PUSH1 0x80 PUSH1 0x40 MSTORE CALLVALUE DUP1 ISZERO PUSH2 0x10 JUMPI PUSH1 0x0 DUP1 REVERT JUMPDEST POP PUSH1 0x4 CALLDATASIZE LT PUSH2 0x1FB JUMPI PUSH1 0x0 CALLDATALOAD PUSH1 0xE0 SHR DUP1 PUSH4 0x7AC2FF7B GT PUSH2 0x11A JUMPI DUP1 PUSH4 0xABA07847 GT PUSH2 0xAD JUMPI DUP1 PUSH4 0xCF81AFAA GT PUSH2 0x7C JUMPI DUP1 PUSH4 0xCF81AFAA EQ PUSH2 0x59A JUMPI DUP1 PUSH4 0xD0DEF521 EQ PUSH2 0x5B6 JUMPI DUP1 PUSH4 0xD936547E EQ PUSH2 0x5D2 JUMPI DUP1 PUSH4 0xE30C3978 EQ PUSH2 0x602 JUMPI DUP1 PUSH4 0xE985E9C5 EQ PUSH2 0x620 JUMPI PUSH2 0x1FB JUMP JUMPDEST DUP1 PUSH4 0xABA07847 EQ PUSH2 0x514 JUMPI DUP1 PUSH4 0xB4E13C8D EQ PUSH2 0x530 JUMPI DUP1 PUSH4 0xB88D4FDE EQ PUSH2 0x54E JUMPI DUP1 PUSH4 0xC87B56DD EQ PUSH2 0x56A JUMPI PUSH2 0x1FB JUMP JUMPDEST DUP1 PUSH4 0x904DFB8E GT PUSH2 0xE9 JUMPI DUP1 PUSH4 0x904DFB8E EQ PUSH2 0x48E JUMPI DUP1 PUSH4 0x95D89B41 EQ PUSH2 0x4BE JUMPI DUP1 PUSH4 0xA22CB465 EQ PUSH2 0x4DC JUMPI DUP1 PUSH4 0xA9059CBB EQ PUSH2 0x4F8 JUMPI PUSH2 0x1FB JUMP JUMPDEST DUP1 PUSH4 0x7AC2FF7B EQ PUSH2 0x41C JUMPI DUP1 PUSH4 0x7CB64759 EQ PUSH2 0x438 JUMPI DUP1 PUSH4 0x80E3F1AD EQ PUSH2 0x454 JUMPI DUP1 PUSH4 0x8DA5CB5B EQ PUSH2 0x470 JUMPI PUSH2 0x1FB JUMP JUMPDEST DUP1 PUSH4 0x30ADF81F GT PUSH2 0x192 JUMPI DUP1 PUSH4 0x45B6C60D GT PUSH2 0x161 JUMPI DUP1 PUSH4 0x45B6C60D EQ PUSH2 0x382 JUMPI DUP1 PUSH4 0x51FB012D EQ PUSH2 0x39E JUMPI DUP1 PUSH4 0x6352211E EQ PUSH2 0x3BC JUMPI DUP1 PUSH4 0x70A08231 EQ PUSH2 0x3EC JUMPI PUSH2 0x1FB JUMP JUMPDEST DUP1 PUSH4 0x30ADF81F EQ PUSH2 0x320 JUMPI DUP1 PUSH4 0x3644E515 EQ PUSH2 0x33E JUMPI DUP1 PUSH4 0x3BD1ADEC EQ PUSH2 0x35C JUMPI DUP1 PUSH4 0x42842E0E EQ PUSH2 0x366 JUMPI PUSH2 0x1FB JUMP JUMPDEST DUP1 PUSH4 0xD392CD9 GT PUSH2 0x1CE JUMPI DUP1 PUSH4 0xD392CD9 EQ PUSH2 0x29A JUMPI DUP1 PUSH4 0x141A468C EQ PUSH2 0x2B6 JUMPI DUP1 PUSH4 0x18160DDD EQ PUSH2 0x2E6 JUMPI DUP1 PUSH4 0x23B872DD EQ PUSH2 0x304 JUMPI PUSH2 0x1FB JUMP JUMPDEST DUP1 PUSH4 0x1FFC9A7 EQ PUSH2 0x200 JUMPI DUP1 PUSH4 0x6FDDE03 EQ PUSH2 0x230 JUMPI DUP1 PUSH4 0x81812FC EQ PUSH2 0x24E JUMPI DUP1 PUSH4 0x95EA7B3 EQ PUSH2 0x27E JUMPI JUMPDEST PUSH1 0x0 DUP1 REVERT JUMPDEST PUSH2 0x21A PUSH1 0x4 DUP1 CALLDATASIZE SUB DUP2 ADD SWAP1 PUSH2 0x215 SWAP2 SWAP1 PUSH2 0x2DD7 JUMP JUMPDEST PUSH2 0x650 JUMP JUMPDEST PUSH1 0x40 MLOAD PUSH2 0x227 SWAP2 SWAP1 PUSH2 0x32A4 JUMP JUMPDEST PUSH1 0x40 MLOAD DUP1 SWAP2 SUB SWAP1 RETURN JUMPDEST PUSH2 0x238 PUSH2 0x6E2 JUMP JUMPDEST PUSH1 0x40 MLOAD PUSH2 0x245 SWAP2 SWAP1 PUSH2 0x3418 JUMP JUMPDEST PUSH1 0x40 MLOAD DUP1 SWAP2 SUB SWAP1 RETURN JUMPDEST PUSH2 0x268 PUSH1 0x4 DUP1 CALLDATASIZE SUB DUP2 ADD SWAP1 PUSH2 0x263 SWAP2 SWAP1 PUSH2 0x2E29 JUMP JUMPDEST PUSH2 0x770 JUMP JUMPDEST PUSH1 0x40 MLOAD PUSH2 0x275 SWAP2 SWAP1 PUSH2 0x323D JUMP JUMPDEST PUSH1 0x40 MLOAD DUP1 SWAP2 SUB SWAP1 RETURN JUMPDEST PUSH2 0x298 PUSH1 0x4 DUP1 CALLDATASIZE SUB DUP2 ADD SWAP1 PUSH2 0x293 SWAP2 SWAP1 PUSH2 0x2C7F JUMP JUMPDEST PUSH2 0x7A3 JUMP JUMPDEST STOP JUMPDEST PUSH2 0x2B4 PUSH1 0x4 DUP1 CALLDATASIZE SUB DUP2 ADD SWAP1 PUSH2 0x2AF SWAP2 SWAP1 PUSH2 0x2BEF JUMP JUMPDEST PUSH2 0x98C JUMP JUMPDEST STOP JUMPDEST PUSH2 0x2D0 PUSH1 0x4 DUP1 CALLDATASIZE SUB DUP2 ADD SWAP1 PUSH2 0x2CB SWAP2 SWAP1 PUSH2 0x2E29 JUMP JUMPDEST PUSH2 0xABD JUMP JUMPDEST PUSH1 0x40 MLOAD PUSH2 0x2DD SWAP2 SWAP1 PUSH2 0x359A JUMP JUMPDEST PUSH1 0x40 MLOAD DUP1 SWAP2 SUB SWAP1 RETURN JUMPDEST PUSH2 0x2EE PUSH2 0xAD5 JUMP JUMPDEST PUSH1 0x40 MLOAD PUSH2 0x2FB SWAP2 SWAP1 PUSH2 0x359A JUMP JUMPDEST PUSH1 0x40 MLOAD DUP1 SWAP2 SUB SWAP1 RETURN JUMPDEST PUSH2 0x31E PUSH1 0x4 DUP1 CALLDATASIZE SUB DUP2 ADD SWAP1 PUSH2 0x319 SWAP2 SWAP1 PUSH2 0x2A9C JUMP JUMPDEST PUSH2 0xADB JUMP JUMPDEST STOP JUMPDEST PUSH2 0x328 PUSH2 0xE03 JUMP JUMPDEST PUSH1 0x40 MLOAD PUSH2 0x335 SWAP2 SWAP1 PUSH2 0x32BF JUMP JUMPDEST PUSH1 0x40 MLOAD DUP1 SWAP2 SUB SWAP1 RETURN JUMPDEST PUSH2 0x346 PUSH2 0xE27 JUMP JUMPDEST PUSH1 0x40 MLOAD PUSH2 0x353 SWAP2 SWAP1 PUSH2 0x32BF JUMP JUMPDEST PUSH1 0x40 MLOAD DUP1 SWAP2 SUB SWAP1 RETURN JUMPDEST PUSH2 0x364 PUSH2 0xE84 JUMP JUMPDEST STOP JUMPDEST PUSH2 0x380 PUSH1 0x4 DUP1 CALLDATASIZE SUB DUP2 ADD SWAP1 PUSH2 0x37B SWAP2 SWAP1 PUSH2 0x2A9C JUMP JUMPDEST PUSH2 0x1015 JUMP JUMPDEST STOP JUMPDEST PUSH2 0x39C PUSH1 0x4 DUP1 CALLDATASIZE SUB DUP2 ADD SWAP1 PUSH2 0x397 SWAP2 SWAP1 PUSH2 0x2D44 JUMP JUMPDEST PUSH2 0x1036 JUMP JUMPDEST STOP JUMPDEST PUSH2 0x3A6 PUSH2 0x119C JUMP JUMPDEST PUSH1 0x40 MLOAD PUSH2 0x3B3 SWAP2 SWAP1 PUSH2 0x32A4 JUMP JUMPDEST PUSH1 0x40 MLOAD DUP1 SWAP2 SUB SWAP1 RETURN JUMPDEST PUSH2 0x3D6 PUSH1 0x4 DUP1 CALLDATASIZE SUB DUP2 ADD SWAP1 PUSH2 0x3D1 SWAP2 SWAP1 PUSH2 0x2E29 JUMP JUMPDEST PUSH2 0x11AF JUMP JUMPDEST PUSH1 0x40 MLOAD PUSH2 0x3E3 SWAP2 SWAP1 PUSH2 0x323D JUMP JUMPDEST PUSH1 0x40 MLOAD DUP1 SWAP2 SUB SWAP1 RETURN JUMPDEST PUSH2 0x406 PUSH1 0x4 DUP1 CALLDATASIZE SUB DUP2 ADD SWAP1 PUSH2 0x401 SWAP2 SWAP1 PUSH2 0x2A37 JUMP JUMPDEST PUSH2 0x11E2 JUMP JUMPDEST PUSH1 0x40 MLOAD PUSH2 0x413 SWAP2 SWAP1 PUSH2 0x359A JUMP JUMPDEST PUSH1 0x40 MLOAD DUP1 SWAP2 SUB SWAP1 RETURN JUMPDEST PUSH2 0x436 PUSH1 0x4 DUP1 CALLDATASIZE SUB DUP2 ADD SWAP1 PUSH2 0x431 SWAP2 SWAP1 PUSH2 0x2CBB JUMP JUMPDEST PUSH2 0x11FA JUMP JUMPDEST STOP JUMPDEST PUSH2 0x452 PUSH1 0x4 DUP1 CALLDATASIZE SUB DUP2 ADD SWAP1 PUSH2 0x44D SWAP2 SWAP1 PUSH2 0x2DAE JUMP JUMPDEST PUSH2 0x1592 JUMP JUMPDEST STOP JUMPDEST PUSH2 0x46E PUSH1 0x4 DUP1 CALLDATASIZE SUB DUP2 ADD SWAP1 PUSH2 0x469 SWAP2 SWAP1 PUSH2 0x2D85 JUMP JUMPDEST PUSH2 0x162C JUMP JUMPDEST STOP JUMPDEST PUSH2 0x478 PUSH2 0x1708 JUMP JUMPDEST PUSH1 0x40 MLOAD PUSH2 0x485 SWAP2 SWAP1 PUSH2 0x323D JUMP JUMPDEST PUSH1 0x40 MLOAD DUP1 SWAP2 SUB SWAP1 RETURN JUMPDEST PUSH2 0x4A8 PUSH1 0x4 DUP1 CALLDATASIZE SUB DUP2 ADD SWAP1 PUSH2 0x4A3 SWAP2 SWAP1 PUSH2 0x2A37 JUMP JUMPDEST PUSH2 0x172E JUMP JUMPDEST PUSH1 0x40 MLOAD PUSH2 0x4B5 SWAP2 SWAP1 PUSH2 0x359A JUMP JUMPDEST PUSH1 0x40 MLOAD DUP1 SWAP2 SUB SWAP1 RETURN JUMPDEST PUSH2 0x4C6 PUSH2 0x1746 JUMP JUMPDEST PUSH1 0x40 MLOAD PUSH2 0x4D3 SWAP2 SWAP1 PUSH2 0x3418 JUMP JUMPDEST PUSH1 0x40 MLOAD DUP1 SWAP2 SUB SWAP1 RETURN JUMPDEST PUSH2 0x4F6 PUSH1 0x4 DUP1 CALLDATASIZE SUB DUP2 ADD SWAP1 PUSH2 0x4F1 SWAP2 SWAP1 PUSH2 0x2BEF JUMP JUMPDEST PUSH2 0x17D4 JUMP JUMPDEST STOP JUMPDEST PUSH2 0x512 PUSH1 0x4 DUP1 CALLDATASIZE SUB DUP2 ADD SWAP1 PUSH2 0x50D SWAP2 SWAP1 PUSH2 0x2C7F JUMP JUMPDEST PUSH2 0x18D1 JUMP JUMPDEST STOP JUMPDEST PUSH2 0x52E PUSH1 0x4 DUP1 CALLDATASIZE SUB DUP2 ADD SWAP1 PUSH2 0x529 SWAP2 SWAP1 PUSH2 0x2B66 JUMP JUMPDEST PUSH2 0x1AF8 JUMP JUMPDEST STOP JUMPDEST PUSH2 0x538 PUSH2 0x1E9A JUMP JUMPDEST PUSH1 0x40 MLOAD PUSH2 0x545 SWAP2 SWAP1 PUSH2 0x32BF JUMP JUMPDEST PUSH1 0x40 MLOAD DUP1 SWAP2 SUB SWAP1 RETURN JUMPDEST PUSH2 0x568 PUSH1 0x4 DUP1 CALLDATASIZE SUB DUP2 ADD SWAP1 PUSH2 0x563 SWAP2 SWAP1 PUSH2 0x2AEB JUMP JUMPDEST PUSH2 0x1EBE JUMP JUMPDEST STOP JUMPDEST PUSH2 0x584 PUSH1 0x4 DUP1 CALLDATASIZE SUB DUP2 ADD SWAP1 PUSH2 0x57F SWAP2 SWAP1 PUSH2 0x2E29 JUMP JUMPDEST PUSH2 0x203A JUMP JUMPDEST PUSH1 0x40 MLOAD PUSH2 0x591 SWAP2 SWAP1 PUSH2 0x3418 JUMP JUMPDEST PUSH1 0x40 MLOAD DUP1 SWAP2 SUB SWAP1 RETURN JUMPDEST PUSH2 0x5B4 PUSH1 0x4 DUP1 CALLDATASIZE SUB DUP2 ADD SWAP1 PUSH2 0x5AF SWAP2 SWAP1 PUSH2 0x2BEF JUMP JUMPDEST PUSH2 0x20DA JUMP JUMPDEST STOP JUMPDEST PUSH2 0x5D0 PUSH1 0x4 DUP1 CALLDATASIZE SUB DUP2 ADD SWAP1 PUSH2 0x5CB SWAP2 SWAP1 PUSH2 0x2C2B JUMP JUMPDEST PUSH2 0x2320 JUMP JUMPDEST STOP JUMPDEST PUSH2 0x5EC PUSH1 0x4 DUP1 CALLDATASIZE SUB DUP2 ADD SWAP1 PUSH2 0x5E7 SWAP2 SWAP1 PUSH2 0x2A37 JUMP JUMPDEST PUSH2 0x23C4 JUMP JUMPDEST PUSH1 0x40 MLOAD PUSH2 0x5F9 SWAP2 SWAP1 PUSH2 0x32A4 JUMP JUMPDEST PUSH1 0x40 MLOAD DUP1 SWAP2 SUB SWAP1 RETURN JUMPDEST PUSH2 0x60A PUSH2 0x23E4 JUMP JUMPDEST PUSH1 0x40 MLOAD PUSH2 0x617 SWAP2 SWAP1 PUSH2 0x323D JUMP JUMPDEST PUSH1 0x40 MLOAD DUP1 SWAP2 SUB SWAP1 RETURN JUMPDEST PUSH2 0x63A PUSH1 0x4 DUP1 CALLDATASIZE SUB DUP2 ADD SWAP1 PUSH2 0x635 SWAP2 SWAP1 PUSH2 0x2A60 JUMP JUMPDEST PUSH2 0x240A JUMP JUMPDEST PUSH1 0x40 MLOAD PUSH2 0x647 SWAP2 SWAP1 PUSH2 0x32A4 JUMP JUMPDEST PUSH1 0x40 MLOAD DUP1 SWAP2 SUB SWAP1 RETURN JUMPDEST PUSH1 0x0 PUSH4 0x80AC58CD PUSH1 0xE0 SHL DUP3 PUSH28 0xFFFFFFFFFFFFFFFFFFFFFFFFFFFFFFFFFFFFFFFFFFFFFFFFFFFFFFFF NOT AND EQ DUP1 PUSH2 0x6AB JUMPI POP PUSH4 0x5B5E139F PUSH1 0xE0 SHL DUP3 PUSH28 0xFFFFFFFFFFFFFFFFFFFFFFFFFFFFFFFFFFFFFFFFFFFFFFFFFFFFFFFF NOT AND EQ JUMPDEST DUP1 PUSH2 0x6DB JUMPI POP PUSH4 0x1FFC9A7 PUSH1 0xE0 SHL DUP3 PUSH28 0xFFFFFFFFFFFFFFFFFFFFFFFFFFFFFFFFFFFFFFFFFFFFFFFFFFFFFFFF NOT AND EQ JUMPDEST SWAP1 POP SWAP2 SWAP1 POP JUMP JUMPDEST PUSH1 0x0 DUP1 SLOAD PUSH2 0x6EF SWAP1 PUSH2 0x3798 JUMP JUMPDEST DUP1 PUSH1 0x1F ADD PUSH1 0x20 DUP1 SWAP2 DIV MUL PUSH1 0x20 ADD PUSH1 0x40 MLOAD SWAP1 DUP2 ADD PUSH1 0x40 MSTORE DUP1 SWAP3 SWAP2 SWAP1 DUP2 DUP2 MSTORE PUSH1 0x20 ADD DUP3 DUP1 SLOAD PUSH2 0x71B SWAP1 PUSH2 0x3798 JUMP JUMPDEST DUP1 ISZERO PUSH2 0x768 JUMPI DUP1 PUSH1 0x1F LT PUSH2 0x73D JUMPI PUSH2 0x100 DUP1 DUP4 SLOAD DIV MUL DUP4 MSTORE SWAP2 PUSH1 0x20 ADD SWAP2 PUSH2 0x768 JUMP JUMPDEST DUP3 ADD SWAP2 SWAP1 PUSH1 0x0 MSTORE PUSH1 0x20 PUSH1 0x0 KECCAK256 SWAP1 JUMPDEST DUP2 SLOAD DUP2 MSTORE SWAP1 PUSH1 0x1 ADD SWAP1 PUSH1 0x20 ADD DUP1 DUP4 GT PUSH2 0x74B JUMPI DUP3 SWAP1 SUB PUSH1 0x1F AND DUP3 ADD SWAP2 JUMPDEST POP POP POP POP POP DUP2 JUMP JUMPDEST PUSH1 0x6 PUSH1 0x20 MSTORE DUP1 PUSH1 0x0 MSTORE PUSH1 0x40 PUSH1 0x0 KECCAK256 PUSH1 0x0 SWAP2 POP SLOAD SWAP1 PUSH2 0x100 EXP SWAP1 DIV PUSH20 0xFFFFFFFFFFFFFFFFFFFFFFFFFFFFFFFFFFFFFFFF AND DUP2 JUMP JUMPDEST PUSH1 0x0 PUSH1 0x4 PUSH1 0x0 DUP4 DUP2 MSTORE PUSH1 0x20 ADD SWAP1 DUP2 MSTORE PUSH1 0x20 ADD PUSH1 0x0 KECCAK256 PUSH1 0x0 SWAP1 SLOAD SWAP1 PUSH2 0x100 EXP SWAP1 DIV PUSH20 0xFFFFFFFFFFFFFFFFFFFFFFFFFFFFFFFFFFFFFFFF AND SWAP1 POP DUP1 PUSH20 0xFFFFFFFFFFFFFFFFFFFFFFFFFFFFFFFFFFFFFFFF AND CALLER PUSH20 0xFFFFFFFFFFFFFFFFFFFFFFFFFFFFFFFFFFFFFFFF AND EQ DUP1 PUSH2 0x89B JUMPI POP PUSH1 0x7 PUSH1 0x0 DUP3 PUSH20 0xFFFFFFFFFFFFFFFFFFFFFFFFFFFFFFFFFFFFFFFF AND PUSH20 0xFFFFFFFFFFFFFFFFFFFFFFFFFFFFFFFFFFFFFFFF AND DUP2 MSTORE PUSH1 0x20 ADD SWAP1 DUP2 MSTORE PUSH1 0x20 ADD PUSH1 0x0 KECCAK256 PUSH1 0x0 CALLER PUSH20 0xFFFFFFFFFFFFFFFFFFFFFFFFFFFFFFFFFFFFFFFF AND PUSH20 0xFFFFFFFFFFFFFFFFFFFFFFFFFFFFFFFFFFFFFFFF AND DUP2 MSTORE PUSH1 0x20 ADD SWAP1 DUP2 MSTORE PUSH1 0x20 ADD PUSH1 0x0 KECCAK256 PUSH1 0x0 SWAP1 SLOAD SWAP1 PUSH2 0x100 EXP SWAP1 DIV PUSH1 0xFF AND JUMPDEST PUSH2 0x8DA JUMPI PUSH1 0x40 MLOAD PUSH32 0x8C379A000000000000000000000000000000000000000000000000000000000 DUP2 MSTORE PUSH1 0x4 ADD PUSH2 0x8D1 SWAP1 PUSH2 0x347A JUMP JUMPDEST PUSH1 0x40 MLOAD DUP1 SWAP2 SUB SWAP1 REVERT JUMPDEST DUP3 PUSH1 0x6 PUSH1 0x0 DUP5 DUP2 MSTORE PUSH1 0x20 ADD SWAP1 DUP2 MSTORE PUSH1 0x20 ADD PUSH1 0x0 KECCAK256 PUSH1 0x0 PUSH2 0x100 EXP DUP2 SLOAD DUP2 PUSH20 0xFFFFFFFFFFFFFFFFFFFFFFFFFFFFFFFFFFFFFFFF MUL NOT AND SWAP1 DUP4 PUSH20 0xFFFFFFFFFFFFFFFFFFFFFFFFFFFFFFFFFFFFFFFF AND MUL OR SWAP1 SSTORE POP DUP2 DUP4 PUSH20 0xFFFFFFFFFFFFFFFFFFFFFFFFFFFFFFFFFFFFFFFF AND DUP3 PUSH20 0xFFFFFFFFFFFFFFFFFFFFFFFFFFFFFFFFFFFFFFFF AND PUSH32 0x8C5BE1E5EBEC7D5BD14F71427D1E84F3DD0314C0F7B2291E5B200AC8C7C3B925 PUSH1 0x40 MLOAD PUSH1 0x40 MLOAD DUP1 SWAP2 SUB SWAP1 LOG4 POP POP POP JUMP JUMPDEST PUSH1 0xA PUSH1 0x0 SWAP1 SLOAD SWAP1 PUSH2 0x100 EXP SWAP1 DIV PUSH20 0xFFFFFFFFFFFFFFFFFFFFFFFFFFFFFFFFFFFFFFFF AND PUSH20 0xFFFFFFFFFFFFFFFFFFFFFFFFFFFFFFFFFFFFFFFF AND CALLER PUSH20 0xFFFFFFFFFFFFFFFFFFFFFFFFFFFFFFFFFFFFFFFF AND EQ PUSH2 0xA1C JUMPI PUSH1 0x40 MLOAD PUSH32 0x8C379A000000000000000000000000000000000000000000000000000000000 DUP2 MSTORE PUSH1 0x4 ADD PUSH2 0xA13 SWAP1 PUSH2 0x353A JUMP JUMPDEST PUSH1 0x40 MLOAD DUP1 SWAP2 SUB SWAP1 REVERT JUMPDEST DUP1 PUSH1 0xC PUSH1 0x0 DUP5 PUSH20 0xFFFFFFFFFFFFFFFFFFFFFFFFFFFFFFFFFFFFFFFF AND PUSH20 0xFFFFFFFFFFFFFFFFFFFFFFFFFFFFFFFFFFFFFFFF AND DUP2 MSTORE PUSH1 0x20 ADD SWAP1 DUP2 MSTORE PUSH1 0x20 ADD PUSH1 0x0 KECCAK256 PUSH1 0x0 PUSH2 0x100 EXP DUP2 SLOAD DUP2 PUSH1 0xFF MUL NOT AND SWAP1 DUP4 ISZERO ISZERO MUL OR SWAP1 SSTORE POP DUP1 ISZERO ISZERO DUP3 PUSH20 0xFFFFFFFFFFFFFFFFFFFFFFFFFFFFFFFFFFFFFFFF AND PUSH32 0x8B2C0469ECD1D7A21D7E1492F0FC75FC7E8E0FA4FDF4275949C90875F5EBDF5 PUSH1 0x40 MLOAD PUSH1 0x40 MLOAD DUP1 SWAP2 SUB SWAP1 LOG3 POP POP JUMP JUMPDEST PUSH1 0x8 PUSH1 0x20 MSTORE DUP1 PUSH1 0x0 MSTORE PUSH1 0x40 PUSH1 0x0 KECCAK256 PUSH1 0x0 SWAP2 POP SWAP1 POP SLOAD DUP2 JUMP JUMPDEST PUSH1 0x2 SLOAD DUP2 JUMP JUMPDEST PUSH1 0x0 PUSH1 0x4 PUSH1 0x0 DUP4 DUP2 MSTORE PUSH1 0x20 ADD SWAP1 DUP2 MSTORE PUSH1 0x20 ADD PUSH1 0x0 KECCAK256 PUSH1 0x0 SWAP1 SLOAD SWAP1 PUSH2 0x100 EXP SWAP1 DIV PUSH20 0xFFFFFFFFFFFFFFFFFFFFFFFFFFFFFFFFFFFFFFFF AND SWAP1 POP DUP1 PUSH20 0xFFFFFFFFFFFFFFFFFFFFFFFFFFFFFFFFFFFFFFFF AND CALLER PUSH20 0xFFFFFFFFFFFFFFFFFFFFFFFFFFFFFFFFFFFFFFFF AND EQ DUP1 PUSH2 0xBAB JUMPI POP PUSH1 0x6 PUSH1 0x0 DUP4 DUP2 MSTORE PUSH1 0x20 ADD SWAP1 DUP2 MSTORE PUSH1 0x20 ADD PUSH1 0x0 KECCAK256 PUSH1 0x0 SWAP1 SLOAD SWAP1 PUSH2 0x100 EXP SWAP1 DIV PUSH20 0xFFFFFFFFFFFFFFFFFFFFFFFFFFFFFFFFFFFFFFFF AND PUSH20 0xFFFFFFFFFFFFFFFFFFFFFFFFFFFFFFFFFFFFFFFF AND CALLER PUSH20 0xFFFFFFFFFFFFFFFFFFFFFFFFFFFFFFFFFFFFFFFF AND EQ JUMPDEST DUP1 PUSH2 0xC3C JUMPI POP PUSH1 0x7 PUSH1 0x0 DUP3 PUSH20 0xFFFFFFFFFFFFFFFFFFFFFFFFFFFFFFFFFFFFFFFF AND PUSH20 0xFFFFFFFFFFFFFFFFFFFFFFFFFFFFFFFFFFFFFFFF AND DUP2 MSTORE PUSH1 0x20 ADD SWAP1 DUP2 MSTORE PUSH1 0x20 ADD PUSH1 0x0 KECCAK256 PUSH1 0x0 CALLER PUSH20 0xFFFFFFFFFFFFFFFFFFFFFFFFFFFFFFFFFFFFFFFF AND PUSH20 0xFFFFFFFFFFFFFFFFFFFFFFFFFFFFFFFFFFFFFFFF AND DUP2 MSTORE PUSH1 0x20 ADD SWAP1 DUP2 MSTORE PUSH1 0x20 ADD PUSH1 0x0 KECCAK256 PUSH1 0x0 SWAP1 SLOAD SWAP1 PUSH2 0x100 EXP SWAP1 DIV PUSH1 0xFF AND JUMPDEST PUSH2 0xC7B JUMPI PUSH1 0x40 MLOAD PUSH32 0x8C379A000000000000000000000000000000000000000000000000000000000 DUP2 MSTORE PUSH1 0x4 ADD PUSH2 0xC72 SWAP1 PUSH2 0x347A JUMP JUMPDEST PUSH1 0x40 MLOAD DUP1 SWAP2 SUB SWAP1 REVERT JUMPDEST PUSH1 0x3 PUSH1 0x0 DUP3 PUSH20 0xFFFFFFFFFFFFFFFFFFFFFFFFFFFFFFFFFFFFFFFF AND PUSH20 0xFFFFFFFFFFFFFFFFFFFFFFFFFFFFFFFFFFFFFFFF AND DUP2 MSTORE PUSH1 0x20 ADD SWAP1 DUP2 MSTORE PUSH1 0x20 ADD PUSH1 0x0 KECCAK256 PUSH1 0x0 DUP2 SLOAD DUP1 SWAP3 SWAP2 SWAP1 PUSH1 0x1 SWAP1 SUB SWAP2 SWAP1 POP SSTORE POP PUSH1 0x3 PUSH1 0x0 DUP5 PUSH20 0xFFFFFFFFFFFFFFFFFFFFFFFFFFFFFFFFFFFFFFFF AND PUSH20 0xFFFFFFFFFFFFFFFFFFFFFFFFFFFFFFFFFFFFFFFF AND DUP2 MSTORE PUSH1 0x20 ADD SWAP1 DUP2 MSTORE PUSH1 0x20 ADD PUSH1 0x0 KECCAK256 PUSH1 0x0 DUP2 SLOAD DUP1 SWAP3 SWAP2 SWAP1 PUSH1 0x1 ADD SWAP2 SWAP1 POP SSTORE POP PUSH1 0x6 PUSH1 0x0 DUP4 DUP2 MSTORE PUSH1 0x20 ADD SWAP1 DUP2 MSTORE PUSH1 0x20 ADD PUSH1 0x0 KECCAK256 PUSH1 0x0 PUSH2 0x100 EXP DUP2 SLOAD SWAP1 PUSH20 0xFFFFFFFFFFFFFFFFFFFFFFFFFFFFFFFFFFFFFFFF MUL NOT AND SWAP1 SSTORE DUP3 PUSH1 0x4 PUSH1 0x0 DUP5 DUP2 MSTORE PUSH1 0x20 ADD SWAP1 DUP2 MSTORE PUSH1 0x20 ADD PUSH1 0x0 KECCAK256 PUSH1 0x0 PUSH2 0x100 EXP DUP2 SLOAD DUP2 PUSH20 0xFFFFFFFFFFFFFFFFFFFFFFFFFFFFFFFFFFFFFFFF MUL NOT AND SWAP1 DUP4 PUSH20 0xFFFFFFFFFFFFFFFFFFFFFFFFFFFFFFFFFFFFFFFF AND MUL OR SWAP1 SSTORE POP DUP2 DUP4 PUSH20 0xFFFFFFFFFFFFFFFFFFFFFFFFFFFFFFFFFFFFFFFF AND DUP3 PUSH20 0xFFFFFFFFFFFFFFFFFFFFFFFFFFFFFFFFFFFFFFFF AND PUSH32 0xDDF252AD1BE2C89B69C2B068FC378DAA952BA7F163C4A11628F55A4DF523B3EF PUSH1 0x40 MLOAD PUSH1 0x40 MLOAD DUP1 SWAP2 SUB SWAP1 LOG4 POP POP POP POP JUMP JUMPDEST PUSH32 0x49ECF333E5B8C95C40FDAFC95C1AD136E8914A8FB55E9DC8BB01EAA83A2DF9AD DUP2 JUMP JUMPDEST PUSH1 0x0 PUSH32 0x0 CHAINID EQ PUSH2 0xE5D JUMPI PUSH2 0xE58 PUSH2 0x2439 JUMP JUMPDEST PUSH2 0xE7F JUMP JUMPDEST PUSH32 0x0 JUMPDEST SWAP1 POP SWAP1 JUMP JUMPDEST PUSH1 0xB PUSH1 0x0 SWAP1 SLOAD SWAP1 PUSH2 0x100 EXP SWAP1 DIV PUSH20 0xFFFFFFFFFFFFFFFFFFFFFFFFFFFFFFFFFFFFFFFF AND PUSH20 0xFFFFFFFFFFFFFFFFFFFFFFFFFFFFFFFFFFFFFFFF AND CALLER PUSH20 0xFFFFFFFFFFFFFFFFFFFFFFFFFFFFFFFFFFFFFFFF AND EQ PUSH2 0xF14 JUMPI PUSH1 0x40 MLOAD PUSH32 0x8C379A000000000000000000000000000000000000000000000000000000000 DUP2 MSTORE PUSH1 0x4 ADD PUSH2 0xF0B SWAP1 PUSH2 0x351A JUMP JUMPDEST PUSH1 0x40 MLOAD DUP1 SWAP2 SUB SWAP1 REVERT JUMPDEST CALLER PUSH20 0xFFFFFFFFFFFFFFFFFFFFFFFFFFFFFFFFFFFFFFFF AND PUSH1 0xA PUSH1 0x0 SWAP1 SLOAD SWAP1 PUSH2 0x100 EXP SWAP1 DIV PUSH20 0xFFFFFFFFFFFFFFFFFFFFFFFFFFFFFFFFFFFFFFFF AND PUSH20 0xFFFFFFFFFFFFFFFFFFFFFFFFFFFFFFFFFFFFFFFF AND PUSH32 0x5BB496B3F951B55D3A1D8E479725A4D25BDC7644FC355F0B71C540354820A1C5 PUSH1 0x40 MLOAD PUSH1 0x40 MLOAD DUP1 SWAP2 SUB SWAP1 LOG3 CALLER PUSH1 0xA PUSH1 0x0 PUSH2 0x100 EXP DUP2 SLOAD DUP2 PUSH20 0xFFFFFFFFFFFFFFFFFFFFFFFFFFFFFFFFFFFFFFFF MUL NOT AND SWAP1 DUP4 PUSH20 0xFFFFFFFFFFFFFFFFFFFFFFFFFFFFFFFFFFFFFFFF AND MUL OR SWAP1 SSTORE POP PUSH1 0x0 PUSH1 0xB PUSH1 0x0 PUSH2 0x100 EXP DUP2 SLOAD DUP2 PUSH20 0xFFFFFFFFFFFFFFFFFFFFFFFFFFFFFFFFFFFFFFFF MUL NOT AND SWAP1 DUP4 PUSH20 0xFFFFFFFFFFFFFFFFFFFFFFFFFFFFFFFFFFFFFFFF AND MUL OR SWAP1 SSTORE POP JUMP JUMPDEST PUSH2 0x1031 PUSH1 0x0 DUP4 DUP4 PUSH1 0x40 MLOAD DUP1 PUSH1 0x20 ADD PUSH1 0x40 MSTORE DUP1 PUSH1 0x0 DUP2 MSTORE POP PUSH2 0x1EBE JUMP JUMPDEST POP POP POP JUMP JUMPDEST PUSH1 0x0 DUP1 SHL PUSH1 0xD SLOAD EQ ISZERO PUSH2 0x107E JUMPI PUSH1 0x40 MLOAD PUSH32 0x8C379A000000000000000000000000000000000000000000000000000000000 DUP2 MSTORE PUSH1 0x4 ADD PUSH2 0x1075 SWAP1 PUSH2 0x349A JUMP JUMPDEST PUSH1 0x40 MLOAD DUP1 SWAP2 SUB SWAP1 REVERT JUMPDEST PUSH2 0x10BB PUSH1 0xD SLOAD CALLER PUSH1 0x40 MLOAD PUSH1 0x20 ADD PUSH2 0x1095 SWAP2 SWAP1 PUSH2 0x3191 JUMP JUMPDEST PUSH1 0x40 MLOAD PUSH1 0x20 DUP2 DUP4 SUB SUB DUP2 MSTORE SWAP1 PUSH1 0x40 MSTORE DUP1 MLOAD SWAP1 PUSH1 0x20 ADD KECCAK256 DUP4 PUSH2 0x24E1 SWAP1 SWAP3 SWAP2 SWAP1 PUSH4 0xFFFFFFFF AND JUMP JUMPDEST PUSH2 0x10FA JUMPI PUSH1 0x40 MLOAD PUSH32 0x8C379A000000000000000000000000000000000000000000000000000000000 DUP2 MSTORE PUSH1 0x4 ADD PUSH2 0x10F1 SWAP1 PUSH2 0x343A JUMP JUMPDEST PUSH1 0x40 MLOAD DUP1 SWAP2 SUB SWAP1 REVERT JUMPDEST PUSH1 0x1 PUSH1 0xC PUSH1 0x0 CALLER PUSH20 0xFFFFFFFFFFFFFFFFFFFFFFFFFFFFFFFFFFFFFFFF AND PUSH20 0xFFFFFFFFFFFFFFFFFFFFFFFFFFFFFFFFFFFFFFFF AND DUP2 MSTORE PUSH1 0x20 ADD SWAP1 DUP2 MSTORE PUSH1 0x20 ADD PUSH1 0x0 KECCAK256 PUSH1 0x0 PUSH2 0x100 EXP DUP2 SLOAD DUP2 PUSH1 0xFF MUL NOT AND SWAP1 DUP4 ISZERO ISZERO MUL OR SWAP1 SSTORE POP PUSH1 0x1 ISZERO ISZERO CALLER PUSH20 0xFFFFFFFFFFFFFFFFFFFFFFFFFFFFFFFFFFFFFFFF AND PUSH32 0x8B2C0469ECD1D7A21D7E1492F0FC75FC7E8E0FA4FDF4275949C90875F5EBDF5 PUSH1 0x40 MLOAD PUSH1 0x40 MLOAD DUP1 SWAP2 SUB SWAP1 LOG3 POP JUMP JUMPDEST PUSH1 0xB PUSH1 0x14 SWAP1 SLOAD SWAP1 PUSH2 0x100 EXP SWAP1 DIV PUSH1 0xFF AND DUP2 JUMP JUMPDEST PUSH1 0x4 PUSH1 0x20 MSTORE DUP1 PUSH1 0x0 MSTORE PUSH1 0x40 PUSH1 0x0 KECCAK256 PUSH1 0x0 SWAP2 POP SLOAD SWAP1 PUSH2 0x100 EXP SWAP1 DIV PUSH20 0xFFFFFFFFFFFFFFFFFFFFFFFFFFFFFFFFFFFFFFFF AND DUP2 JUMP JUMPDEST PUSH1 0x3 PUSH1 0x20 MSTORE DUP1 PUSH1 0x0 MSTORE PUSH1 0x40 PUSH1 0x0 KECCAK256 PUSH1 0x0 SWAP2 POP SWAP1 POP SLOAD DUP2 JUMP JUMPDEST TIMESTAMP DUP5 LT ISZERO PUSH2 0x123D JUMPI PUSH1 0x40 MLOAD PUSH32 0x8C379A000000000000000000000000000000000000000000000000000000000 DUP2 MSTORE PUSH1 0x4 ADD PUSH2 0x1234 SWAP1 PUSH2 0x355A JUMP JUMPDEST PUSH1 0x40 MLOAD DUP1 SWAP2 SUB SWAP1 REVERT JUMPDEST PUSH1 0x0 PUSH1 0x4 PUSH1 0x0 DUP8 DUP2 MSTORE PUSH1 0x20 ADD SWAP1 DUP2 MSTORE PUSH1 0x20 ADD PUSH1 0x0 KECCAK256 PUSH1 0x0 SWAP1 SLOAD SWAP1 PUSH2 0x100 EXP SWAP1 DIV PUSH20 0xFFFFFFFFFFFFFFFFFFFFFFFFFFFFFFFFFFFFFFFF AND SWAP1 POP PUSH1 0x0 PUSH2 0x127F PUSH2 0xE27 JUMP JUMPDEST PUSH32 0x49ECF333E5B8C95C40FDAFC95C1AD136E8914A8FB55E9DC8BB01EAA83A2DF9AD DUP10 DUP10 PUSH1 0x8 PUSH1 0x0 DUP13 DUP2 MSTORE PUSH1 0x20 ADD SWAP1 DUP2 MSTORE PUSH1 0x20 ADD PUSH1 0x0 KECCAK256 PUSH1 0x0 DUP2 SLOAD DUP1 SWAP3 SWAP2 SWAP1 PUSH1 0x1 ADD SWAP2 SWAP1 POP SSTORE DUP11 PUSH1 0x40 MLOAD PUSH1 0x20 ADD PUSH2 0x12D9 SWAP6 SWAP5 SWAP4 SWAP3 SWAP2 SWAP1 PUSH2 0x332D JUMP JUMPDEST PUSH1 0x40 MLOAD PUSH1 0x20 DUP2 DUP4 SUB SUB DUP2 MSTORE SWAP1 PUSH1 0x40 MSTORE DUP1 MLOAD SWAP1 PUSH1 0x20 ADD KECCAK256 PUSH1 0x40 MLOAD PUSH1 0x20 ADD PUSH2 0x1300 SWAP3 SWAP2 SWAP1 PUSH2 0x3206 JUMP JUMPDEST PUSH1 0x40 MLOAD PUSH1 0x20 DUP2 DUP4 SUB SUB DUP2 MSTORE SWAP1 PUSH1 0x40 MSTORE DUP1 MLOAD SWAP1 PUSH1 0x20 ADD KECCAK256 SWAP1 POP PUSH1 0x0 PUSH1 0x1 DUP3 DUP8 DUP8 DUP8 PUSH1 0x40 MLOAD PUSH1 0x0 DUP2 MSTORE PUSH1 0x20 ADD PUSH1 0x40 MSTORE PUSH1 0x40 MLOAD PUSH2 0x133D SWAP5 SWAP4 SWAP3 SWAP2 SWAP1 PUSH2 0x33D3 JUMP JUMPDEST PUSH1 0x20 PUSH1 0x40 MLOAD PUSH1 0x20 DUP2 SUB SWAP1 DUP1 DUP5 SUB SWAP1 DUP6 GAS STATICCALL ISZERO DUP1 ISZERO PUSH2 0x135F JUMPI RETURNDATASIZE PUSH1 0x0 DUP1 RETURNDATACOPY RETURNDATASIZE PUSH1 0x0 REVERT JUMPDEST POP POP POP PUSH1 0x20 PUSH1 0x40 MLOAD SUB MLOAD SWAP1 POP PUSH1 0x0 PUSH20 0xFFFFFFFFFFFFFFFFFFFFFFFFFFFFFFFFFFFFFFFF AND DUP2 PUSH20 0xFFFFFFFFFFFFFFFFFFFFFFFFFFFFFFFFFFFFFFFF AND EQ ISZERO PUSH2 0x13DB JUMPI PUSH1 0x40 MLOAD PUSH32 0x8C379A000000000000000000000000000000000000000000000000000000000 DUP2 MSTORE PUSH1 0x4 ADD PUSH2 0x13D2 SWAP1 PUSH2 0x345A JUMP JUMPDEST PUSH1 0x40 MLOAD DUP1 SWAP2 SUB SWAP1 REVERT JUMPDEST DUP3 PUSH20 0xFFFFFFFFFFFFFFFFFFFFFFFFFFFFFFFFFFFFFFFF AND DUP2 PUSH20 0xFFFFFFFFFFFFFFFFFFFFFFFFFFFFFFFFFFFFFFFF AND EQ DUP1 PUSH2 0x149B JUMPI POP PUSH1 0x7 PUSH1 0x0 DUP5 PUSH20 0xFFFFFFFFFFFFFFFFFFFFFFFFFFFFFFFFFFFFFFFF AND PUSH20 0xFFFFFFFFFFFFFFFFFFFFFFFFFFFFFFFFFFFFFFFF AND DUP2 MSTORE PUSH1 0x20 ADD SWAP1 DUP2 MSTORE PUSH1 0x20 ADD PUSH1 0x0 KECCAK256 PUSH1 0x0 DUP3 PUSH20 0xFFFFFFFFFFFFFFFFFFFFFFFFFFFFFFFFFFFFFFFF AND PUSH20 0xFFFFFFFFFFFFFFFFFFFFFFFFFFFFFFFFFFFFFFFF AND DUP2 MSTORE PUSH1 0x20 ADD SWAP1 DUP2 MSTORE PUSH1 0x20 ADD PUSH1 0x0 KECCAK256 PUSH1 0x0 SWAP1 SLOAD SWAP1 PUSH2 0x100 EXP SWAP1 DIV PUSH1 0xFF AND JUMPDEST PUSH2 0x14DA JUMPI PUSH1 0x40 MLOAD PUSH32 0x8C379A000000000000000000000000000000000000000000000000000000000 DUP2 MSTORE PUSH1 0x4 ADD PUSH2 0x14D1 SWAP1 PUSH2 0x34DA JUMP JUMPDEST PUSH1 0x40 MLOAD DUP1 SWAP2 SUB SWAP1 REVERT JUMPDEST POP POP DUP7 PUSH1 0x6 PUSH1 0x0 DUP9 DUP2 MSTORE PUSH1 0x20 ADD SWAP1 DUP2 MSTORE PUSH1 0x20 ADD PUSH1 0x0 KECCAK256 PUSH1 0x0 PUSH2 0x100 EXP DUP2 SLOAD DUP2 PUSH20 0xFFFFFFFFFFFFFFFFFFFFFFFFFFFFFFFFFFFFFFFF MUL NOT AND SWAP1 DUP4 PUSH20 0xFFFFFFFFFFFFFFFFFFFFFFFFFFFFFFFFFFFFFFFF AND MUL OR SWAP1 SSTORE POP DUP6 DUP8 PUSH20 0xFFFFFFFFFFFFFFFFFFFFFFFFFFFFFFFFFFFFFFFF AND DUP3 PUSH20 0xFFFFFFFFFFFFFFFFFFFFFFFFFFFFFFFFFFFFFFFF AND PUSH32 0x8C5BE1E5EBEC7D5BD14F71427D1E84F3DD0314C0F7B2291E5B200AC8C7C3B925 PUSH1 0x40 MLOAD PUSH1 0x40 MLOAD DUP1 SWAP2 SUB SWAP1 LOG4 POP POP POP POP POP POP POP JUMP JUMPDEST PUSH1 0xA PUSH1 0x0 SWAP1 SLOAD SWAP1 PUSH2 0x100 EXP SWAP1 DIV PUSH20 0xFFFFFFFFFFFFFFFFFFFFFFFFFFFFFFFFFFFFFFFF AND PUSH20 0xFFFFFFFFFFFFFFFFFFFFFFFFFFFFFFFFFFFFFFFF AND CALLER PUSH20 0xFFFFFFFFFFFFFFFFFFFFFFFFFFFFFFFFFFFFFFFF AND EQ PUSH2 0x1622 JUMPI PUSH1 0x40 MLOAD PUSH32 0x8C379A000000000000000000000000000000000000000000000000000000000 DUP2 MSTORE PUSH1 0x4 ADD PUSH2 0x1619 SWAP1 PUSH2 0x353A JUMP JUMPDEST PUSH1 0x40 MLOAD DUP1 SWAP2 SUB SWAP1 REVERT JUMPDEST DUP1 PUSH1 0xD DUP2 SWAP1 SSTORE POP POP JUMP JUMPDEST PUSH1 0xA PUSH1 0x0 SWAP1 SLOAD SWAP1 PUSH2 0x100 EXP SWAP1 DIV PUSH20 0xFFFFFFFFFFFFFFFFFFFFFFFFFFFFFFFFFFFFFFFF AND PUSH20 0xFFFFFFFFFFFFFFFFFFFFFFFFFFFFFFFFFFFFFFFF AND CALLER PUSH20 0xFFFFFFFFFFFFFFFFFFFFFFFFFFFFFFFFFFFFFFFF AND EQ PUSH2 0x16BC JUMPI PUSH1 0x40 MLOAD PUSH32 0x8C379A000000000000000000000000000000000000000000000000000000000 DUP2 MSTORE PUSH1 0x4 ADD PUSH2 0x16B3 SWAP1 PUSH2 0x353A JUMP JUMPDEST PUSH1 0x40 MLOAD DUP1 SWAP2 SUB SWAP1 REVERT JUMPDEST DUP1 PUSH1 0xB PUSH1 0x14 PUSH2 0x100 EXP DUP2 SLOAD DUP2 PUSH1 0xFF MUL NOT AND SWAP1 DUP4 ISZERO ISZERO MUL OR SWAP1 SSTORE POP DUP1 ISZERO ISZERO PUSH32 0x1BCE650C18D48DC571157E199D09844825D5CD56D07410DBC8F7DDC869660480 PUSH1 0x40 MLOAD PUSH1 0x40 MLOAD DUP1 SWAP2 SUB SWAP1 LOG2 POP JUMP JUMPDEST PUSH1 0xA PUSH1 0x0 SWAP1 SLOAD SWAP1 PUSH2 0x100 EXP SWAP1 DIV PUSH20 0xFFFFFFFFFFFFFFFFFFFFFFFFFFFFFFFFFFFFFFFF AND DUP2 JUMP JUMPDEST PUSH1 0x9 PUSH1 0x20 MSTORE DUP1 PUSH1 0x0 MSTORE PUSH1 0x40 PUSH1 0x0 KECCAK256 PUSH1 0x0 SWAP2 POP SWAP1 POP SLOAD DUP2 JUMP JUMPDEST PUSH1 0x1 DUP1 SLOAD PUSH2 0x1753 SWAP1 PUSH2 0x3798 JUMP JUMPDEST DUP1 PUSH1 0x1F ADD PUSH1 0x20 DUP1 SWAP2 DIV MUL PUSH1 0x20 ADD PUSH1 0x40 MLOAD SWAP1 DUP2 ADD PUSH1 0x40 MSTORE DUP1 SWAP3 SWAP2 SWAP1 DUP2 DUP2 MSTORE PUSH1 0x20 ADD DUP3 DUP1 SLOAD PUSH2 0x177F SWAP1 PUSH2 0x3798 JUMP JUMPDEST DUP1 ISZERO PUSH2 0x17CC JUMPI DUP1 PUSH1 0x1F LT PUSH2 0x17A1 JUMPI PUSH2 0x100 DUP1 DUP4 SLOAD DIV MUL DUP4 MSTORE SWAP2 PUSH1 0x20 ADD SWAP2 PUSH2 0x17CC JUMP JUMPDEST DUP3 ADD SWAP2 SWAP1 PUSH1 0x0 MSTORE PUSH1 0x20 PUSH1 0x0 KECCAK256 SWAP1 JUMPDEST DUP2 SLOAD DUP2 MSTORE SWAP1 PUSH1 0x1 ADD SWAP1 PUSH1 0x20 ADD DUP1 DUP4 GT PUSH2 0x17AF JUMPI DUP3 SWAP1 SUB PUSH1 0x1F AND DUP3 ADD SWAP2 JUMPDEST POP POP POP POP POP DUP2 JUMP JUMPDEST DUP1 PUSH1 0x7 PUSH1 0x0 CALLER PUSH20 0xFFFFFFFFFFFFFFFFFFFFFFFFFFFFFFFFFFFFFFFF AND PUSH20 0xFFFFFFFFFFFFFFFFFFFFFFFFFFFFFFFFFFFFFFFF AND DUP2 MSTORE PUSH1 0x20 ADD SWAP1 DUP2 MSTORE PUSH1 0x20 ADD PUSH1 0x0 KECCAK256 PUSH1 0x0 DUP5 PUSH20 0xFFFFFFFFFFFFFFFFFFFFFFFFFFFFFFFFFFFFFFFF AND PUSH20 0xFFFFFFFFFFFFFFFFFFFFFFFFFFFFFFFFFFFFFFFF AND DUP2 MSTORE PUSH1 0x20 ADD SWAP1 DUP2 MSTORE PUSH1 0x20 ADD PUSH1 0x0 KECCAK256 PUSH1 0x0 PUSH2 0x100 EXP DUP2 SLOAD DUP2 PUSH1 0xFF MUL NOT AND SWAP1 DUP4 ISZERO ISZERO MUL OR SWAP1 SSTORE POP DUP2 PUSH20 0xFFFFFFFFFFFFFFFFFFFFFFFFFFFFFFFFFFFFFFFF AND CALLER PUSH20 0xFFFFFFFFFFFFFFFFFFFFFFFFFFFFFFFFFFFFFFFF AND PUSH32 0x17307EAB39AB6107E8899845AD3D59BD9653F200F220920489CA2B5937696C31 DUP4 PUSH1 0x40 MLOAD PUSH2 0x18C5 SWAP2 SWAP1 PUSH2 0x32A4 JUMP JUMPDEST PUSH1 0x40 MLOAD DUP1 SWAP2 SUB SWAP1 LOG3 POP POP JUMP JUMPDEST PUSH1 0x4 PUSH1 0x0 DUP3 DUP2 MSTORE PUSH1 0x20 ADD SWAP1 DUP2 MSTORE PUSH1 0x20 ADD PUSH1 0x0 KECCAK256 PUSH1 0x0 SWAP1 SLOAD SWAP1 PUSH2 0x100 EXP SWAP1 DIV PUSH20 0xFFFFFFFFFFFFFFFFFFFFFFFFFFFFFFFFFFFFFFFF AND PUSH20 0xFFFFFFFFFFFFFFFFFFFFFFFFFFFFFFFFFFFFFFFF AND CALLER PUSH20 0xFFFFFFFFFFFFFFFFFFFFFFFFFFFFFFFFFFFFFFFF AND EQ PUSH2 0x1972 JUMPI PUSH1 0x40 MLOAD PUSH32 0x8C379A000000000000000000000000000000000000000000000000000000000 DUP2 MSTORE PUSH1 0x4 ADD PUSH2 0x1969 SWAP1 PUSH2 0x353A JUMP JUMPDEST PUSH1 0x40 MLOAD DUP1 SWAP2 SUB SWAP1 REVERT JUMPDEST PUSH1 0x3 PUSH1 0x0 CALLER PUSH20 0xFFFFFFFFFFFFFFFFFFFFFFFFFFFFFFFFFFFFFFFF AND PUSH20 0xFFFFFFFFFFFFFFFFFFFFFFFFFFFFFFFFFFFFFFFF AND DUP2 MSTORE PUSH1 0x20 ADD SWAP1 DUP2 MSTORE PUSH1 0x20 ADD PUSH1 0x0 KECCAK256 PUSH1 0x0 DUP2 SLOAD DUP1 SWAP3 SWAP2 SWAP1 PUSH1 0x1 SWAP1 SUB SWAP2 SWAP1 POP SSTORE POP PUSH1 0x3 PUSH1 0x0 DUP4 PUSH20 0xFFFFFFFFFFFFFFFFFFFFFFFFFFFFFFFFFFFFFFFF AND PUSH20 0xFFFFFFFFFFFFFFFFFFFFFFFFFFFFFFFFFFFFFFFF AND DUP2 MSTORE PUSH1 0x20 ADD SWAP1 DUP2 MSTORE PUSH1 0x20 ADD PUSH1 0x0 KECCAK256 PUSH1 0x0 DUP2 SLOAD DUP1 SWAP3 SWAP2 SWAP1 PUSH1 0x1 ADD SWAP2 SWAP1 POP SSTORE POP PUSH1 0x6 PUSH1 0x0 DUP3 DUP2 MSTORE PUSH1 0x20 ADD SWAP1 DUP2 MSTORE PUSH1 0x20 ADD PUSH1 0x0 KECCAK256 PUSH1 0x0 PUSH2 0x100 EXP DUP2 SLOAD SWAP1 PUSH20 0xFFFFFFFFFFFFFFFFFFFFFFFFFFFFFFFFFFFFFFFF MUL NOT AND SWAP1 SSTORE DUP2 PUSH1 0x4 PUSH1 0x0 DUP4 DUP2 MSTORE PUSH1 0x20 ADD SWAP1 DUP2 MSTORE PUSH1 0x20 ADD PUSH1 0x0 KECCAK256 PUSH1 0x0 PUSH2 0x100 EXP DUP2 SLOAD DUP2 PUSH20 0xFFFFFFFFFFFFFFFFFFFFFFFFFFFFFFFFFFFFFFFF MUL NOT AND SWAP1 DUP4 PUSH20 0xFFFFFFFFFFFFFFFFFFFFFFFFFFFFFFFFFFFFFFFF AND MUL OR SWAP1 SSTORE POP DUP1 DUP3 PUSH20 0xFFFFFFFFFFFFFFFFFFFFFFFFFFFFFFFFFFFFFFFF AND CALLER PUSH20 0xFFFFFFFFFFFFFFFFFFFFFFFFFFFFFFFFFFFFFFFF AND PUSH32 0xDDF252AD1BE2C89B69C2B068FC378DAA952BA7F163C4A11628F55A4DF523B3EF PUSH1 0x40 MLOAD PUSH1 0x40 MLOAD DUP1 SWAP2 SUB SWAP1 LOG4 POP POP JUMP JUMPDEST TIMESTAMP DUP5 LT ISZERO PUSH2 0x1B3B JUMPI PUSH1 0x40 MLOAD PUSH32 0x8C379A000000000000000000000000000000000000000000000000000000000 DUP2 MSTORE PUSH1 0x4 ADD PUSH2 0x1B32 SWAP1 PUSH2 0x355A JUMP JUMPDEST PUSH1 0x40 MLOAD DUP1 SWAP2 SUB SWAP1 REVERT JUMPDEST PUSH1 0x0 PUSH2 0x1B45 PUSH2 0xE27 JUMP JUMPDEST PUSH32 0xDAAB21AF31ECE73A508939FEDD476A5EE5129A5ED4BB091F3236FFB45394DF62 DUP9 DUP9 PUSH1 0x9 PUSH1 0x0 DUP13 PUSH20 0xFFFFFFFFFFFFFFFFFFFFFFFFFFFFFFFFFFFFFFFF AND PUSH20 0xFFFFFFFFFFFFFFFFFFFFFFFFFFFFFFFFFFFFFFFF AND DUP2 MSTORE PUSH1 0x20 ADD SWAP1 DUP2 MSTORE PUSH1 0x20 ADD PUSH1 0x0 KECCAK256 PUSH1 0x0 DUP2 SLOAD DUP1 SWAP3 SWAP2 SWAP1 PUSH1 0x1 ADD SWAP2 SWAP1 POP SSTORE DUP10 PUSH1 0x40 MLOAD PUSH1 0x20 ADD PUSH2 0x1BCB SWAP6 SWAP5 SWAP4 SWAP3 SWAP2 SWAP1 PUSH2 0x32DA JUMP JUMPDEST PUSH1 0x40 MLOAD PUSH1 0x20 DUP2 DUP4 SUB SUB DUP2 MSTORE SWAP1 PUSH1 0x40 MSTORE DUP1 MLOAD SWAP1 PUSH1 0x20 ADD KECCAK256 PUSH1 0x40 MLOAD PUSH1 0x20 ADD PUSH2 0x1BF2 SWAP3 SWAP2 SWAP1 PUSH2 0x3206 JUMP JUMPDEST PUSH1 0x40 MLOAD PUSH1 0x20 DUP2 DUP4 SUB SUB DUP2 MSTORE SWAP1 PUSH1 0x40 MSTORE DUP1 MLOAD SWAP1 PUSH1 0x20 ADD KECCAK256 SWAP1 POP PUSH1 0x0 PUSH1 0x1 DUP3 DUP7 DUP7 DUP7 PUSH1 0x40 MLOAD PUSH1 0x0 DUP2 MSTORE PUSH1 0x20 ADD PUSH1 0x40 MSTORE PUSH1 0x40 MLOAD PUSH2 0x1C2F SWAP5 SWAP4 SWAP3 SWAP2 SWAP1 PUSH2 0x33D3 JUMP JUMPDEST PUSH1 0x20 PUSH1 0x40 MLOAD PUSH1 0x20 DUP2 SUB SWAP1 DUP1 DUP5 SUB SWAP1 DUP6 GAS STATICCALL ISZERO DUP1 ISZERO PUSH2 0x1C51 JUMPI RETURNDATASIZE PUSH1 0x0 DUP1 RETURNDATACOPY RETURNDATASIZE PUSH1 0x0 REVERT JUMPDEST POP POP POP PUSH1 0x20 PUSH1 0x40 MLOAD SUB MLOAD SWAP1 POP PUSH1 0x0 PUSH20 0xFFFFFFFFFFFFFFFFFFFFFFFFFFFFFFFFFFFFFFFF AND DUP2 PUSH20 0xFFFFFFFFFFFFFFFFFFFFFFFFFFFFFFFFFFFFFFFF AND EQ ISZERO DUP1 ISZERO PUSH2 0x1CC5 JUMPI POP DUP8 PUSH20 0xFFFFFFFFFFFFFFFFFFFFFFFFFFFFFFFFFFFFFFFF AND DUP2 PUSH20 0xFFFFFFFFFFFFFFFFFFFFFFFFFFFFFFFFFFFFFFFF AND EQ JUMPDEST DUP1 PUSH2 0x1D56 JUMPI POP PUSH1 0x7 PUSH1 0x0 DUP10 PUSH20 0xFFFFFFFFFFFFFFFFFFFFFFFFFFFFFFFFFFFFFFFF AND PUSH20 0xFFFFFFFFFFFFFFFFFFFFFFFFFFFFFFFFFFFFFFFF AND DUP2 MSTORE PUSH1 0x20 ADD SWAP1 DUP2 MSTORE PUSH1 0x20 ADD PUSH1 0x0 KECCAK256 PUSH1 0x0 DUP3 PUSH20 0xFFFFFFFFFFFFFFFFFFFFFFFFFFFFFFFFFFFFFFFF AND PUSH20 0xFFFFFFFFFFFFFFFFFFFFFFFFFFFFFFFFFFFFFFFF AND DUP2 MSTORE PUSH1 0x20 ADD SWAP1 DUP2 MSTORE PUSH1 0x20 ADD PUSH1 0x0 KECCAK256 PUSH1 0x0 SWAP1 SLOAD SWAP1 PUSH2 0x100 EXP SWAP1 DIV PUSH1 0xFF AND JUMPDEST PUSH2 0x1D95 JUMPI PUSH1 0x40 MLOAD PUSH32 0x8C379A000000000000000000000000000000000000000000000000000000000 DUP2 MSTORE PUSH1 0x4 ADD PUSH2 0x1D8C SWAP1 PUSH2 0x345A JUMP JUMPDEST PUSH1 0x40 MLOAD DUP1 SWAP2 SUB SWAP1 REVERT JUMPDEST POP POP PUSH1 0x1 PUSH1 0x7 PUSH1 0x0 DUP9 PUSH20 0xFFFFFFFFFFFFFFFFFFFFFFFFFFFFFFFFFFFFFFFF AND PUSH20 0xFFFFFFFFFFFFFFFFFFFFFFFFFFFFFFFFFFFFFFFF AND DUP2 MSTORE PUSH1 0x20 ADD SWAP1 DUP2 MSTORE PUSH1 0x20 ADD PUSH1 0x0 KECCAK256 PUSH1 0x0 DUP8 PUSH20 0xFFFFFFFFFFFFFFFFFFFFFFFFFFFFFFFFFFFFFFFF AND PUSH20 0xFFFFFFFFFFFFFFFFFFFFFFFFFFFFFFFFFFFFFFFF AND DUP2 MSTORE PUSH1 0x20 ADD SWAP1 DUP2 MSTORE PUSH1 0x20 ADD PUSH1 0x0 KECCAK256 PUSH1 0x0 PUSH2 0x100 EXP DUP2 SLOAD DUP2 PUSH1 0xFF MUL NOT AND SWAP1 DUP4 ISZERO ISZERO MUL OR SWAP1 SSTORE POP DUP5 PUSH20 0xFFFFFFFFFFFFFFFFFFFFFFFFFFFFFFFFFFFFFFFF AND DUP7 PUSH20 0xFFFFFFFFFFFFFFFFFFFFFFFFFFFFFFFFFFFFFFFF AND PUSH32 0x17307EAB39AB6107E8899845AD3D59BD9653F200F220920489CA2B5937696C31 PUSH1 0x1 PUSH1 0x40 MLOAD PUSH2 0x1E8A SWAP2 SWAP1 PUSH2 0x32A4 JUMP JUMPDEST PUSH1 0x40 MLOAD DUP1 SWAP2 SUB SWAP1 LOG3 POP POP POP POP POP POP JUMP JUMPDEST PUSH32 0xDAAB21AF31ECE73A508939FEDD476A5EE5129A5ED4BB091F3236FFB45394DF62 DUP2 JUMP JUMPDEST PUSH2 0x1ECA PUSH1 0x0 DUP5 DUP5 PUSH2 0xADB JUMP JUMPDEST PUSH1 0x0 DUP4 PUSH20 0xFFFFFFFFFFFFFFFFFFFFFFFFFFFFFFFFFFFFFFFF AND EXTCODESIZE EQ PUSH2 0x2034 JUMPI PUSH1 0x0 DUP4 PUSH20 0xFFFFFFFFFFFFFFFFFFFFFFFFFFFFFFFFFFFFFFFF AND PUSH4 0x150B7A02 CALLER PUSH1 0x0 DUP7 DUP7 PUSH1 0x40 MLOAD PUSH1 0x24 ADD PUSH2 0x1F1F SWAP5 SWAP4 SWAP3 SWAP2 SWAP1 PUSH2 0x3258 JUMP JUMPDEST PUSH1 0x40 MLOAD PUSH1 0x20 DUP2 DUP4 SUB SUB DUP2 MSTORE SWAP1 PUSH1 0x40 MSTORE SWAP1 PUSH1 0xE0 SHL PUSH1 0x20 DUP3 ADD DUP1 MLOAD PUSH28 0xFFFFFFFFFFFFFFFFFFFFFFFFFFFFFFFFFFFFFFFFFFFFFFFFFFFFFFFF DUP4 DUP2 DUP4 AND OR DUP4 MSTORE POP POP POP POP PUSH1 0x40 MLOAD PUSH2 0x1F6D SWAP2 SWAP1 PUSH2 0x31D8 JUMP JUMPDEST PUSH1 0x0 PUSH1 0x40 MLOAD DUP1 DUP4 SUB DUP2 DUP6 GAS STATICCALL SWAP2 POP POP RETURNDATASIZE DUP1 PUSH1 0x0 DUP2 EQ PUSH2 0x1FA8 JUMPI PUSH1 0x40 MLOAD SWAP2 POP PUSH1 0x1F NOT PUSH1 0x3F RETURNDATASIZE ADD AND DUP3 ADD PUSH1 0x40 MSTORE RETURNDATASIZE DUP3 MSTORE RETURNDATASIZE PUSH1 0x0 PUSH1 0x20 DUP5 ADD RETURNDATACOPY PUSH2 0x1FAD JUMP JUMPDEST PUSH1 0x60 SWAP2 POP JUMPDEST POP SWAP2 POP POP PUSH1 0x0 DUP2 DUP1 PUSH1 0x20 ADD SWAP1 MLOAD DUP2 ADD SWAP1 PUSH2 0x1FC7 SWAP2 SWAP1 PUSH2 0x2E00 JUMP JUMPDEST SWAP1 POP PUSH4 0x150B7A02 PUSH1 0xE0 SHL DUP2 PUSH28 0xFFFFFFFFFFFFFFFFFFFFFFFFFFFFFFFFFFFFFFFFFFFFFFFFFFFFFFFF NOT AND EQ PUSH2 0x2031 JUMPI PUSH1 0x40 MLOAD PUSH32 0x8C379A000000000000000000000000000000000000000000000000000000000 DUP2 MSTORE PUSH1 0x4 ADD PUSH2 0x2028 SWAP1 PUSH2 0x34FA JUMP JUMPDEST PUSH1 0x40 MLOAD DUP1 SWAP2 SUB SWAP1 REVERT JUMPDEST POP POP JUMPDEST POP POP POP POP JUMP JUMPDEST PUSH1 0x5 PUSH1 0x20 MSTORE DUP1 PUSH1 0x0 MSTORE PUSH1 0x40 PUSH1 0x0 KECCAK256 PUSH1 0x0 SWAP2 POP SWAP1 POP DUP1 SLOAD PUSH2 0x2059 SWAP1 PUSH2 0x3798 JUMP JUMPDEST DUP1 PUSH1 0x1F ADD PUSH1 0x20 DUP1 SWAP2 DIV MUL PUSH1 0x20 ADD PUSH1 0x40 MLOAD SWAP1 DUP2 ADD PUSH1 0x40 MSTORE DUP1 SWAP3 SWAP2 SWAP1 DUP2 DUP2 MSTORE PUSH1 0x20 ADD DUP3 DUP1 SLOAD PUSH2 0x2085 SWAP1 PUSH2 0x3798 JUMP JUMPDEST DUP1 ISZERO PUSH2 0x20D2 JUMPI DUP1 PUSH1 0x1F LT PUSH2 0x20A7 JUMPI PUSH2 0x100 DUP1 DUP4 SLOAD DIV MUL DUP4 MSTORE SWAP2 PUSH1 0x20 ADD SWAP2 PUSH2 0x20D2 JUMP JUMPDEST DUP3 ADD SWAP2 SWAP1 PUSH1 0x0 MSTORE PUSH1 0x20 PUSH1 0x0 KECCAK256 SWAP1 JUMPDEST DUP2 SLOAD DUP2 MSTORE SWAP1 PUSH1 0x1 ADD SWAP1 PUSH1 0x20 ADD DUP1 DUP4 GT PUSH2 0x20B5 JUMPI DUP3 SWAP1 SUB PUSH1 0x1F AND DUP3 ADD SWAP2 JUMPDEST POP POP POP POP POP DUP2 JUMP JUMPDEST PUSH1 0xA PUSH1 0x0 SWAP1 SLOAD SWAP1 PUSH2 0x100 EXP SWAP1 DIV PUSH20 0xFFFFFFFFFFFFFFFFFFFFFFFFFFFFFFFFFFFFFFFF AND PUSH20 0xFFFFFFFFFFFFFFFFFFFFFFFFFFFFFFFFFFFFFFFF AND CALLER PUSH20 0xFFFFFFFFFFFFFFFFFFFFFFFFFFFFFFFFFFFFFFFF AND EQ PUSH2 0x216A JUMPI PUSH1 0x40 MLOAD PUSH32 0x8C379A000000000000000000000000000000000000000000000000000000000 DUP2 MSTORE PUSH1 0x4 ADD PUSH2 0x2161 SWAP1 PUSH2 0x353A JUMP JUMPDEST PUSH1 0x40 MLOAD DUP1 SWAP2 SUB SWAP1 REVERT JUMPDEST PUSH1 0x0 PUSH20 0xFFFFFFFFFFFFFFFFFFFFFFFFFFFFFFFFFFFFFFFF AND DUP3 PUSH20 0xFFFFFFFFFFFFFFFFFFFFFFFFFFFFFFFFFFFFFFFF AND EQ ISZERO PUSH2 0x21DA JUMPI PUSH1 0x40 MLOAD PUSH32 0x8C379A000000000000000000000000000000000000000000000000000000000 DUP2 MSTORE PUSH1 0x4 ADD PUSH2 0x21D1 SWAP1 PUSH2 0x34BA JUMP JUMPDEST PUSH1 0x40 MLOAD DUP1 SWAP2 SUB SWAP1 REVERT JUMPDEST DUP1 ISZERO PUSH2 0x2280 JUMPI DUP2 PUSH1 0xA PUSH1 0x0 PUSH2 0x100 EXP DUP2 SLOAD DUP2 PUSH20 0xFFFFFFFFFFFFFFFFFFFFFFFFFFFFFFFFFFFFFFFF MUL NOT AND SWAP1 DUP4 PUSH20 0xFFFFFFFFFFFFFFFFFFFFFFFFFFFFFFFFFFFFFFFF AND MUL OR SWAP1 SSTORE POP DUP2 PUSH20 0xFFFFFFFFFFFFFFFFFFFFFFFFFFFFFFFFFFFFFFFF AND CALLER PUSH20 0xFFFFFFFFFFFFFFFFFFFFFFFFFFFFFFFFFFFFFFFF AND PUSH32 0x5BB496B3F951B55D3A1D8E479725A4D25BDC7644FC355F0B71C540354820A1C5 PUSH1 0x40 MLOAD PUSH1 0x40 MLOAD DUP1 SWAP2 SUB SWAP1 LOG3 PUSH2 0x231C JUMP JUMPDEST DUP2 PUSH1 0xB PUSH1 0x0 PUSH2 0x100 EXP DUP2 SLOAD DUP2 PUSH20 0xFFFFFFFFFFFFFFFFFFFFFFFFFFFFFFFFFFFFFFFF MUL NOT AND SWAP1 DUP4 PUSH20 0xFFFFFFFFFFFFFFFFFFFFFFFFFFFFFFFFFFFFFFFF AND MUL OR SWAP1 SSTORE POP DUP2 PUSH20 0xFFFFFFFFFFFFFFFFFFFFFFFFFFFFFFFFFFFFFFFF AND CALLER PUSH20 0xFFFFFFFFFFFFFFFFFFFFFFFFFFFFFFFFFFFFFFFF AND PUSH32 0x87F5C8846F4C51400FA448CFB84EDCEC5CC0F333B6D20A5B903E050823DCB667 PUSH1 0x40 MLOAD PUSH1 0x40 MLOAD DUP1 SWAP2 SUB SWAP1 LOG3 JUMPDEST POP POP JUMP JUMPDEST PUSH1 0xA PUSH1 0x0 SWAP1 SLOAD SWAP1 PUSH2 0x100 EXP SWAP1 DIV PUSH20 0xFFFFFFFFFFFFFFFFFFFFFFFFFFFFFFFFFFFFFFFF AND PUSH20 0xFFFFFFFFFFFFFFFFFFFFFFFFFFFFFFFFFFFFFFFF AND CALLER PUSH20 0xFFFFFFFFFFFFFFFFFFFFFFFFFFFFFFFFFFFFFFFF AND EQ PUSH2 0x23B0 JUMPI PUSH1 0x40 MLOAD PUSH32 0x8C379A000000000000000000000000000000000000000000000000000000000 DUP2 MSTORE PUSH1 0x4 ADD PUSH2 0x23A7 SWAP1 PUSH2 0x353A JUMP JUMPDEST PUSH1 0x40 MLOAD DUP1 SWAP2 SUB SWAP1 REVERT JUMPDEST PUSH2 0x23C0 DUP3 PUSH1 0x1 PUSH1 0x2 SLOAD ADD DUP4 PUSH2 0x25BD JUMP JUMPDEST POP POP JUMP JUMPDEST PUSH1 0xC PUSH1 0x20 MSTORE DUP1 PUSH1 0x0 MSTORE PUSH1 0x40 PUSH1 0x0 KECCAK256 PUSH1 0x0 SWAP2 POP SLOAD SWAP1 PUSH2 0x100 EXP SWAP1 DIV PUSH1 0xFF AND DUP2 JUMP JUMPDEST PUSH1 0xB PUSH1 0x0 SWAP1 SLOAD SWAP1 PUSH2 0x100 EXP SWAP1 DIV PUSH20 0xFFFFFFFFFFFFFFFFFFFFFFFFFFFFFFFFFFFFFFFF AND DUP2 JUMP JUMPDEST PUSH1 0x7 PUSH1 0x20 MSTORE DUP2 PUSH1 0x0 MSTORE PUSH1 0x40 PUSH1 0x0 KECCAK256 PUSH1 0x20 MSTORE DUP1 PUSH1 0x0 MSTORE PUSH1 0x40 PUSH1 0x0 KECCAK256 PUSH1 0x0 SWAP2 POP SWAP2 POP SWAP1 SLOAD SWAP1 PUSH2 0x100 EXP SWAP1 DIV PUSH1 0xFF AND DUP2 JUMP JUMPDEST PUSH1 0x0 PUSH32 0x8B73C3C69BB8FE3D512ECC4CF759CC79239F7B179B0FFACAA9A75D522B39400F PUSH1 0x0 PUSH1 0x40 MLOAD PUSH2 0x246B SWAP2 SWAP1 PUSH2 0x31EF JUMP JUMPDEST PUSH1 0x40 MLOAD DUP1 SWAP2 SUB SWAP1 KECCAK256 PUSH1 0x40 MLOAD DUP1 PUSH1 0x40 ADD PUSH1 0x40 MSTORE DUP1 PUSH1 0x1 DUP2 MSTORE PUSH1 0x20 ADD PUSH32 0x3100000000000000000000000000000000000000000000000000000000000000 DUP2 MSTORE POP DUP1 MLOAD SWAP1 PUSH1 0x20 ADD KECCAK256 CHAINID ADDRESS PUSH1 0x40 MLOAD PUSH1 0x20 ADD PUSH2 0x24C6 SWAP6 SWAP5 SWAP4 SWAP3 SWAP2 SWAP1 PUSH2 0x3380 JUMP JUMPDEST PUSH1 0x40 MLOAD PUSH1 0x20 DUP2 DUP4 SUB SUB DUP2 MSTORE SWAP1 PUSH1 0x40 MSTORE DUP1 MLOAD SWAP1 PUSH1 0x20 ADD KECCAK256 SWAP1 POP SWAP1 JUMP JUMPDEST PUSH1 0x0 DUP1 DUP3 SWAP1 POP PUSH1 0x0 JUMPDEST DUP6 MLOAD DUP2 LT ISZERO PUSH2 0x25AF JUMPI PUSH1 0x0 DUP7 DUP3 DUP2 MLOAD DUP2 LT PUSH2 0x252E JUMPI PUSH32 0x4E487B7100000000000000000000000000000000000000000000000000000000 PUSH1 0x0 MSTORE PUSH1 0x32 PUSH1 0x4 MSTORE PUSH1 0x24 PUSH1 0x0 REVERT JUMPDEST PUSH1 0x20 MUL PUSH1 0x20 ADD ADD MLOAD SWAP1 POP DUP1 DUP4 GT PUSH2 0x256F JUMPI DUP3 DUP2 PUSH1 0x40 MLOAD PUSH1 0x20 ADD PUSH2 0x2552 SWAP3 SWAP2 SWAP1 PUSH2 0x31AC JUMP JUMPDEST PUSH1 0x40 MLOAD PUSH1 0x20 DUP2 DUP4 SUB SUB DUP2 MSTORE SWAP1 PUSH1 0x40 MSTORE DUP1 MLOAD SWAP1 PUSH1 0x20 ADD KECCAK256 SWAP3 POP PUSH2 0x259B JUMP JUMPDEST DUP1 DUP4 PUSH1 0x40 MLOAD PUSH1 0x20 ADD PUSH2 0x2582 SWAP3 SWAP2 SWAP1 PUSH2 0x31AC JUMP JUMPDEST PUSH1 0x40 MLOAD PUSH1 0x20 DUP2 DUP4 SUB SUB DUP2 MSTORE SWAP1 PUSH1 0x40 MSTORE DUP1 MLOAD SWAP1 PUSH1 0x20 ADD KECCAK256 SWAP3 POP JUMPDEST POP DUP1 DUP1 PUSH2 0x25A7 SWAP1 PUSH2 0x37FB JUMP JUMPDEST SWAP2 POP POP PUSH2 0x24EA JUMP JUMPDEST POP DUP4 DUP2 EQ SWAP2 POP POP SWAP4 SWAP3 POP POP POP JUMP JUMPDEST PUSH1 0x0 PUSH20 0xFFFFFFFFFFFFFFFFFFFFFFFFFFFFFFFFFFFFFFFF AND PUSH1 0x4 PUSH1 0x0 DUP5 DUP2 MSTORE PUSH1 0x20 ADD SWAP1 DUP2 MSTORE PUSH1 0x20 ADD PUSH1 0x0 KECCAK256 PUSH1 0x0 SWAP1 SLOAD SWAP1 PUSH2 0x100 EXP SWAP1 DIV PUSH20 0xFFFFFFFFFFFFFFFFFFFFFFFFFFFFFFFFFFFFFFFF AND PUSH20 0xFFFFFFFFFFFFFFFFFFFFFFFFFFFFFFFFFFFFFFFF AND EQ PUSH2 0x265F JUMPI PUSH1 0x40 MLOAD PUSH32 0x8C379A000000000000000000000000000000000000000000000000000000000 DUP2 MSTORE PUSH1 0x4 ADD PUSH2 0x2656 SWAP1 PUSH2 0x357A JUMP JUMPDEST PUSH1 0x40 MLOAD DUP1 SWAP2 SUB SWAP1 REVERT JUMPDEST PUSH1 0x2 PUSH1 0x0 DUP2 SLOAD DUP1 SWAP3 SWAP2 SWAP1 PUSH1 0x1 ADD SWAP2 SWAP1 POP SSTORE POP PUSH1 0x3 PUSH1 0x0 DUP5 PUSH20 0xFFFFFFFFFFFFFFFFFFFFFFFFFFFFFFFFFFFFFFFF AND PUSH20 0xFFFFFFFFFFFFFFFFFFFFFFFFFFFFFFFFFFFFFFFF AND DUP2 MSTORE PUSH1 0x20 ADD SWAP1 DUP2 MSTORE PUSH1 0x20 ADD PUSH1 0x0 KECCAK256 PUSH1 0x0 DUP2 SLOAD DUP1 SWAP3 SWAP2 SWAP1 PUSH1 0x1 ADD SWAP2 SWAP1 POP SSTORE POP DUP3 PUSH1 0x4 PUSH1 0x0 DUP5 DUP2 MSTORE PUSH1 0x20 ADD SWAP1 DUP2 MSTORE PUSH1 0x20 ADD PUSH1 0x0 KECCAK256 PUSH1 0x0 PUSH2 0x100 EXP DUP2 SLOAD DUP2 PUSH20 0xFFFFFFFFFFFFFFFFFFFFFFFFFFFFFFFFFFFFFFFF MUL NOT AND SWAP1 DUP4 PUSH20 0xFFFFFFFFFFFFFFFFFFFFFFFFFFFFFFFFFFFFFFFF AND MUL OR SWAP1 SSTORE POP DUP1 PUSH1 0x5 PUSH1 0x0 DUP5 DUP2 MSTORE PUSH1 0x20 ADD SWAP1 DUP2 MSTORE PUSH1 0x20 ADD PUSH1 0x0 KECCAK256 SWAP1 DUP1 MLOAD SWAP1 PUSH1 0x20 ADD SWAP1 PUSH2 0x2739 SWAP3 SWAP2 SWAP1 PUSH2 0x279B JUMP JUMPDEST POP DUP2 DUP4 PUSH20 0xFFFFFFFFFFFFFFFFFFFFFFFFFFFFFFFFFFFFFFFF AND PUSH1 0x0 PUSH20 0xFFFFFFFFFFFFFFFFFFFFFFFFFFFFFFFFFFFFFFFF AND PUSH32 0xDDF252AD1BE2C89B69C2B068FC378DAA952BA7F163C4A11628F55A4DF523B3EF PUSH1 0x40 MLOAD PUSH1 0x40 MLOAD DUP1 SWAP2 SUB SWAP1 LOG4 POP POP POP JUMP JUMPDEST DUP3 DUP1 SLOAD PUSH2 0x27A7 SWAP1 PUSH2 0x3798 JUMP JUMPDEST SWAP1 PUSH1 0x0 MSTORE PUSH1 0x20 PUSH1 0x0 KECCAK256 SWAP1 PUSH1 0x1F ADD PUSH1 0x20 SWAP1 DIV DUP2 ADD SWAP3 DUP3 PUSH2 0x27C9 JUMPI PUSH1 0x0 DUP6 SSTORE PUSH2 0x2810 JUMP JUMPDEST DUP3 PUSH1 0x1F LT PUSH2 0x27E2 JUMPI DUP1 MLOAD PUSH1 0xFF NOT AND DUP4 DUP1 ADD OR DUP6 SSTORE PUSH2 0x2810 JUMP JUMPDEST DUP3 DUP1 ADD PUSH1 0x1 ADD DUP6 SSTORE DUP3 ISZERO PUSH2 0x2810 JUMPI SWAP2 DUP3 ADD JUMPDEST DUP3 DUP2 GT ISZERO PUSH2 0x280F JUMPI DUP3 MLOAD DUP3 SSTORE SWAP2 PUSH1 0x20 ADD SWAP2 SWAP1 PUSH1 0x1 ADD SWAP1 PUSH2 0x27F4 JUMP JUMPDEST JUMPDEST POP SWAP1 POP PUSH2 0x281D SWAP2 SWAP1 PUSH2 0x2821 JUMP JUMPDEST POP SWAP1 JUMP JUMPDEST JUMPDEST DUP1 DUP3 GT ISZERO PUSH2 0x283A JUMPI PUSH1 0x0 DUP2 PUSH1 0x0 SWAP1 SSTORE POP PUSH1 0x1 ADD PUSH2 0x2822 JUMP JUMPDEST POP SWAP1 JUMP JUMPDEST PUSH1 0x0 PUSH2 0x2851 PUSH2 0x284C DUP5 PUSH2 0x35DA JUMP JUMPDEST PUSH2 0x35B5 JUMP JUMPDEST SWAP1 POP DUP1 DUP4 DUP3 MSTORE PUSH1 0x20 DUP3 ADD SWAP1 POP DUP3 DUP6 PUSH1 0x20 DUP7 MUL DUP3 ADD GT ISZERO PUSH2 0x2870 JUMPI PUSH1 0x0 DUP1 REVERT JUMPDEST PUSH1 0x0 JUMPDEST DUP6 DUP2 LT ISZERO PUSH2 0x28A0 JUMPI DUP2 PUSH2 0x2886 DUP9 DUP3 PUSH2 0x297A JUMP JUMPDEST DUP5 MSTORE PUSH1 0x20 DUP5 ADD SWAP4 POP PUSH1 0x20 DUP4 ADD SWAP3 POP POP PUSH1 0x1 DUP2 ADD SWAP1 POP PUSH2 0x2873 JUMP JUMPDEST POP POP POP SWAP4 SWAP3 POP POP POP JUMP JUMPDEST PUSH1 0x0 PUSH2 0x28BD PUSH2 0x28B8 DUP5 PUSH2 0x3606 JUMP JUMPDEST PUSH2 0x35B5 JUMP JUMPDEST SWAP1 POP DUP3 DUP2 MSTORE PUSH1 0x20 DUP2 ADD DUP5 DUP5 DUP5 ADD GT ISZERO PUSH2 0x28D5 JUMPI PUSH1 0x0 DUP1 REVERT JUMPDEST PUSH2 0x28E0 DUP5 DUP3 DUP6 PUSH2 0x3756 JUMP JUMPDEST POP SWAP4 SWAP3 POP POP POP JUMP JUMPDEST PUSH1 0x0 PUSH2 0x28FB PUSH2 0x28F6 DUP5 PUSH2 0x3637 JUMP JUMPDEST PUSH2 0x35B5 JUMP JUMPDEST SWAP1 POP DUP3 DUP2 MSTORE PUSH1 0x20 DUP2 ADD DUP5 DUP5 DUP5 ADD GT ISZERO PUSH2 0x2913 JUMPI PUSH1 0x0 DUP1 REVERT JUMPDEST PUSH2 0x291E DUP5 DUP3 DUP6 PUSH2 0x3756 JUMP JUMPDEST POP SWAP4 SWAP3 POP POP POP JUMP JUMPDEST PUSH1 0x0 DUP2 CALLDATALOAD SWAP1 POP PUSH2 0x2935 DUP2 PUSH2 0x3B09 JUMP JUMPDEST SWAP3 SWAP2 POP POP JUMP JUMPDEST PUSH1 0x0 DUP3 PUSH1 0x1F DUP4 ADD SLT PUSH2 0x294C JUMPI PUSH1 0x0 DUP1 REVERT JUMPDEST DUP2 CALLDATALOAD PUSH2 0x295C DUP5 DUP3 PUSH1 0x20 DUP7 ADD PUSH2 0x283E JUMP JUMPDEST SWAP2 POP POP SWAP3 SWAP2 POP POP JUMP JUMPDEST PUSH1 0x0 DUP2 CALLDATALOAD SWAP1 POP PUSH2 0x2974 DUP2 PUSH2 0x3B20 JUMP JUMPDEST SWAP3 SWAP2 POP POP JUMP JUMPDEST PUSH1 0x0 DUP2 CALLDATALOAD SWAP1 POP PUSH2 0x2989 DUP2 PUSH2 0x3B37 JUMP JUMPDEST SWAP3 SWAP2 POP POP JUMP JUMPDEST PUSH1 0x0 DUP2 CALLDATALOAD SWAP1 POP PUSH2 0x299E DUP2 PUSH2 0x3B4E JUMP JUMPDEST SWAP3 SWAP2 POP POP JUMP JUMPDEST PUSH1 0x0 DUP2 MLOAD SWAP1 POP PUSH2 0x29B3 DUP2 PUSH2 0x3B4E JUMP JUMPDEST SWAP3 SWAP2 POP POP JUMP JUMPDEST PUSH1 0x0 DUP3 PUSH1 0x1F DUP4 ADD SLT PUSH2 0x29CA JUMPI PUSH1 0x0 DUP1 REVERT JUMPDEST DUP2 CALLDATALOAD PUSH2 0x29DA DUP5 DUP3 PUSH1 0x20 DUP7 ADD PUSH2 0x28AA JUMP JUMPDEST SWAP2 POP POP SWAP3 SWAP2 POP POP JUMP JUMPDEST PUSH1 0x0 DUP3 PUSH1 0x1F DUP4 ADD SLT PUSH2 0x29F4 JUMPI PUSH1 0x0 DUP1 REVERT JUMPDEST DUP2 CALLDATALOAD PUSH2 0x2A04 DUP5 DUP3 PUSH1 0x20 DUP7 ADD PUSH2 0x28E8 JUMP JUMPDEST SWAP2 POP POP SWAP3 SWAP2 POP POP JUMP JUMPDEST PUSH1 0x0 DUP2 CALLDATALOAD SWAP1 POP PUSH2 0x2A1C DUP2 PUSH2 0x3B65 JUMP JUMPDEST SWAP3 SWAP2 POP POP JUMP JUMPDEST PUSH1 0x0 DUP2 CALLDATALOAD SWAP1 POP PUSH2 0x2A31 DUP2 PUSH2 0x3B7C JUMP JUMPDEST SWAP3 SWAP2 POP POP JUMP JUMPDEST PUSH1 0x0 PUSH1 0x20 DUP3 DUP5 SUB SLT ISZERO PUSH2 0x2A49 JUMPI PUSH1 0x0 DUP1 REVERT JUMPDEST PUSH1 0x0 PUSH2 0x2A57 DUP5 DUP3 DUP6 ADD PUSH2 0x2926 JUMP JUMPDEST SWAP2 POP POP SWAP3 SWAP2 POP POP JUMP JUMPDEST PUSH1 0x0 DUP1 PUSH1 0x40 DUP4 DUP6 SUB SLT ISZERO PUSH2 0x2A73 JUMPI PUSH1 0x0 DUP1 REVERT JUMPDEST PUSH1 0x0 PUSH2 0x2A81 DUP6 DUP3 DUP7 ADD PUSH2 0x2926 JUMP JUMPDEST SWAP3 POP POP PUSH1 0x20 PUSH2 0x2A92 DUP6 DUP3 DUP7 ADD PUSH2 0x2926 JUMP JUMPDEST SWAP2 POP POP SWAP3 POP SWAP3 SWAP1 POP JUMP JUMPDEST PUSH1 0x0 DUP1 PUSH1 0x0 PUSH1 0x60 DUP5 DUP7 SUB SLT ISZERO PUSH2 0x2AB1 JUMPI PUSH1 0x0 DUP1 REVERT JUMPDEST PUSH1 0x0 PUSH2 0x2ABF DUP7 DUP3 DUP8 ADD PUSH2 0x2926 JUMP JUMPDEST SWAP4 POP POP PUSH1 0x20 PUSH2 0x2AD0 DUP7 DUP3 DUP8 ADD PUSH2 0x2926 JUMP JUMPDEST SWAP3 POP POP PUSH1 0x40 PUSH2 0x2AE1 DUP7 DUP3 DUP8 ADD PUSH2 0x2A0D JUMP JUMPDEST SWAP2 POP POP SWAP3 POP SWAP3 POP SWAP3 JUMP JUMPDEST PUSH1 0x0 DUP1 PUSH1 0x0 DUP1 PUSH1 0x80 DUP6 DUP8 SUB SLT ISZERO PUSH2 0x2B01 JUMPI PUSH1 0x0 DUP1 REVERT JUMPDEST PUSH1 0x0 PUSH2 0x2B0F DUP8 DUP3 DUP9 ADD PUSH2 0x2926 JUMP JUMPDEST SWAP5 POP POP PUSH1 0x20 PUSH2 0x2B20 DUP8 DUP3 DUP9 ADD PUSH2 0x2926 JUMP JUMPDEST SWAP4 POP POP PUSH1 0x40 PUSH2 0x2B31 DUP8 DUP3 DUP9 ADD PUSH2 0x2A0D JUMP JUMPDEST SWAP3 POP POP PUSH1 0x60 DUP6 ADD CALLDATALOAD PUSH8 0xFFFFFFFFFFFFFFFF DUP2 GT ISZERO PUSH2 0x2B4E JUMPI PUSH1 0x0 DUP1 REVERT JUMPDEST PUSH2 0x2B5A DUP8 DUP3 DUP9 ADD PUSH2 0x29B9 JUMP JUMPDEST SWAP2 POP POP SWAP3 SWAP6 SWAP2 SWAP5 POP SWAP3 POP JUMP JUMPDEST PUSH1 0x0 DUP1 PUSH1 0x0 DUP1 PUSH1 0x0 DUP1 PUSH1 0xC0 DUP8 DUP10 SUB SLT ISZERO PUSH2 0x2B7F JUMPI PUSH1 0x0 DUP1 REVERT JUMPDEST PUSH1 0x0 PUSH2 0x2B8D DUP10 DUP3 DUP11 ADD PUSH2 0x2926 JUMP JUMPDEST SWAP7 POP POP PUSH1 0x20 PUSH2 0x2B9E DUP10 DUP3 DUP11 ADD PUSH2 0x2926 JUMP JUMPDEST SWAP6 POP POP PUSH1 0x40 PUSH2 0x2BAF DUP10 DUP3 DUP11 ADD PUSH2 0x2A0D JUMP JUMPDEST SWAP5 POP POP PUSH1 0x60 PUSH2 0x2BC0 DUP10 DUP3 DUP11 ADD PUSH2 0x2A22 JUMP JUMPDEST SWAP4 POP POP PUSH1 0x80 PUSH2 0x2BD1 DUP10 DUP3 DUP11 ADD PUSH2 0x297A JUMP JUMPDEST SWAP3 POP POP PUSH1 0xA0 PUSH2 0x2BE2 DUP10 DUP3 DUP11 ADD PUSH2 0x297A JUMP JUMPDEST SWAP2 POP POP SWAP3 SWAP6 POP SWAP3 SWAP6 POP SWAP3 SWAP6 JUMP JUMPDEST PUSH1 0x0 DUP1 PUSH1 0x40 DUP4 DUP6 SUB SLT ISZERO PUSH2 0x2C02 JUMPI PUSH1 0x0 DUP1 REVERT JUMPDEST PUSH1 0x0 PUSH2 0x2C10 DUP6 DUP3 DUP7 ADD PUSH2 0x2926 JUMP JUMPDEST SWAP3 POP POP PUSH1 0x20 PUSH2 0x2C21 DUP6 DUP3 DUP7 ADD PUSH2 0x2965 JUMP JUMPDEST SWAP2 POP POP SWAP3 POP SWAP3 SWAP1 POP JUMP JUMPDEST PUSH1 0x0 DUP1 PUSH1 0x40 DUP4 DUP6 SUB SLT ISZERO PUSH2 0x2C3E JUMPI PUSH1 0x0 DUP1 REVERT JUMPDEST PUSH1 0x0 PUSH2 0x2C4C DUP6 DUP3 DUP7 ADD PUSH2 0x2926 JUMP JUMPDEST SWAP3 POP POP PUSH1 0x20 DUP4 ADD CALLDATALOAD PUSH8 0xFFFFFFFFFFFFFFFF DUP2 GT ISZERO PUSH2 0x2C69 JUMPI PUSH1 0x0 DUP1 REVERT JUMPDEST PUSH2 0x2C75 DUP6 DUP3 DUP7 ADD PUSH2 0x29E3 JUMP JUMPDEST SWAP2 POP POP SWAP3 POP SWAP3 SWAP1 POP JUMP JUMPDEST PUSH1 0x0 DUP1 PUSH1 0x40 DUP4 DUP6 SUB SLT ISZERO PUSH2 0x2C92 JUMPI PUSH1 0x0 DUP1 REVERT JUMPDEST PUSH1 0x0 PUSH2 0x2CA0 DUP6 DUP3 DUP7 ADD PUSH2 0x2926 JUMP JUMPDEST SWAP3 POP POP PUSH1 0x20 PUSH2 0x2CB1 DUP6 DUP3 DUP7 ADD PUSH2 0x2A0D JUMP JUMPDEST SWAP2 POP POP SWAP3 POP SWAP3 SWAP1 POP JUMP JUMPDEST PUSH1 0x0 DUP1 PUSH1 0x0 DUP1 PUSH1 0x0 DUP1 PUSH1 0xC0 DUP8 DUP10 SUB SLT ISZERO PUSH2 0x2CD4 JUMPI PUSH1 0x0 DUP1 REVERT JUMPDEST PUSH1 0x0 PUSH2 0x2CE2 DUP10 DUP3 DUP11 ADD PUSH2 0x2926 JUMP JUMPDEST SWAP7 POP POP PUSH1 0x20 PUSH2 0x2CF3 DUP10 DUP3 DUP11 ADD PUSH2 0x2A0D JUMP JUMPDEST SWAP6 POP POP PUSH1 0x40 PUSH2 0x2D04 DUP10 DUP3 DUP11 ADD PUSH2 0x2A0D JUMP JUMPDEST SWAP5 POP POP PUSH1 0x60 PUSH2 0x2D15 DUP10 DUP3 DUP11 ADD PUSH2 0x2A22 JUMP JUMPDEST SWAP4 POP POP PUSH1 0x80 PUSH2 0x2D26 DUP10 DUP3 DUP11 ADD PUSH2 0x297A JUMP JUMPDEST SWAP3 POP POP PUSH1 0xA0 PUSH2 0x2D37 DUP10 DUP3 DUP11 ADD PUSH2 0x297A JUMP JUMPDEST SWAP2 POP POP SWAP3 SWAP6 POP SWAP3 SWAP6 POP SWAP3 SWAP6 JUMP JUMPDEST PUSH1 0x0 PUSH1 0x20 DUP3 DUP5 SUB SLT ISZERO PUSH2 0x2D56 JUMPI PUSH1 0x0 DUP1 REVERT JUMPDEST PUSH1 0x0 DUP3 ADD CALLDATALOAD PUSH8 0xFFFFFFFFFFFFFFFF DUP2 GT ISZERO PUSH2 0x2D70 JUMPI PUSH1 0x0 DUP1 REVERT JUMPDEST PUSH2 0x2D7C DUP5 DUP3 DUP6 ADD PUSH2 0x293B JUMP JUMPDEST SWAP2 POP POP SWAP3 SWAP2 POP POP JUMP JUMPDEST PUSH1 0x0 PUSH1 0x20 DUP3 DUP5 SUB SLT ISZERO PUSH2 0x2D97 JUMPI PUSH1 0x0 DUP1 REVERT JUMPDEST PUSH1 0x0 PUSH2 0x2DA5 DUP5 DUP3 DUP6 ADD PUSH2 0x2965 JUMP JUMPDEST SWAP2 POP POP SWAP3 SWAP2 POP POP JUMP JUMPDEST PUSH1 0x0 PUSH1 0x20 DUP3 DUP5 SUB SLT ISZERO PUSH2 0x2DC0 JUMPI PUSH1 0x0 DUP1 REVERT JUMPDEST PUSH1 0x0 PUSH2 0x2DCE DUP5 DUP3 DUP6 ADD PUSH2 0x297A JUMP JUMPDEST SWAP2 POP POP SWAP3 SWAP2 POP POP JUMP JUMPDEST PUSH1 0x0 PUSH1 0x20 DUP3 DUP5 SUB SLT ISZERO PUSH2 0x2DE9 JUMPI PUSH1 0x0 DUP1 REVERT JUMPDEST PUSH1 0x0 PUSH2 0x2DF7 DUP5 DUP3 DUP6 ADD PUSH2 0x298F JUMP JUMPDEST SWAP2 POP POP SWAP3 SWAP2 POP POP JUMP JUMPDEST PUSH1 0x0 PUSH1 0x20 DUP3 DUP5 SUB SLT ISZERO PUSH2 0x2E12 JUMPI PUSH1 0x0 DUP1 REVERT JUMPDEST PUSH1 0x0 PUSH2 0x2E20 DUP5 DUP3 DUP6 ADD PUSH2 0x29A4 JUMP JUMPDEST SWAP2 POP POP SWAP3 SWAP2 POP POP JUMP JUMPDEST PUSH1 0x0 PUSH1 0x20 DUP3 DUP5 SUB SLT ISZERO PUSH2 0x2E3B JUMPI PUSH1 0x0 DUP1 REVERT JUMPDEST PUSH1 0x0 PUSH2 0x2E49 DUP5 DUP3 DUP6 ADD PUSH2 0x2A0D JUMP JUMPDEST SWAP2 POP POP SWAP3 SWAP2 POP POP JUMP JUMPDEST PUSH2 0x2E5B DUP2 PUSH2 0x36CB JUMP JUMPDEST DUP3 MSTORE POP POP JUMP JUMPDEST PUSH2 0x2E72 PUSH2 0x2E6D DUP3 PUSH2 0x36CB JUMP JUMPDEST PUSH2 0x3844 JUMP JUMPDEST DUP3 MSTORE POP POP JUMP JUMPDEST PUSH2 0x2E81 DUP2 PUSH2 0x36DD JUMP JUMPDEST DUP3 MSTORE POP POP JUMP JUMPDEST PUSH2 0x2E90 DUP2 PUSH2 0x36E9 JUMP JUMPDEST DUP3 MSTORE POP POP JUMP JUMPDEST PUSH2 0x2EA7 PUSH2 0x2EA2 DUP3 PUSH2 0x36E9 JUMP JUMPDEST PUSH2 0x3856 JUMP JUMPDEST DUP3 MSTORE POP POP JUMP JUMPDEST PUSH1 0x0 PUSH2 0x2EB8 DUP3 PUSH2 0x367D JUMP JUMPDEST PUSH2 0x2EC2 DUP2 DUP6 PUSH2 0x3693 JUMP JUMPDEST SWAP4 POP PUSH2 0x2ED2 DUP2 DUP6 PUSH1 0x20 DUP7 ADD PUSH2 0x3765 JUMP JUMPDEST PUSH2 0x2EDB DUP2 PUSH2 0x38FF JUMP JUMPDEST DUP5 ADD SWAP2 POP POP SWAP3 SWAP2 POP POP JUMP JUMPDEST PUSH1 0x0 PUSH2 0x2EF1 DUP3 PUSH2 0x367D JUMP JUMPDEST PUSH2 0x2EFB DUP2 DUP6 PUSH2 0x36A4 JUMP JUMPDEST SWAP4 POP PUSH2 0x2F0B DUP2 DUP6 PUSH1 0x20 DUP7 ADD PUSH2 0x3765 JUMP JUMPDEST DUP1 DUP5 ADD SWAP2 POP POP SWAP3 SWAP2 POP POP JUMP JUMPDEST PUSH1 0x0 DUP2 SLOAD PUSH2 0x2F24 DUP2 PUSH2 0x3798 JUMP JUMPDEST PUSH2 0x2F2E DUP2 DUP7 PUSH2 0x36A4 JUMP JUMPDEST SWAP5 POP PUSH1 0x1 DUP3 AND PUSH1 0x0 DUP2 EQ PUSH2 0x2F49 JUMPI PUSH1 0x1 DUP2 EQ PUSH2 0x2F5A JUMPI PUSH2 0x2F8D JUMP JUMPDEST PUSH1 0xFF NOT DUP4 AND DUP7 MSTORE DUP2 DUP7 ADD SWAP4 POP PUSH2 0x2F8D JUMP JUMPDEST PUSH2 0x2F63 DUP6 PUSH2 0x3668 JUMP JUMPDEST PUSH1 0x0 JUMPDEST DUP4 DUP2 LT ISZERO PUSH2 0x2F85 JUMPI DUP2 SLOAD DUP2 DUP10 ADD MSTORE PUSH1 0x1 DUP3 ADD SWAP2 POP PUSH1 0x20 DUP2 ADD SWAP1 POP PUSH2 0x2F66 JUMP JUMPDEST DUP4 DUP9 ADD SWAP6 POP POP POP JUMPDEST POP POP POP SWAP3 SWAP2 POP POP JUMP JUMPDEST PUSH1 0x0 PUSH2 0x2FA1 DUP3 PUSH2 0x3688 JUMP JUMPDEST PUSH2 0x2FAB DUP2 DUP6 PUSH2 0x36AF JUMP JUMPDEST SWAP4 POP PUSH2 0x2FBB DUP2 DUP6 PUSH1 0x20 DUP7 ADD PUSH2 0x3765 JUMP JUMPDEST PUSH2 0x2FC4 DUP2 PUSH2 0x38FF JUMP JUMPDEST DUP5 ADD SWAP2 POP POP SWAP3 SWAP2 POP POP JUMP JUMPDEST PUSH1 0x0 PUSH2 0x2FDC PUSH1 0x1C DUP4 PUSH2 0x36AF JUMP JUMPDEST SWAP2 POP PUSH2 0x2FE7 DUP3 PUSH2 0x391D JUMP JUMPDEST PUSH1 0x20 DUP3 ADD SWAP1 POP SWAP2 SWAP1 POP JUMP JUMPDEST PUSH1 0x0 PUSH2 0x2FFF PUSH1 0x2 DUP4 PUSH2 0x36C0 JUMP JUMPDEST SWAP2 POP PUSH2 0x300A DUP3 PUSH2 0x3946 JUMP JUMPDEST PUSH1 0x2 DUP3 ADD SWAP1 POP SWAP2 SWAP1 POP JUMP JUMPDEST PUSH1 0x0 PUSH2 0x3022 PUSH1 0x18 DUP4 PUSH2 0x36AF JUMP JUMPDEST SWAP2 POP PUSH2 0x302D DUP3 PUSH2 0x396F JUMP JUMPDEST PUSH1 0x20 DUP3 ADD SWAP1 POP SWAP2 SWAP1 POP JUMP JUMPDEST PUSH1 0x0 PUSH2 0x3045 PUSH1 0xC DUP4 PUSH2 0x36AF JUMP JUMPDEST SWAP2 POP PUSH2 0x3050 DUP3 PUSH2 0x3998 JUMP JUMPDEST PUSH1 0x20 DUP3 ADD SWAP1 POP SWAP2 SWAP1 POP JUMP JUMPDEST PUSH1 0x0 PUSH2 0x3068 PUSH1 0x18 DUP4 PUSH2 0x36AF JUMP JUMPDEST SWAP2 POP PUSH2 0x3073 DUP3 PUSH2 0x39C1 JUMP JUMPDEST PUSH1 0x20 DUP3 ADD SWAP1 POP SWAP2 SWAP1 POP JUMP JUMPDEST PUSH1 0x0 PUSH2 0x308B PUSH1 0xC DUP4 PUSH2 0x36AF JUMP JUMPDEST SWAP2 POP PUSH2 0x3096 DUP3 PUSH2 0x39EA JUMP JUMPDEST PUSH1 0x20 DUP3 ADD SWAP1 POP SWAP2 SWAP1 POP JUMP JUMPDEST PUSH1 0x0 PUSH2 0x30AE PUSH1 0xE DUP4 PUSH2 0x36AF JUMP JUMPDEST SWAP2 POP PUSH2 0x30B9 DUP3 PUSH2 0x3A13 JUMP JUMPDEST PUSH1 0x20 DUP3 ADD SWAP1 POP SWAP2 SWAP1 POP JUMP JUMPDEST PUSH1 0x0 PUSH2 0x30D1 PUSH1 0x13 DUP4 PUSH2 0x36AF JUMP JUMPDEST SWAP2 POP PUSH2 0x30DC DUP3 PUSH2 0x3A3C JUMP JUMPDEST PUSH1 0x20 DUP3 ADD SWAP1 POP SWAP2 SWAP1 POP JUMP JUMPDEST PUSH1 0x0 PUSH2 0x30F4 PUSH1 0x11 DUP4 PUSH2 0x36AF JUMP JUMPDEST SWAP2 POP PUSH2 0x30FF DUP3 PUSH2 0x3A65 JUMP JUMPDEST PUSH1 0x20 DUP3 ADD SWAP1 POP SWAP2 SWAP1 POP JUMP JUMPDEST PUSH1 0x0 PUSH2 0x3117 PUSH1 0x9 DUP4 PUSH2 0x36AF JUMP JUMPDEST SWAP2 POP PUSH2 0x3122 DUP3 PUSH2 0x3A8E JUMP JUMPDEST PUSH1 0x20 DUP3 ADD SWAP1 POP SWAP2 SWAP1 POP JUMP JUMPDEST PUSH1 0x0 PUSH2 0x313A PUSH1 0x17 DUP4 PUSH2 0x36AF JUMP JUMPDEST SWAP2 POP PUSH2 0x3145 DUP3 PUSH2 0x3AB7 JUMP JUMPDEST PUSH1 0x20 DUP3 ADD SWAP1 POP SWAP2 SWAP1 POP JUMP JUMPDEST PUSH1 0x0 PUSH2 0x315D PUSH1 0xE DUP4 PUSH2 0x36AF JUMP JUMPDEST SWAP2 POP PUSH2 0x3168 DUP3 PUSH2 0x3AE0 JUMP JUMPDEST PUSH1 0x20 DUP3 ADD SWAP1 POP SWAP2 SWAP1 POP JUMP JUMPDEST PUSH2 0x317C DUP2 PUSH2 0x373F JUMP JUMPDEST DUP3 MSTORE POP POP JUMP JUMPDEST PUSH2 0x318B DUP2 PUSH2 0x3749 JUMP JUMPDEST DUP3 MSTORE POP POP JUMP JUMPDEST PUSH1 0x0 PUSH2 0x319D DUP3 DUP5 PUSH2 0x2E61 JUMP JUMPDEST PUSH1 0x14 DUP3 ADD SWAP2 POP DUP2 SWAP1 POP SWAP3 SWAP2 POP POP JUMP JUMPDEST PUSH1 0x0 PUSH2 0x31B8 DUP3 DUP6 PUSH2 0x2E96 JUMP JUMPDEST PUSH1 0x20 DUP3 ADD SWAP2 POP PUSH2 0x31C8 DUP3 DUP5 PUSH2 0x2E96 JUMP JUMPDEST PUSH1 0x20 DUP3 ADD SWAP2 POP DUP2 SWAP1 POP SWAP4 SWAP3 POP POP POP JUMP JUMPDEST PUSH1 0x0 PUSH2 0x31E4 DUP3 DUP5 PUSH2 0x2EE6 JUMP JUMPDEST SWAP2 POP DUP2 SWAP1 POP SWAP3 SWAP2 POP POP JUMP JUMPDEST PUSH1 0x0 PUSH2 0x31FB DUP3 DUP5 PUSH2 0x2F17 JUMP JUMPDEST SWAP2 POP DUP2 SWAP1 POP SWAP3 SWAP2 POP POP JUMP JUMPDEST PUSH1 0x0 PUSH2 0x3211 DUP3 PUSH2 0x2FF2 JUMP JUMPDEST SWAP2 POP PUSH2 0x321D DUP3 DUP6 PUSH2 0x2E96 JUMP JUMPDEST PUSH1 0x20 DUP3 ADD SWAP2 POP PUSH2 0x322D DUP3 DUP5 PUSH2 0x2E96 JUMP JUMPDEST PUSH1 0x20 DUP3 ADD SWAP2 POP DUP2 SWAP1 POP SWAP4 SWAP3 POP POP POP JUMP JUMPDEST PUSH1 0x0 PUSH1 0x20 DUP3 ADD SWAP1 POP PUSH2 0x3252 PUSH1 0x0 DUP4 ADD DUP5 PUSH2 0x2E52 JUMP JUMPDEST SWAP3 SWAP2 POP POP JUMP JUMPDEST PUSH1 0x0 PUSH1 0x80 DUP3 ADD SWAP1 POP PUSH2 0x326D PUSH1 0x0 DUP4 ADD DUP8 PUSH2 0x2E52 JUMP JUMPDEST PUSH2 0x327A PUSH1 0x20 DUP4 ADD DUP7 PUSH2 0x2E52 JUMP JUMPDEST PUSH2 0x3287 PUSH1 0x40 DUP4 ADD DUP6 PUSH2 0x3173 JUMP JUMPDEST DUP2 DUP2 SUB PUSH1 0x60 DUP4 ADD MSTORE PUSH2 0x3299 DUP2 DUP5 PUSH2 0x2EAD JUMP JUMPDEST SWAP1 POP SWAP6 SWAP5 POP POP POP POP POP JUMP JUMPDEST PUSH1 0x0 PUSH1 0x20 DUP3 ADD SWAP1 POP PUSH2 0x32B9 PUSH1 0x0 DUP4 ADD DUP5 PUSH2 0x2E78 JUMP JUMPDEST SWAP3 SWAP2 POP POP JUMP JUMPDEST PUSH1 0x0 PUSH1 0x20 DUP3 ADD SWAP1 POP PUSH2 0x32D4 PUSH1 0x0 DUP4 ADD DUP5 PUSH2 0x2E87 JUMP JUMPDEST SWAP3 SWAP2 POP POP JUMP JUMPDEST PUSH1 0x0 PUSH1 0xA0 DUP3 ADD SWAP1 POP PUSH2 0x32EF PUSH1 0x0 DUP4 ADD DUP9 PUSH2 0x2E87 JUMP JUMPDEST PUSH2 0x32FC PUSH1 0x20 DUP4 ADD DUP8 PUSH2 0x2E52 JUMP JUMPDEST PUSH2 0x3309 PUSH1 0x40 DUP4 ADD DUP7 PUSH2 0x2E52 JUMP JUMPDEST PUSH2 0x3316 PUSH1 0x60 DUP4 ADD DUP6 PUSH2 0x3173 JUMP JUMPDEST PUSH2 0x3323 PUSH1 0x80 DUP4 ADD DUP5 PUSH2 0x3173 JUMP JUMPDEST SWAP7 SWAP6 POP POP POP POP POP POP JUMP JUMPDEST PUSH1 0x0 PUSH1 0xA0 DUP3 ADD SWAP1 POP PUSH2 0x3342 PUSH1 0x0 DUP4 ADD DUP9 PUSH2 0x2E87 JUMP JUMPDEST PUSH2 0x334F PUSH1 0x20 DUP4 ADD DUP8 PUSH2 0x2E52 JUMP JUMPDEST PUSH2 0x335C PUSH1 0x40 DUP4 ADD DUP7 PUSH2 0x3173 JUMP JUMPDEST PUSH2 0x3369 PUSH1 0x60 DUP4 ADD DUP6 PUSH2 0x3173 JUMP JUMPDEST PUSH2 0x3376 PUSH1 0x80 DUP4 ADD DUP5 PUSH2 0x3173 JUMP JUMPDEST SWAP7 SWAP6 POP POP POP POP POP POP JUMP JUMPDEST PUSH1 0x0 PUSH1 0xA0 DUP3 ADD SWAP1 POP PUSH2 0x3395 PUSH1 0x0 DUP4 ADD DUP9 PUSH2 0x2E87 JUMP JUMPDEST PUSH2 0x33A2 PUSH1 0x20 DUP4 ADD DUP8 PUSH2 0x2E87 JUMP JUMPDEST PUSH2 0x33AF PUSH1 0x40 DUP4 ADD DUP7 PUSH2 0x2E87 JUMP JUMPDEST PUSH2 0x33BC PUSH1 0x60 DUP4 ADD DUP6 PUSH2 0x3173 JUMP JUMPDEST PUSH2 0x33C9 PUSH1 0x80 DUP4 ADD DUP5 PUSH2 0x2E52 JUMP JUMPDEST SWAP7 SWAP6 POP POP POP POP POP POP JUMP JUMPDEST PUSH1 0x0 PUSH1 0x80 DUP3 ADD SWAP1 POP PUSH2 0x33E8 PUSH1 0x0 DUP4 ADD DUP8 PUSH2 0x2E87 JUMP JUMPDEST PUSH2 0x33F5 PUSH1 0x20 DUP4 ADD DUP7 PUSH2 0x3182 JUMP JUMPDEST PUSH2 0x3402 PUSH1 0x40 DUP4 ADD DUP6 PUSH2 0x2E87 JUMP JUMPDEST PUSH2 0x340F PUSH1 0x60 DUP4 ADD DUP5 PUSH2 0x2E87 JUMP JUMPDEST SWAP6 SWAP5 POP POP POP POP POP JUMP JUMPDEST PUSH1 0x0 PUSH1 0x20 DUP3 ADD SWAP1 POP DUP2 DUP2 SUB PUSH1 0x0 DUP4 ADD MSTORE PUSH2 0x3432 DUP2 DUP5 PUSH2 0x2F96 JUMP JUMPDEST SWAP1 POP SWAP3 SWAP2 POP POP JUMP JUMPDEST PUSH1 0x0 PUSH1 0x20 DUP3 ADD SWAP1 POP DUP2 DUP2 SUB PUSH1 0x0 DUP4 ADD MSTORE PUSH2 0x3453 DUP2 PUSH2 0x2FCF JUMP JUMPDEST SWAP1 POP SWAP2 SWAP1 POP JUMP JUMPDEST PUSH1 0x0 PUSH1 0x20 DUP3 ADD SWAP1 POP DUP2 DUP2 SUB PUSH1 0x0 DUP4 ADD MSTORE PUSH2 0x3473 DUP2 PUSH2 0x3015 JUMP JUMPDEST SWAP1 POP SWAP2 SWAP1 POP JUMP JUMPDEST PUSH1 0x0 PUSH1 0x20 DUP3 ADD SWAP1 POP DUP2 DUP2 SUB PUSH1 0x0 DUP4 ADD MSTORE PUSH2 0x3493 DUP2 PUSH2 0x3038 JUMP JUMPDEST SWAP1 POP SWAP2 SWAP1 POP JUMP JUMPDEST PUSH1 0x0 PUSH1 0x20 DUP3 ADD SWAP1 POP DUP2 DUP2 SUB PUSH1 0x0 DUP4 ADD MSTORE PUSH2 0x34B3 DUP2 PUSH2 0x305B JUMP JUMPDEST SWAP1 POP SWAP2 SWAP1 POP JUMP JUMPDEST PUSH1 0x0 PUSH1 0x20 DUP3 ADD SWAP1 POP DUP2 DUP2 SUB PUSH1 0x0 DUP4 ADD MSTORE PUSH2 0x34D3 DUP2 PUSH2 0x307E JUMP JUMPDEST SWAP1 POP SWAP2 SWAP1 POP JUMP JUMPDEST PUSH1 0x0 PUSH1 0x20 DUP3 ADD SWAP1 POP DUP2 DUP2 SUB PUSH1 0x0 DUP4 ADD MSTORE PUSH2 0x34F3 DUP2 PUSH2 0x30A1 JUMP JUMPDEST SWAP1 POP SWAP2 SWAP1 POP JUMP JUMPDEST PUSH1 0x0 PUSH1 0x20 DUP3 ADD SWAP1 POP DUP2 DUP2 SUB PUSH1 0x0 DUP4 ADD MSTORE PUSH2 0x3513 DUP2 PUSH2 0x30C4 JUMP JUMPDEST SWAP1 POP SWAP2 SWAP1 POP JUMP JUMPDEST PUSH1 0x0 PUSH1 0x20 DUP3 ADD SWAP1 POP DUP2 DUP2 SUB PUSH1 0x0 DUP4 ADD MSTORE PUSH2 0x3533 DUP2 PUSH2 0x30E7 JUMP JUMPDEST SWAP1 POP SWAP2 SWAP1 POP JUMP JUMPDEST PUSH1 0x0 PUSH1 0x20 DUP3 ADD SWAP1 POP DUP2 DUP2 SUB PUSH1 0x0 DUP4 ADD MSTORE PUSH2 0x3553 DUP2 PUSH2 0x310A JUMP JUMPDEST SWAP1 POP SWAP2 SWAP1 POP JUMP JUMPDEST PUSH1 0x0 PUSH1 0x20 DUP3 ADD SWAP1 POP DUP2 DUP2 SUB PUSH1 0x0 DUP4 ADD MSTORE PUSH2 0x3573 DUP2 PUSH2 0x312D JUMP JUMPDEST SWAP1 POP SWAP2 SWAP1 POP JUMP JUMPDEST PUSH1 0x0 PUSH1 0x20 DUP3 ADD SWAP1 POP DUP2 DUP2 SUB PUSH1 0x0 DUP4 ADD MSTORE PUSH2 0x3593 DUP2 PUSH2 0x3150 JUMP JUMPDEST SWAP1 POP SWAP2 SWAP1 POP JUMP JUMPDEST PUSH1 0x0 PUSH1 0x20 DUP3 ADD SWAP1 POP PUSH2 0x35AF PUSH1 0x0 DUP4 ADD DUP5 PUSH2 0x3173 JUMP JUMPDEST SWAP3 SWAP2 POP POP JUMP JUMPDEST PUSH1 0x0 PUSH2 0x35BF PUSH2 0x35D0 JUMP JUMPDEST SWAP1 POP PUSH2 0x35CB DUP3 DUP3 PUSH2 0x37CA JUMP JUMPDEST SWAP2 SWAP1 POP JUMP JUMPDEST PUSH1 0x0 PUSH1 0x40 MLOAD SWAP1 POP SWAP1 JUMP JUMPDEST PUSH1 0x0 PUSH8 0xFFFFFFFFFFFFFFFF DUP3 GT ISZERO PUSH2 0x35F5 JUMPI PUSH2 0x35F4 PUSH2 0x38D0 JUMP JUMPDEST JUMPDEST PUSH1 0x20 DUP3 MUL SWAP1 POP PUSH1 0x20 DUP2 ADD SWAP1 POP SWAP2 SWAP1 POP JUMP JUMPDEST PUSH1 0x0 PUSH8 0xFFFFFFFFFFFFFFFF DUP3 GT ISZERO PUSH2 0x3621 JUMPI PUSH2 0x3620 PUSH2 0x38D0 JUMP JUMPDEST JUMPDEST PUSH2 0x362A DUP3 PUSH2 0x38FF JUMP JUMPDEST SWAP1 POP PUSH1 0x20 DUP2 ADD SWAP1 POP SWAP2 SWAP1 POP JUMP JUMPDEST PUSH1 0x0 PUSH8 0xFFFFFFFFFFFFFFFF DUP3 GT ISZERO PUSH2 0x3652 JUMPI PUSH2 0x3651 PUSH2 0x38D0 JUMP JUMPDEST JUMPDEST PUSH2 0x365B DUP3 PUSH2 0x38FF JUMP JUMPDEST SWAP1 POP PUSH1 0x20 DUP2 ADD SWAP1 POP SWAP2 SWAP1 POP JUMP JUMPDEST PUSH1 0x0 DUP2 SWAP1 POP DUP2 PUSH1 0x0 MSTORE PUSH1 0x20 PUSH1 0x0 KECCAK256 SWAP1 POP SWAP2 SWAP1 POP JUMP JUMPDEST PUSH1 0x0 DUP2 MLOAD SWAP1 POP SWAP2 SWAP1 POP JUMP JUMPDEST PUSH1 0x0 DUP2 MLOAD SWAP1 POP SWAP2 SWAP1 POP JUMP JUMPDEST PUSH1 0x0 DUP3 DUP3 MSTORE PUSH1 0x20 DUP3 ADD SWAP1 POP SWAP3 SWAP2 POP POP JUMP JUMPDEST PUSH1 0x0 DUP2 SWAP1 POP SWAP3 SWAP2 POP POP JUMP JUMPDEST PUSH1 0x0 DUP3 DUP3 MSTORE PUSH1 0x20 DUP3 ADD SWAP1 POP SWAP3 SWAP2 POP POP JUMP JUMPDEST PUSH1 0x0 DUP2 SWAP1 POP SWAP3 SWAP2 POP POP JUMP JUMPDEST PUSH1 0x0 PUSH2 0x36D6 DUP3 PUSH2 0x371F JUMP JUMPDEST SWAP1 POP SWAP2 SWAP1 POP JUMP JUMPDEST PUSH1 0x0 DUP2 ISZERO ISZERO SWAP1 POP SWAP2 SWAP1 POP JUMP JUMPDEST PUSH1 0x0 DUP2 SWAP1 POP SWAP2 SWAP1 POP JUMP JUMPDEST PUSH1 0x0 PUSH32 0xFFFFFFFF00000000000000000000000000000000000000000000000000000000 DUP3 AND SWAP1 POP SWAP2 SWAP1 POP JUMP JUMPDEST PUSH1 0x0 PUSH20 0xFFFFFFFFFFFFFFFFFFFFFFFFFFFFFFFFFFFFFFFF DUP3 AND SWAP1 POP SWAP2 SWAP1 POP JUMP JUMPDEST PUSH1 0x0 DUP2 SWAP1 POP SWAP2 SWAP1 POP JUMP JUMPDEST PUSH1 0x0 PUSH1 0xFF DUP3 AND SWAP1 POP SWAP2 SWAP1 POP JUMP JUMPDEST DUP3 DUP2 DUP4 CALLDATACOPY PUSH1 0x0 DUP4 DUP4 ADD MSTORE POP POP POP JUMP JUMPDEST PUSH1 0x0 JUMPDEST DUP4 DUP2 LT ISZERO PUSH2 0x3783 JUMPI DUP1 DUP3 ADD MLOAD DUP2 DUP5 ADD MSTORE PUSH1 0x20 DUP2 ADD SWAP1 POP PUSH2 0x3768 JUMP JUMPDEST DUP4 DUP2 GT ISZERO PUSH2 0x3792 JUMPI PUSH1 0x0 DUP5 DUP5 ADD MSTORE JUMPDEST POP POP POP POP JUMP JUMPDEST PUSH1 0x0 PUSH1 0x2 DUP3 DIV SWAP1 POP PUSH1 0x1 DUP3 AND DUP1 PUSH2 0x37B0 JUMPI PUSH1 0x7F DUP3 AND SWAP2 POP JUMPDEST PUSH1 0x20 DUP3 LT DUP2 EQ ISZERO PUSH2 0x37C4 JUMPI PUSH2 0x37C3 PUSH2 0x38A1 JUMP JUMPDEST JUMPDEST POP SWAP2 SWAP1 POP JUMP JUMPDEST PUSH2 0x37D3 DUP3 PUSH2 0x38FF JUMP JUMPDEST DUP2 ADD DUP2 DUP2 LT PUSH8 0xFFFFFFFFFFFFFFFF DUP3 GT OR ISZERO PUSH2 0x37F2 JUMPI PUSH2 0x37F1 PUSH2 0x38D0 JUMP JUMPDEST JUMPDEST DUP1 PUSH1 0x40 MSTORE POP POP POP JUMP JUMPDEST PUSH1 0x0 PUSH2 0x3806 DUP3 PUSH2 0x373F JUMP JUMPDEST SWAP2 POP PUSH32 0xFFFFFFFFFFFFFFFFFFFFFFFFFFFFFFFFFFFFFFFFFFFFFFFFFFFFFFFFFFFFFFFF DUP3 EQ ISZERO PUSH2 0x3839 JUMPI PUSH2 0x3838 PUSH2 0x3872 JUMP JUMPDEST JUMPDEST PUSH1 0x1 DUP3 ADD SWAP1 POP SWAP2 SWAP1 POP JUMP JUMPDEST PUSH1 0x0 PUSH2 0x384F DUP3 PUSH2 0x3860 JUMP JUMPDEST SWAP1 POP SWAP2 SWAP1 POP JUMP JUMPDEST PUSH1 0x0 DUP2 SWAP1 POP SWAP2 SWAP1 POP JUMP JUMPDEST PUSH1 0x0 PUSH2 0x386B DUP3 PUSH2 0x3910 JUMP JUMPDEST SWAP1 POP SWAP2 SWAP1 POP JUMP JUMPDEST PUSH32 0x4E487B7100000000000000000000000000000000000000000000000000000000 PUSH1 0x0 MSTORE PUSH1 0x11 PUSH1 0x4 MSTORE PUSH1 0x24 PUSH1 0x0 REVERT JUMPDEST PUSH32 0x4E487B7100000000000000000000000000000000000000000000000000000000 PUSH1 0x0 MSTORE PUSH1 0x22 PUSH1 0x4 MSTORE PUSH1 0x24 PUSH1 0x0 REVERT JUMPDEST PUSH32 0x4E487B7100000000000000000000000000000000000000000000000000000000 PUSH1 0x0 MSTORE PUSH1 0x41 PUSH1 0x4 MSTORE PUSH1 0x24 PUSH1 0x0 REVERT JUMPDEST PUSH1 0x0 PUSH1 0x1F NOT PUSH1 0x1F DUP4 ADD AND SWAP1 POP SWAP2 SWAP1 POP JUMP JUMPDEST PUSH1 0x0 DUP2 PUSH1 0x60 SHL SWAP1 POP SWAP2 SWAP1 POP JUMP JUMPDEST PUSH32 0x596F7520617265206E6F74206F6E207468652077686974656C69737400000000 PUSH1 0x0 DUP3 ADD MSTORE POP JUMP JUMPDEST PUSH32 0x1901000000000000000000000000000000000000000000000000000000000000 PUSH1 0x0 DUP3 ADD MSTORE POP JUMP JUMPDEST PUSH32 0x494E56414C49445F5045524D49545F5349474E41545552450000000000000000 PUSH1 0x0 DUP3 ADD MSTORE POP JUMP JUMPDEST PUSH32 0x4E4F545F415050524F5645440000000000000000000000000000000000000000 PUSH1 0x0 DUP3 ADD MSTORE POP JUMP JUMPDEST PUSH32 0x4E6F742074696D6520746F206D616B65206120636C61696D0000000000000000 PUSH1 0x0 DUP3 ADD MSTORE POP JUMP JUMPDEST PUSH32 0x5A45524F5F414444524553530000000000000000000000000000000000000000 PUSH1 0x0 DUP3 ADD MSTORE POP JUMP JUMPDEST PUSH32 0x494E56414C49445F5349474E4552000000000000000000000000000000000000 PUSH1 0x0 DUP3 ADD MSTORE POP JUMP JUMPDEST PUSH32 0x4E4F545F4552433732315F524543454956455200000000000000000000000000 PUSH1 0x0 DUP3 ADD MSTORE POP JUMP JUMPDEST PUSH32 0x4E4F545F50454E44494E475F4F574E4552000000000000000000000000000000 PUSH1 0x0 DUP3 ADD MSTORE POP JUMP JUMPDEST PUSH32 0x4E4F545F4F574E45520000000000000000000000000000000000000000000000 PUSH1 0x0 DUP3 ADD MSTORE POP JUMP JUMPDEST PUSH32 0x5045524D49545F444541444C494E455F45585049524544000000000000000000 PUSH1 0x0 DUP3 ADD MSTORE POP JUMP JUMPDEST PUSH32 0x414C52454144595F4D494E544544000000000000000000000000000000000000 PUSH1 0x0 DUP3 ADD MSTORE POP JUMP JUMPDEST PUSH2 0x3B12 DUP2 PUSH2 0x36CB JUMP JUMPDEST DUP2 EQ PUSH2 0x3B1D JUMPI PUSH1 0x0 DUP1 REVERT JUMPDEST POP JUMP JUMPDEST PUSH2 0x3B29 DUP2 PUSH2 0x36DD JUMP JUMPDEST DUP2 EQ PUSH2 0x3B34 JUMPI PUSH1 0x0 DUP1 REVERT JUMPDEST POP JUMP JUMPDEST PUSH2 0x3B40 DUP2 PUSH2 0x36E9 JUMP JUMPDEST DUP2 EQ PUSH2 0x3B4B JUMPI PUSH1 0x0 DUP1 REVERT JUMPDEST POP JUMP JUMPDEST PUSH2 0x3B57 DUP2 PUSH2 0x36F3 JUMP JUMPDEST DUP2 EQ PUSH2 0x3B62 JUMPI PUSH1 0x0 DUP1 REVERT JUMPDEST POP JUMP JUMPDEST PUSH2 0x3B6E DUP2 PUSH2 0x373F JUMP JUMPDEST DUP2 EQ PUSH2 0x3B79 JUMPI PUSH1 0x0 DUP1 REVERT JUMPDEST POP JUMP JUMPDEST PUSH2 0x3B85 DUP2 PUSH2 0x3749 JUMP JUMPDEST DUP2 EQ PUSH2 0x3B90 JUMPI PUSH1 0x0 DUP1 REVERT JUMPDEST POP JUMP INVALID LOG2 PUSH5 0x6970667358 0x22 SLT KECCAK256 0xE6 DUP11 DIFFICULTY PUSH21 0x60F629061D6EC47F28F90ACF6AA204B2AB6F740FDC NUMBER 0xE2 0x25 MULMOD ISZERO 0x21 LOG4 PUSH5 0x736F6C6343 STOP ADDMOD DIV STOP CALLER "
        },
        "methodIdentifiers": {
          "DOMAIN_SEPARATOR()": "3644e515",
          "PERMIT_ALL_TYPEHASH()": "b4e13c8d",
          "PERMIT_TYPEHASH()": "30adf81f",
          "approve(address,uint256)": "095ea7b3",
          "balanceOf(address)": "70a08231",
          "claimOwner()": "3bd1adec",
          "claimWhiteList(bytes32[])": "45b6c60d",
          "getApproved(uint256)": "081812fc",
          "isApprovedForAll(address,address)": "e985e9c5",
          "mint(address,string)": "d0def521",
          "name()": "06fdde03",
          "nonces(uint256)": "141a468c",
          "noncesForAll(address)": "904dfb8e",
          "owner()": "8da5cb5b",
          "ownerOf(uint256)": "6352211e",
          "pendingOwner()": "e30c3978",
          "permit(address,uint256,uint256,uint8,bytes32,bytes32)": "7ac2ff7b",
          "permitAll(address,address,uint256,uint8,bytes32,bytes32)": "aba07847",
          "safeTransferFrom(address,address,uint256)": "42842e0e",
          "safeTransferFrom(address,address,uint256,bytes)": "b88d4fde",
          "setApprovalForAll(address,bool)": "a22cb465",
          "setMerkleRoot(bytes32)": "7cb64759",
          "supportsInterface(bytes4)": "01ffc9a7",
          "symbol()": "95d89b41",
          "toggleWhitelist(bool)": "80e3f1ad",
          "tokenURI(uint256)": "c87b56dd",
          "totalSupply()": "18160ddd",
          "transfer(address,uint256)": "a9059cbb",
          "transferFrom(address,address,uint256)": "23b872dd",
          "transferOwner(address,bool)": "cf81afaa",
          "updateWhitelist(address,bool)": "0d392cd9",
          "whitelistEnabled()": "51fb012d",
          "whitelisted(address)": "d936547e"
        }
      }
    }
  }
}