{
  "contractName": "SimpleToken",
  "abi": [
    {
      "inputs": [
        {
          "internalType": "string",
          "name": "name",
          "type": "string"
        },
        {
          "internalType": "string",
          "name": "symbol",
          "type": "string"
        },
        {
          "internalType": "uint256",
          "name": "initialSupply",
          "type": "uint256"
        }
      ],
      "stateMutability": "nonpayable",
      "type": "constructor"
    },
    {
      "anonymous": false,
      "inputs": [
        {
          "indexed": true,
          "internalType": "address",
          "name": "owner",
          "type": "address"
        },
        {
          "indexed": true,
          "internalType": "address",
          "name": "spender",
          "type": "address"
        },
        {
          "indexed": false,
          "internalType": "uint256",
          "name": "value",
          "type": "uint256"
        }
      ],
      "name": "Approval",
      "type": "event"
    },
    {
      "anonymous": false,
      "inputs": [
        {
          "indexed": true,
          "internalType": "address",
          "name": "from",
          "type": "address"
        },
        {
          "indexed": true,
          "internalType": "address",
          "name": "to",
          "type": "address"
        },
        {
          "indexed": false,
          "internalType": "uint256",
          "name": "value",
          "type": "uint256"
        }
      ],
      "name": "Transfer",
      "type": "event"
    },
    {
      "inputs": [
        {
          "internalType": "address",
          "name": "owner",
          "type": "address"
        },
        {
          "internalType": "address",
          "name": "spender",
          "type": "address"
        }
      ],
      "name": "allowance",
      "outputs": [
        {
          "internalType": "uint256",
          "name": "",
          "type": "uint256"
        }
      ],
      "stateMutability": "view",
      "type": "function",
      "constant": true
    },
    {
      "inputs": [
        {
          "internalType": "address",
          "name": "spender",
          "type": "address"
        },
        {
          "internalType": "uint256",
          "name": "amount",
          "type": "uint256"
        }
      ],
      "name": "approve",
      "outputs": [
        {
          "internalType": "bool",
          "name": "",
          "type": "bool"
        }
      ],
      "stateMutability": "nonpayable",
      "type": "function"
    },
    {
      "inputs": [
        {
          "internalType": "address",
          "name": "account",
          "type": "address"
        }
      ],
      "name": "balanceOf",
      "outputs": [
        {
          "internalType": "uint256",
          "name": "",
          "type": "uint256"
        }
      ],
      "stateMutability": "view",
      "type": "function",
      "constant": true
    },
    {
      "inputs": [],
      "name": "decimals",
      "outputs": [
        {
          "internalType": "uint8",
          "name": "",
          "type": "uint8"
        }
      ],
      "stateMutability": "view",
      "type": "function",
      "constant": true
    },
    {
      "inputs": [
        {
          "internalType": "address",
          "name": "spender",
          "type": "address"
        },
        {
          "internalType": "uint256",
          "name": "subtractedValue",
          "type": "uint256"
        }
      ],
      "name": "decreaseAllowance",
      "outputs": [
        {
          "internalType": "bool",
          "name": "",
          "type": "bool"
        }
      ],
      "stateMutability": "nonpayable",
      "type": "function"
    },
    {
      "inputs": [
        {
          "internalType": "address",
          "name": "spender",
          "type": "address"
        },
        {
          "internalType": "uint256",
          "name": "addedValue",
          "type": "uint256"
        }
      ],
      "name": "increaseAllowance",
      "outputs": [
        {
          "internalType": "bool",
          "name": "",
          "type": "bool"
        }
      ],
      "stateMutability": "nonpayable",
      "type": "function"
    },
    {
      "inputs": [],
      "name": "manager",
      "outputs": [
        {
          "internalType": "address",
          "name": "",
          "type": "address"
        }
      ],
      "stateMutability": "view",
      "type": "function",
      "constant": true
    },
    {
      "inputs": [],
      "name": "name",
      "outputs": [
        {
          "internalType": "string",
          "name": "",
          "type": "string"
        }
      ],
      "stateMutability": "view",
      "type": "function",
      "constant": true
    },
    {
      "inputs": [],
      "name": "symbol",
      "outputs": [
        {
          "internalType": "string",
          "name": "",
          "type": "string"
        }
      ],
      "stateMutability": "view",
      "type": "function",
      "constant": true
    },
    {
      "inputs": [],
      "name": "totalSupply",
      "outputs": [
        {
          "internalType": "uint256",
          "name": "",
          "type": "uint256"
        }
      ],
      "stateMutability": "view",
      "type": "function",
      "constant": true
    },
    {
      "inputs": [
        {
          "internalType": "address",
          "name": "recipient",
          "type": "address"
        },
        {
          "internalType": "uint256",
          "name": "amount",
          "type": "uint256"
        }
      ],
      "name": "transfer",
      "outputs": [
        {
          "internalType": "bool",
          "name": "",
          "type": "bool"
        }
      ],
      "stateMutability": "nonpayable",
      "type": "function"
    },
    {
      "inputs": [
        {
          "internalType": "address",
          "name": "sender",
          "type": "address"
        },
        {
          "internalType": "address",
          "name": "recipient",
          "type": "address"
        },
        {
          "internalType": "uint256",
          "name": "amount",
          "type": "uint256"
        }
      ],
      "name": "transferFrom",
      "outputs": [
        {
          "internalType": "bool",
          "name": "",
          "type": "bool"
        }
      ],
      "stateMutability": "nonpayable",
      "type": "function"
    }
  ],
  "bytecode": "0x60806040523480156200001157600080fd5b5060405162001a1a38038062001a1a833981810160405281019062000037919062000344565b82828160039080519060200190620000519291906200020b565b5080600490805190602001906200006a9291906200020b565b5050506200007f33826200008860201b60201c565b50505062000650565b600073ffffffffffffffffffffffffffffffffffffffff168273ffffffffffffffffffffffffffffffffffffffff161415620000fb576040517f08c379a0000000000000000000000000000000000000000000000000000000008152600401620000f2906200041f565b60405180910390fd5b6200010f600083836200020160201b60201c565b8060026000828254620001239190620004d6565b92505081905550806000808473ffffffffffffffffffffffffffffffffffffffff1673ffffffffffffffffffffffffffffffffffffffff16815260200190815260200160002060008282546200017a9190620004d6565b925050819055508173ffffffffffffffffffffffffffffffffffffffff16600073ffffffffffffffffffffffffffffffffffffffff167fddf252ad1be2c89b69c2b068fc378daa952ba7f163c4a11628f55a4df523b3ef83604051620001e1919062000441565b60405180910390a3620001fd600083836200020660201b60201c565b5050565b505050565b505050565b828054620002199062000573565b90600052602060002090601f0160209004810192826200023d576000855562000289565b82601f106200025857805160ff191683800117855562000289565b8280016001018555821562000289579182015b82811115620002885782518255916020019190600101906200026b565b5b5090506200029891906200029c565b5090565b5b80821115620002b75760008160009055506001016200029d565b5090565b6000620002d2620002cc8462000492565b6200045e565b905082815260208101848484011115620002eb57600080fd5b620002f88482856200053d565b509392505050565b600082601f8301126200031257600080fd5b815162000324848260208601620002bb565b91505092915050565b6000815190506200033e8162000636565b92915050565b6000806000606084860312156200035a57600080fd5b600084015167ffffffffffffffff8111156200037557600080fd5b620003838682870162000300565b935050602084015167ffffffffffffffff811115620003a157600080fd5b620003af8682870162000300565b9250506040620003c2868287016200032d565b9150509250925092565b6000620003db601f83620004c5565b91507f45524332303a206d696e7420746f20746865207a65726f2061646472657373006000830152602082019050919050565b620004198162000533565b82525050565b600060208201905081810360008301526200043a81620003cc565b9050919050565b60006020820190506200045860008301846200040e565b92915050565b6000604051905081810181811067ffffffffffffffff8211171562000488576200048762000607565b5b8060405250919050565b600067ffffffffffffffff821115620004b057620004af62000607565b5b601f19601f8301169050602081019050919050565b600082825260208201905092915050565b6000620004e38262000533565b9150620004f08362000533565b9250827fffffffffffffffffffffffffffffffffffffffffffffffffffffffffffffffff03821115620005285762000527620005a9565b5b828201905092915050565b6000819050919050565b60005b838110156200055d57808201518184015260208101905062000540565b838111156200056d576000848401525b50505050565b600060028204905060018216806200058c57607f821691505b60208210811415620005a357620005a2620005d8565b5b50919050565b7f4e487b7100000000000000000000000000000000000000000000000000000000600052601160045260246000fd5b7f4e487b7100000000000000000000000000000000000000000000000000000000600052602260045260246000fd5b7f4e487b7100000000000000000000000000000000000000000000000000000000600052604160045260246000fd5b620006418162000533565b81146200064d57600080fd5b50565b6113ba80620006606000396000f3fe608060405234801561001057600080fd5b50600436106100b45760003560e01c8063481c6a7511610071578063481c6a75146101a357806370a08231146101c157806395d89b41146101f1578063a457c2d71461020f578063a9059cbb1461023f578063dd62ed3e1461026f576100b4565b806306fdde03146100b9578063095ea7b3146100d757806318160ddd1461010757806323b872dd14610125578063313ce567146101555780633950935114610173575b600080fd5b6100c161029f565b6040516100ce9190611083565b60405180910390f35b6100f160048036038101906100ec9190610cd2565b610331565b6040516100fe9190611068565b60405180910390f35b61010f61034f565b60405161011c9190611185565b60405180910390f35b61013f600480360381019061013a9190610c83565b610359565b60405161014c9190611068565b60405180910390f35b61015d610451565b60405161016a91906111a0565b60405180910390f35b61018d60048036038101906101889190610cd2565b61045a565b60405161019a9190611068565b60405180910390f35b6101ab610506565b6040516101b8919061104d565b60405180910390f35b6101db60048036038101906101d69190610c1e565b61052c565b6040516101e89190611185565b60405180910390f35b6101f9610574565b6040516102069190611083565b60405180910390f35b61022960048036038101906102249190610cd2565b610606565b6040516102369190611068565b60405180910390f35b61025960048036038101906102549190610cd2565b6106f1565b6040516102669190611068565b60405180910390f35b61028960048036038101906102849190610c47565b61070f565b6040516102969190611185565b60405180910390f35b6060600380546102ae906112b5565b80601f01602080910402602001604051908101604052809291908181526020018280546102da906112b5565b80156103275780601f106102fc57610100808354040283529160200191610327565b820191906000526020600020905b81548152906001019060200180831161030a57829003601f168201915b5050505050905090565b600061034561033e610796565b848461079e565b6001905092915050565b6000600254905090565b6000610366848484610969565b6000600160008673ffffffffffffffffffffffffffffffffffffffff1673ffffffffffffffffffffffffffffffffffffffff16815260200190815260200160002060006103b1610796565b73ffffffffffffffffffffffffffffffffffffffff1673ffffffffffffffffffffffffffffffffffffffff16815260200190815260200160002054905082811015610431576040517f08c379a000000000000000000000000000000000000000000000000000000000815260040161042890611105565b60405180910390fd5b6104458561043d610796565b85840361079e565b60019150509392505050565b60006012905090565b60006104fc610467610796565b848460016000610475610796565b73ffffffffffffffffffffffffffffffffffffffff1673ffffffffffffffffffffffffffffffffffffffff16815260200190815260200160002060008873ffffffffffffffffffffffffffffffffffffffff1673ffffffffffffffffffffffffffffffffffffffff168152602001908152602001600020546104f791906111d7565b61079e565b6001905092915050565b600560009054906101000a900473ffffffffffffffffffffffffffffffffffffffff1681565b60008060008373ffffffffffffffffffffffffffffffffffffffff1673ffffffffffffffffffffffffffffffffffffffff168152602001908152602001600020549050919050565b606060048054610583906112b5565b80601f01602080910402602001604051908101604052809291908181526020018280546105af906112b5565b80156105fc5780601f106105d1576101008083540402835291602001916105fc565b820191906000526020600020905b8154815290600101906020018083116105df57829003601f168201915b5050505050905090565b60008060016000610615610796565b73ffffffffffffffffffffffffffffffffffffffff1673ffffffffffffffffffffffffffffffffffffffff16815260200190815260200160002060008573ffffffffffffffffffffffffffffffffffffffff1673ffffffffffffffffffffffffffffffffffffffff168152602001908152602001600020549050828110156106d2576040517f08c379a00000000000000000000000000000000000000000000000000000000081526004016106c990611165565b60405180910390fd5b6106e66106dd610796565b8585840361079e565b600191505092915050565b60006107056106fe610796565b8484610969565b6001905092915050565b6000600160008473ffffffffffffffffffffffffffffffffffffffff1673ffffffffffffffffffffffffffffffffffffffff16815260200190815260200160002060008373ffffffffffffffffffffffffffffffffffffffff1673ffffffffffffffffffffffffffffffffffffffff16815260200190815260200160002054905092915050565b600033905090565b600073ffffffffffffffffffffffffffffffffffffffff168373ffffffffffffffffffffffffffffffffffffffff16141561080e576040517f08c379a000000000000000000000000000000000000000000000000000000000815260040161080590611145565b60405180910390fd5b600073ffffffffffffffffffffffffffffffffffffffff168273ffffffffffffffffffffffffffffffffffffffff16141561087e576040517f08c379a0000000000000000000000000000000000000000000000000000000008152600401610875906110c5565b60405180910390fd5b80600160008573ffffffffffffffffffffffffffffffffffffffff1673ffffffffffffffffffffffffffffffffffffffff16815260200190815260200160002060008473ffffffffffffffffffffffffffffffffffffffff1673ffffffffffffffffffffffffffffffffffffffff168152602001908152602001600020819055508173ffffffffffffffffffffffffffffffffffffffff168373ffffffffffffffffffffffffffffffffffffffff167f8c5be1e5ebec7d5bd14f71427d1e84f3dd0314c0f7b2291e5b200ac8c7c3b9258360405161095c9190611185565b60405180910390a3505050565b600073ffffffffffffffffffffffffffffffffffffffff168373ffffffffffffffffffffffffffffffffffffffff1614156109d9576040517f08c379a00000000000000000000000000000000000000000000000000000000081526004016109d090611125565b60405180910390fd5b600073ffffffffffffffffffffffffffffffffffffffff168273ffffffffffffffffffffffffffffffffffffffff161415610a49576040517f08c379a0000000000000000000000000000000000000000000000000000000008152600401610a40906110a5565b60405180910390fd5b610a54838383610bea565b60008060008573ffffffffffffffffffffffffffffffffffffffff1673ffffffffffffffffffffffffffffffffffffffff16815260200190815260200160002054905081811015610ada576040517f08c379a0000000000000000000000000000000000000000000000000000000008152600401610ad1906110e5565b60405180910390fd5b8181036000808673ffffffffffffffffffffffffffffffffffffffff1673ffffffffffffffffffffffffffffffffffffffff16815260200190815260200160002081905550816000808573ffffffffffffffffffffffffffffffffffffffff1673ffffffffffffffffffffffffffffffffffffffff1681526020019081526020016000206000828254610b6d91906111d7565b925050819055508273ffffffffffffffffffffffffffffffffffffffff168473ffffffffffffffffffffffffffffffffffffffff167fddf252ad1be2c89b69c2b068fc378daa952ba7f163c4a11628f55a4df523b3ef84604051610bd19190611185565b60405180910390a3610be4848484610bef565b50505050565b505050565b505050565b600081359050610c0381611356565b92915050565b600081359050610c188161136d565b92915050565b600060208284031215610c3057600080fd5b6000610c3e84828501610bf4565b91505092915050565b60008060408385031215610c5a57600080fd5b6000610c6885828601610bf4565b9250506020610c7985828601610bf4565b9150509250929050565b600080600060608486031215610c9857600080fd5b6000610ca686828701610bf4565b9350506020610cb786828701610bf4565b9250506040610cc886828701610c09565b9150509250925092565b60008060408385031215610ce557600080fd5b6000610cf385828601610bf4565b9250506020610d0485828601610c09565b9150509250929050565b610d178161122d565b82525050565b610d268161123f565b82525050565b6000610d37826111bb565b610d4181856111c6565b9350610d51818560208601611282565b610d5a81611345565b840191505092915050565b6000610d726023836111c6565b91507f45524332303a207472616e7366657220746f20746865207a65726f206164647260008301527f65737300000000000000000000000000000000000000000000000000000000006020830152604082019050919050565b6000610dd86022836111c6565b91507f45524332303a20617070726f766520746f20746865207a65726f20616464726560008301527f73730000000000000000000000000000000000000000000000000000000000006020830152604082019050919050565b6000610e3e6026836111c6565b91507f45524332303a207472616e7366657220616d6f756e742065786365656473206260008301527f616c616e636500000000000000000000000000000000000000000000000000006020830152604082019050919050565b6000610ea46028836111c6565b91507f45524332303a207472616e7366657220616d6f756e742065786365656473206160008301527f6c6c6f77616e63650000000000000000000000000000000000000000000000006020830152604082019050919050565b6000610f0a6025836111c6565b91507f45524332303a207472616e736665722066726f6d20746865207a65726f20616460008301527f64726573730000000000000000000000000000000000000000000000000000006020830152604082019050919050565b6000610f706024836111c6565b91507f45524332303a20617070726f76652066726f6d20746865207a65726f2061646460008301527f72657373000000000000000000000000000000000000000000000000000000006020830152604082019050919050565b6000610fd66025836111c6565b91507f45524332303a2064656372656173656420616c6c6f77616e63652062656c6f7760008301527f207a65726f0000000000000000000000000000000000000000000000000000006020830152604082019050919050565b6110388161126b565b82525050565b61104781611275565b82525050565b60006020820190506110626000830184610d0e565b92915050565b600060208201905061107d6000830184610d1d565b92915050565b6000602082019050818103600083015261109d8184610d2c565b905092915050565b600060208201905081810360008301526110be81610d65565b9050919050565b600060208201905081810360008301526110de81610dcb565b9050919050565b600060208201905081810360008301526110fe81610e31565b9050919050565b6000602082019050818103600083015261111e81610e97565b9050919050565b6000602082019050818103600083015261113e81610efd565b9050919050565b6000602082019050818103600083015261115e81610f63565b9050919050565b6000602082019050818103600083015261117e81610fc9565b9050919050565b600060208201905061119a600083018461102f565b92915050565b60006020820190506111b5600083018461103e565b92915050565b600081519050919050565b600082825260208201905092915050565b60006111e28261126b565b91506111ed8361126b565b9250827fffffffffffffffffffffffffffffffffffffffffffffffffffffffffffffffff03821115611222576112216112e7565b5b828201905092915050565b60006112388261124b565b9050919050565b60008115159050919050565b600073ffffffffffffffffffffffffffffffffffffffff82169050919050565b6000819050919050565b600060ff82169050919050565b60005b838110156112a0578082015181840152602081019050611285565b838111156112af576000848401525b50505050565b600060028204905060018216806112cd57607f821691505b602082108114156112e1576112e0611316565b5b50919050565b7f4e487b7100000000000000000000000000000000000000000000000000000000600052601160045260246000fd5b7f4e487b7100000000000000000000000000000000000000000000000000000000600052602260045260246000fd5b6000601f19601f8301169050919050565b61135f8161122d565b811461136a57600080fd5b50565b6113768161126b565b811461138157600080fd5b5056fea2646970667358221220c9e43be89682191980ac1981584dd09c49a99f4a5035aa2d85608ab96748892c64736f6c63430008000033",
  "immutableReferences": {},
  "source": "// contracts/SimpleToken.sol\n// SPDX-License-Identifier: MIT\npragma solidity ^0.8.0;\n\nimport \"@openzeppelin/contracts/token/ERC20/ERC20.sol\";\n\n/**\n * @title SimpleToken\n * @dev Very simple ERC20 Token example, where all tokens are pre-assigned to the creator.\n * Note they can later distribute these tokens as they wish using `transfer` and other\n * `ERC20` functions.\n * Based on https://github.com/OpenZeppelin/openzeppelin-contracts/blob/v2.5.1/contracts/examples/SimpleToken.sol\n */\ncontract SimpleToken is ERC20 {\n    /**\n     * @dev Constructor that gives msg.sender all of existing tokens.\n     */\n\n    address public manager;\n    \n    constructor(\n        string memory name,\n        string memory symbol,\n        uint256 initialSupply\n    ) ERC20(name, symbol) {\n        _mint(msg.sender, initialSupply);\n    }\n}\n",
  "sourcePath": "/Users/jordanteague/Workspace/eth/100-days-of-solidity/erc20test/contracts/SimpleToken.sol",
  "compiler": {
    "name": "solc",
    "version": "0.8.0+commit.c7dfd78e.Emscripten.clang"
  },
  "schemaVersion": "3.4.3",
  "updatedAt": "2021-09-22T03:50:21.421Z",
  "networkType": "ethereum",
  "devdoc": {
    "details": "Very simple ERC20 Token example, where all tokens are pre-assigned to the creator. Note they can later distribute these tokens as they wish using `transfer` and other `ERC20` functions. Based on https://github.com/OpenZeppelin/openzeppelin-contracts/blob/v2.5.1/contracts/examples/SimpleToken.sol",
    "kind": "dev",
    "methods": {
      "allowance(address,address)": {
        "details": "See {IERC20-allowance}."
      },
      "approve(address,uint256)": {
        "details": "See {IERC20-approve}. Requirements: - `spender` cannot be the zero address."
      },
      "balanceOf(address)": {
        "details": "See {IERC20-balanceOf}."
      },
      "decimals()": {
        "details": "Returns the number of decimals used to get its user representation. For example, if `decimals` equals `2`, a balance of `505` tokens should be displayed to a user as `5.05` (`505 / 10 ** 2`). Tokens usually opt for a value of 18, imitating the relationship between Ether and Wei. This is the value {ERC20} uses, unless this function is overridden; NOTE: This information is only used for _display_ purposes: it in no way affects any of the arithmetic of the contract, including {IERC20-balanceOf} and {IERC20-transfer}."
      },
      "decreaseAllowance(address,uint256)": {
        "details": "Atomically decreases the allowance granted to `spender` by the caller. This is an alternative to {approve} that can be used as a mitigation for problems described in {IERC20-approve}. Emits an {Approval} event indicating the updated allowance. Requirements: - `spender` cannot be the zero address. - `spender` must have allowance for the caller of at least `subtractedValue`."
      },
      "increaseAllowance(address,uint256)": {
        "details": "Atomically increases the allowance granted to `spender` by the caller. This is an alternative to {approve} that can be used as a mitigation for problems described in {IERC20-approve}. Emits an {Approval} event indicating the updated allowance. Requirements: - `spender` cannot be the zero address."
      },
      "name()": {
        "details": "Returns the name of the token."
      },
      "symbol()": {
        "details": "Returns the symbol of the token, usually a shorter version of the name."
      },
      "totalSupply()": {
        "details": "See {IERC20-totalSupply}."
      },
      "transfer(address,uint256)": {
        "details": "See {IERC20-transfer}. Requirements: - `recipient` cannot be the zero address. - the caller must have a balance of at least `amount`."
      },
      "transferFrom(address,address,uint256)": {
        "details": "See {IERC20-transferFrom}. Emits an {Approval} event indicating the updated allowance. This is not required by the EIP. See the note at the beginning of {ERC20}. Requirements: - `sender` and `recipient` cannot be the zero address. - `sender` must have a balance of at least `amount`. - the caller must have allowance for ``sender``'s tokens of at least `amount`."
      }
    },
    "stateVariables": {
      "manager": {
        "details": "Constructor that gives msg.sender all of existing tokens."
      }
    },
    "title": "SimpleToken",
    "version": 1
  },
  "userdoc": {
    "kind": "user",
    "methods": {},
    "version": 1
  }
}