{
  "contractName": "LexLocker",
  "abi": [
    {
      "inputs": [
        {
          "internalType": "contract IBentoBoxMinimal",
          "name": "bento_",
          "type": "address"
        },
        {
          "internalType": "address",
          "name": "lexDAO_",
          "type": "address"
        },
        {
          "internalType": "address",
          "name": "wETH_",
          "type": "address"
        }
      ],
      "stateMutability": "nonpayable",
      "type": "constructor"
    },
    {
      "anonymous": false,
      "inputs": [
        {
          "indexed": false,
          "internalType": "bool",
          "name": "bento",
          "type": "bool"
        },
        {
          "indexed": false,
          "internalType": "bool",
          "name": "nft",
          "type": "bool"
        },
        {
          "indexed": true,
          "internalType": "address",
          "name": "depositor",
          "type": "address"
        },
        {
          "indexed": true,
          "internalType": "address",
          "name": "receiver",
          "type": "address"
        },
        {
          "indexed": false,
          "internalType": "address",
          "name": "resolver",
          "type": "address"
        },
        {
          "indexed": false,
          "internalType": "address",
          "name": "token",
          "type": "address"
        },
        {
          "indexed": false,
          "internalType": "uint256",
          "name": "sum",
          "type": "uint256"
        },
        {
          "indexed": false,
          "internalType": "uint256",
          "name": "termination",
          "type": "uint256"
        },
        {
          "indexed": true,
          "internalType": "uint256",
          "name": "registration",
          "type": "uint256"
        },
        {
          "indexed": false,
          "internalType": "string",
          "name": "details",
          "type": "string"
        }
      ],
      "name": "Deposit",
      "type": "event"
    },
    {
      "anonymous": false,
      "inputs": [
        {
          "indexed": true,
          "internalType": "address",
          "name": "depositor",
          "type": "address"
        },
        {
          "indexed": true,
          "internalType": "address",
          "name": "receiver",
          "type": "address"
        }
      ],
      "name": "DepositInvoiceSig",
      "type": "event"
    },
    {
      "anonymous": false,
      "inputs": [
        {
          "indexed": true,
          "internalType": "uint256",
          "name": "registration",
          "type": "uint256"
        },
        {
          "indexed": false,
          "internalType": "string",
          "name": "details",
          "type": "string"
        }
      ],
      "name": "Lock",
      "type": "event"
    },
    {
      "anonymous": false,
      "inputs": [
        {
          "indexed": true,
          "internalType": "uint256",
          "name": "index",
          "type": "uint256"
        },
        {
          "indexed": false,
          "internalType": "string",
          "name": "agreement",
          "type": "string"
        }
      ],
      "name": "RegisterAgreement",
      "type": "event"
    },
    {
      "anonymous": false,
      "inputs": [
        {
          "indexed": true,
          "internalType": "address",
          "name": "resolver",
          "type": "address"
        },
        {
          "indexed": true,
          "internalType": "bool",
          "name": "active",
          "type": "bool"
        },
        {
          "indexed": true,
          "internalType": "uint256",
          "name": "fee",
          "type": "uint256"
        }
      ],
      "name": "RegisterResolver",
      "type": "event"
    },
    {
      "anonymous": false,
      "inputs": [
        {
          "indexed": true,
          "internalType": "uint256",
          "name": "registration",
          "type": "uint256"
        }
      ],
      "name": "Release",
      "type": "event"
    },
    {
      "anonymous": false,
      "inputs": [
        {
          "indexed": true,
          "internalType": "uint256",
          "name": "registration",
          "type": "uint256"
        },
        {
          "indexed": true,
          "internalType": "uint256",
          "name": "depositorAward",
          "type": "uint256"
        },
        {
          "indexed": true,
          "internalType": "uint256",
          "name": "receiverAward",
          "type": "uint256"
        },
        {
          "indexed": false,
          "internalType": "string",
          "name": "details",
          "type": "string"
        }
      ],
      "name": "Resolve",
      "type": "event"
    },
    {
      "anonymous": false,
      "inputs": [
        {
          "indexed": true,
          "internalType": "address",
          "name": "lexDAO",
          "type": "address"
        }
      ],
      "name": "UpdateLexDAO",
      "type": "event"
    },
    {
      "anonymous": false,
      "inputs": [
        {
          "indexed": true,
          "internalType": "uint256",
          "name": "registration",
          "type": "uint256"
        }
      ],
      "name": "Withdraw",
      "type": "event"
    },
    {
      "inputs": [],
      "name": "INVOICE_HASH",
      "outputs": [
        {
          "internalType": "bytes32",
          "name": "",
          "type": "bytes32"
        }
      ],
      "stateMutability": "view",
      "type": "function"
    },
    {
      "inputs": [
        {
          "internalType": "uint256",
          "name": "",
          "type": "uint256"
        }
      ],
      "name": "agreements",
      "outputs": [
        {
          "internalType": "string",
          "name": "",
          "type": "string"
        }
      ],
      "stateMutability": "view",
      "type": "function"
    },
    {
      "inputs": [
        {
          "internalType": "address",
          "name": "",
          "type": "address"
        }
      ],
      "name": "lastActionTimestamp",
      "outputs": [
        {
          "internalType": "uint256",
          "name": "",
          "type": "uint256"
        }
      ],
      "stateMutability": "view",
      "type": "function"
    },
    {
      "inputs": [],
      "name": "lexDAO",
      "outputs": [
        {
          "internalType": "address",
          "name": "",
          "type": "address"
        }
      ],
      "stateMutability": "view",
      "type": "function"
    },
    {
      "inputs": [],
      "name": "lockerCount",
      "outputs": [
        {
          "internalType": "uint256",
          "name": "",
          "type": "uint256"
        }
      ],
      "stateMutability": "view",
      "type": "function"
    },
    {
      "inputs": [
        {
          "internalType": "uint256",
          "name": "",
          "type": "uint256"
        }
      ],
      "name": "lockers",
      "outputs": [
        {
          "internalType": "bool",
          "name": "bento",
          "type": "bool"
        },
        {
          "internalType": "bool",
          "name": "nft",
          "type": "bool"
        },
        {
          "internalType": "bool",
          "name": "locked",
          "type": "bool"
        },
        {
          "internalType": "address",
          "name": "depositor",
          "type": "address"
        },
        {
          "internalType": "address",
          "name": "receiver",
          "type": "address"
        },
        {
          "internalType": "address",
          "name": "resolver",
          "type": "address"
        },
        {
          "internalType": "address",
          "name": "token",
          "type": "address"
        },
        {
          "internalType": "uint256",
          "name": "currentMilestone",
          "type": "uint256"
        },
        {
          "internalType": "uint256",
          "name": "paid",
          "type": "uint256"
        },
        {
          "internalType": "uint256",
          "name": "sum",
          "type": "uint256"
        },
        {
          "internalType": "uint256",
          "name": "termination",
          "type": "uint256"
        }
      ],
      "stateMutability": "view",
      "type": "function"
    },
    {
      "inputs": [
        {
          "internalType": "address",
          "name": "",
          "type": "address"
        }
      ],
      "name": "resolvers",
      "outputs": [
        {
          "internalType": "bool",
          "name": "active",
          "type": "bool"
        },
        {
          "internalType": "uint8",
          "name": "fee",
          "type": "uint8"
        }
      ],
      "stateMutability": "view",
      "type": "function"
    },
    {
      "inputs": [],
      "name": "DOMAIN_SEPARATOR",
      "outputs": [
        {
          "internalType": "bytes32",
          "name": "domainSeparator",
          "type": "bytes32"
        }
      ],
      "stateMutability": "view",
      "type": "function"
    },
    {
      "inputs": [
        {
          "internalType": "uint256",
          "name": "registration",
          "type": "uint256"
        }
      ],
      "name": "getMilestones",
      "outputs": [
        {
          "internalType": "uint256[]",
          "name": "milestones",
          "type": "uint256[]"
        }
      ],
      "stateMutability": "view",
      "type": "function"
    },
    {
      "inputs": [
        {
          "internalType": "address",
          "name": "receiver",
          "type": "address"
        },
        {
          "internalType": "address",
          "name": "resolver",
          "type": "address"
        },
        {
          "internalType": "address",
          "name": "token",
          "type": "address"
        },
        {
          "internalType": "uint256[]",
          "name": "value",
          "type": "uint256[]"
        },
        {
          "internalType": "uint256",
          "name": "termination",
          "type": "uint256"
        },
        {
          "internalType": "bool",
          "name": "nft",
          "type": "bool"
        },
        {
          "internalType": "string",
          "name": "details",
          "type": "string"
        }
      ],
      "name": "deposit",
      "outputs": [
        {
          "internalType": "uint256",
          "name": "registration",
          "type": "uint256"
        }
      ],
      "stateMutability": "payable",
      "type": "function"
    },
    {
      "inputs": [
        {
          "internalType": "address",
          "name": "receiver",
          "type": "address"
        },
        {
          "internalType": "address",
          "name": "resolver",
          "type": "address"
        },
        {
          "internalType": "address",
          "name": "token",
          "type": "address"
        },
        {
          "internalType": "uint256[]",
          "name": "value",
          "type": "uint256[]"
        },
        {
          "internalType": "uint256",
          "name": "termination",
          "type": "uint256"
        },
        {
          "internalType": "bool",
          "name": "wrapBento",
          "type": "bool"
        },
        {
          "internalType": "string",
          "name": "details",
          "type": "string"
        }
      ],
      "name": "depositBento",
      "outputs": [
        {
          "internalType": "uint256",
          "name": "registration",
          "type": "uint256"
        }
      ],
      "stateMutability": "payable",
      "type": "function"
    },
    {
      "inputs": [
        {
          "internalType": "address",
          "name": "receiver",
          "type": "address"
        },
        {
          "internalType": "address",
          "name": "resolver",
          "type": "address"
        },
        {
          "internalType": "address",
          "name": "token",
          "type": "address"
        },
        {
          "internalType": "uint256[]",
          "name": "value",
          "type": "uint256[]"
        },
        {
          "internalType": "uint256",
          "name": "termination",
          "type": "uint256"
        },
        {
          "internalType": "bool",
          "name": "bentoBoxed",
          "type": "bool"
        },
        {
          "internalType": "bool",
          "name": "nft",
          "type": "bool"
        },
        {
          "internalType": "bool",
          "name": "wrapBento",
          "type": "bool"
        },
        {
          "internalType": "string",
          "name": "details",
          "type": "string"
        },
        {
          "internalType": "uint8",
          "name": "v",
          "type": "uint8"
        },
        {
          "internalType": "bytes32",
          "name": "r",
          "type": "bytes32"
        },
        {
          "internalType": "bytes32",
          "name": "s",
          "type": "bytes32"
        }
      ],
      "name": "depositInvoiceSig",
      "outputs": [],
      "stateMutability": "payable",
      "type": "function"
    },
    {
      "inputs": [
        {
          "internalType": "uint256",
          "name": "registration",
          "type": "uint256"
        }
      ],
      "name": "release",
      "outputs": [],
      "stateMutability": "nonpayable",
      "type": "function"
    },
    {
      "inputs": [
        {
          "internalType": "uint256",
          "name": "registration",
          "type": "uint256"
        }
      ],
      "name": "withdraw",
      "outputs": [],
      "stateMutability": "nonpayable",
      "type": "function"
    },
    {
      "inputs": [
        {
          "internalType": "uint256",
          "name": "registration",
          "type": "uint256"
        },
        {
          "internalType": "string",
          "name": "details",
          "type": "string"
        }
      ],
      "name": "lock",
      "outputs": [],
      "stateMutability": "nonpayable",
      "type": "function"
    },
    {
      "inputs": [
        {
          "internalType": "uint256",
          "name": "registration",
          "type": "uint256"
        },
        {
          "internalType": "uint256",
          "name": "depositorAward",
          "type": "uint256"
        },
        {
          "internalType": "uint256",
          "name": "receiverAward",
          "type": "uint256"
        },
        {
          "internalType": "string",
          "name": "details",
          "type": "string"
        }
      ],
      "name": "resolve",
      "outputs": [],
      "stateMutability": "nonpayable",
      "type": "function"
    },
    {
      "inputs": [
        {
          "internalType": "bool",
          "name": "active",
          "type": "bool"
        },
        {
          "internalType": "uint8",
          "name": "fee",
          "type": "uint8"
        }
      ],
      "name": "registerResolver",
      "outputs": [],
      "stateMutability": "nonpayable",
      "type": "function"
    },
    {
      "inputs": [
        {
          "internalType": "uint256",
          "name": "index",
          "type": "uint256"
        },
        {
          "internalType": "string",
          "name": "agreement",
          "type": "string"
        }
      ],
      "name": "registerAgreement",
      "outputs": [],
      "stateMutability": "nonpayable",
      "type": "function"
    },
    {
      "inputs": [
        {
          "internalType": "address",
          "name": "lexDAO_",
          "type": "address"
        }
      ],
      "name": "updateLexDAO",
      "outputs": [],
      "stateMutability": "nonpayable",
      "type": "function"
    },
    {
      "inputs": [
        {
          "internalType": "bytes[]",
          "name": "data",
          "type": "bytes[]"
        }
      ],
      "name": "multicall",
      "outputs": [
        {
          "internalType": "bytes[]",
          "name": "results",
          "type": "bytes[]"
        }
      ],
      "stateMutability": "nonpayable",
      "type": "function"
    },
    {
      "inputs": [
        {
          "internalType": "address",
          "name": "token",
          "type": "address"
        },
        {
          "internalType": "uint256",
          "name": "amount",
          "type": "uint256"
        },
        {
          "internalType": "uint256",
          "name": "deadline",
          "type": "uint256"
        },
        {
          "internalType": "uint8",
          "name": "v",
          "type": "uint8"
        },
        {
          "internalType": "bytes32",
          "name": "r",
          "type": "bytes32"
        },
        {
          "internalType": "bytes32",
          "name": "s",
          "type": "bytes32"
        }
      ],
      "name": "permitThis",
      "outputs": [],
      "stateMutability": "nonpayable",
      "type": "function"
    },
    {
      "inputs": [
        {
          "internalType": "address",
          "name": "token",
          "type": "address"
        },
        {
          "internalType": "uint256",
          "name": "nonce",
          "type": "uint256"
        },
        {
          "internalType": "uint256",
          "name": "expiry",
          "type": "uint256"
        },
        {
          "internalType": "uint8",
          "name": "v",
          "type": "uint8"
        },
        {
          "internalType": "bytes32",
          "name": "r",
          "type": "bytes32"
        },
        {
          "internalType": "bytes32",
          "name": "s",
          "type": "bytes32"
        }
      ],
      "name": "permitThisAllowed",
      "outputs": [],
      "stateMutability": "nonpayable",
      "type": "function"
    },
    {
      "inputs": [
        {
          "internalType": "uint8",
          "name": "v",
          "type": "uint8"
        },
        {
          "internalType": "bytes32",
          "name": "r",
          "type": "bytes32"
        },
        {
          "internalType": "bytes32",
          "name": "s",
          "type": "bytes32"
        }
      ],
      "name": "setBentoApproval",
      "outputs": [],
      "stateMutability": "nonpayable",
      "type": "function"
    }
  ],
  "bytecode": "0x61010060405260016006553480156200001757600080fd5b5060405162003672380380620036728339810160408190526200003a91620001b4565b826001600160a01b031663aee4d1b26040518163ffffffff1660e01b8152600401600060405180830381600087803b1580156200007657600080fd5b505af11580156200008b573d6000803e3d6000fd5b505050506001600160a01b03838116608052600080546001600160a01b031916848316179055811660a0524660c0526200018e60408051808201825260098152682632bc2637b1b5b2b960b91b6020918201528151808301835260018152603160f81b9082015281517f8b73c3c69bb8fe3d512ecc4cf759cc79239f7b179b0ffacaa9a75d522b39400f818301527f9f7411dbc297709e272cb374e788f045cf9cef48feeb908dd1df3707532c37fa818401527fc89efdaa54c0f20c7adf612882df0950f5a951637e0307cdcb4c672f298b8bc660608201524660808201523060a0808301919091528351808303909101815260c0909101909252815191012090565b60e0525062000208915050565b6001600160a01b0381168114620001b157600080fd5b50565b600080600060608486031215620001ca57600080fd5b8351620001d7816200019b565b6020850151909350620001ea816200019b565b6040850151909250620001fd816200019b565b809150509250925092565b60805160a05160c05160e0516133ea620002886000396000610b7d01526000610a8401526000818161219201526121cb0152600081816105a0015281816108ce01528181610d040152818161119d01528181611236015281816112c801528181612221015281816122bb015281816122fe01526123ab01526133ea6000f3fe6080604052600436106101405760003560e01c806377631981116100b6578063b93793e91161006f578063b93793e91461048c578063bb026554146104de578063bd14de96146104f1578063ccd96eb61461051e578063f643509c14610534578063ff2a0df31461055457600080fd5b806377631981146102d4578063809aab92146102f457806385831633146103eb578063a9b62c231461041f578063ac9650d81461043f578063b2c43bac1461046c57600080fd5b806337bdc99b1161010857806337bdc99b146101fc57806342c549c01461021c5780634f411f7b1461024957806359466d9a146102815780636df9c3dc146102a1578063744b5db6146102b457600080fd5b806312e3fd1f14610145578063148ea1a4146101675780632669714b146101a75780632e1a7d4d146101c75780633644e515146101e7575b600080fd5b34801561015157600080fd5b50610165610160366004612a2d565b610567565b005b34801561017357600080fd5b50610194610182366004612a77565b60056020526000908152604090205481565b6040519081526020015b60405180910390f35b3480156101b357600080fd5b506101656101c2366004612ab2565b610609565b3480156101d357600080fd5b506101656101e2366004612ae7565b61076b565b3480156101f357600080fd5b50610194610a80565b34801561020857600080fd5b50610165610217366004612ae7565b610b9f565b34801561022857600080fd5b5061023c610237366004612ae7565b610f29565b60405161019e9190612b00565b34801561025557600080fd5b50600054610269906001600160a01b031681565b6040516001600160a01b03909116815260200161019e565b34801561028d57600080fd5b5061016561029c366004612b8c565b610f8e565b6101656102af366004612d2e565b6114ea565b3480156102c057600080fd5b506101656102cf366004612e2e565b6116a5565b3480156102e057600080fd5b506101656102ef366004612e79565b611745565b34801561030057600080fd5b5061038261030f366004612ae7565b60036020819052600091825260409091208054600182015460028301549383015460058401546006850154600786015460089096015460ff808716986101008804821698620100008904909216976001600160a01b0363010000009091048116978116969181169591169390929091908b565b604080519b15158c5299151560208c0152971515988a01989098526001600160a01b0395861660608a0152938516608089015291841660a088015290921660c086015260e08501919091526101008401526101208301919091526101408201526101600161019e565b3480156103f757600080fd5b506101947f0686b1187eca3c6b95b4cac603085a7185455f66b05e91dc4f8be4646f05589181565b34801561042b57600080fd5b5061016561043a366004612e79565b611856565b34801561044b57600080fd5b5061045f61045a366004612ed1565b6118a7565b60405161019e9190612fa1565b34801561047857600080fd5b50610165610487366004612a77565b6119f3565b34801561049857600080fd5b506104c56104a7366004612a77565b60046020526000908152604090205460ff8082169161010090041682565b60408051921515835260ff90911660208301520161019e565b6101946104ec366004613003565b611a82565b3480156104fd57600080fd5b5061051161050c366004612ae7565b611e8f565b60405161019e91906130b6565b34801561052a57600080fd5b5061019460015481565b34801561054057600080fd5b5061016561054f366004612e2e565b611f29565b610194610562366004613003565b612017565b60405163c0a47c9360e01b81523360048201523060248201526001604482015260ff841660648201526084810183905260a481018290527f00000000000000000000000000000000000000000000000000000000000000006001600160a01b03169063c0a47c939060c401600060405180830381600087803b1580156105ec57600080fd5b505af1158015610600573d6000803e3d6000fd5b50505050505050565b336000908152600560205260409020546249d4004291909103116106665760405162461bcd60e51b815260206004820152600f60248201526e2727aa2fa1a7a7a622a22fa227aba760891b60448201526064015b60405180910390fd5b6006546001146106885760405162461bcd60e51b815260040161065d906130c9565b600260065560ff81166106dd5760405162461bcd60e51b815260206004820152601d60248201527f4645455f4d5553545f42455f475245415445525f5448414e5f5a45524f000000604482015260640161065d565b60408051808201825283151580825260ff84811660208085018281523360008181526004845288812097518854935161ffff1990941690151561ff00191617610100939096169290920294909417909555600590528484204290559351919290917ffcc84135f183b742bb0da01339486410059e7c28b738caa475534504bb8ef7d19190a450506001600655565b60065460011461078d5760405162461bcd60e51b815260040161065d906130c9565b600260065560008181526003602052604090208054630100000090046001600160a01b031633146107f05760405162461bcd60e51b815260206004820152600d60248201526c2727aa2fa222a827a9a4aa27a960991b604482015260640161065d565b805462010000900460ff16156108185760405162461bcd60e51b815260040161065d906130c9565b806008015442101561085d5760405162461bcd60e51b815260206004820152600e60248201526d1393d517d511549352539055115160921b604482015260640161065d565b60038101546001600160a01b031661089c5780546006820154600783015461089792630100000090046001600160a01b0316919003612665565b6109d9565b805460ff1615610950576003810154815460068301546007840154604051633c6340f360e21b81526001600160a01b037f000000000000000000000000000000000000000000000000000000000000000081169563f18d03cc956109199591831694309463010000009092049093169291909103906004016130e9565b600060405180830381600087803b15801561093357600080fd5b505af1158015610947573d6000803e3d6000fd5b505050506109d9565b8054610100900460ff1661098f576003810154815460068301546007840154610897936001600160a01b03908116936301000000900416919003612703565b600381015481546004830180546109d9936001600160a01b039081169330936301000000909104909116916000906109c9576109c9613113565b9060005260206000200154612810565b6000828152600360208190526040822080546001600160b81b03191681556001810180546001600160a01b031990811690915560028201805482169055918101805490921690915590610a2f6004830182612922565b506000600582018190556006820181905560078201819055600890910181905560405183917f5b6b431d4476a211bb7d41c20d1aab9ae2321deee0d20be3d9fc9b1093fa6e3d91a250506001600655565b60007f00000000000000000000000000000000000000000000000000000000000000004614610b7a575060408051808201825260098152682632bc2637b1b5b2b960b91b6020918201528151808301835260018152603160f81b9082015281517f8b73c3c69bb8fe3d512ecc4cf759cc79239f7b179b0ffacaa9a75d522b39400f818301527f9f7411dbc297709e272cb374e788f045cf9cef48feeb908dd1df3707532c37fa818401527fc89efdaa54c0f20c7adf612882df0950f5a951637e0307cdcb4c672f298b8bc660608201524660808201523060a0808301919091528351808303909101815260c0909101909252815191012090565b507f000000000000000000000000000000000000000000000000000000000000000090565b600654600114610bc15760405162461bcd60e51b815260040161065d906130c9565b60026006556000818152600360205260409020805462010000900460ff1615610bfc5760405162461bcd60e51b815260040161065d906130c9565b8054630100000090046001600160a01b03163314610c4c5760405162461bcd60e51b815260206004820152600d60248201526c2727aa2fa222a827a9a4aa27a960991b604482015260640161065d565b60038101546001600160a01b0316610cdb5760018101546005820154600483018054610c9b936001600160a01b031692908110610c8b57610c8b613113565b9060005260206000200154612665565b80600401816005015481548110610cb457610cb4613113565b60009182526020909120015460068201805490910190556005810180546001019055610e70565b805460ff1615610dba576003810154600182015460058301546004840180546001600160a01b037f000000000000000000000000000000000000000000000000000000000000000081169563f18d03cc9590821694309492909116928110610d4557610d45613113565b90600052602060002001546040518563ffffffff1660e01b8152600401610d6f94939291906130e9565b600060405180830381600087803b158015610d8957600080fd5b505af1158015610d9d573d6000803e3d6000fd5b5050505080600401816005015481548110610cb457610cb4613113565b8054610100900460ff16610e0e57600381015460018201546005830154600484018054610c9b946001600160a01b03908116941692908110610dfe57610dfe613113565b9060005260206000200154612703565b60038101546001820154600483018054610e42936001600160a01b039081169330939116916000906109c9576109c9613113565b80600401600081548110610e5857610e58613113565b60009182526020909120015460068201805490910190555b806007015481600601541415610ef5576000828152600360208190526040822080546001600160b81b03191681556001810180546001600160a01b031990811690915560028201805482169055918101805490921690915590610ed66004830182612922565b5060006005820181905560068201819055600782018190556008909101555b60405182907fcf95d1fe0feb1424b6916a8d99a225f598710466d34c5a755770a1d4d49311a090600090a250506001600655565b600081815260036020908152604091829020600401805483518184028101840190945280845260609392830182828015610f8257602002820191906000526020600020905b815481526020019060010190808311610f6e575b50505050509050919050565b600654600114610fb05760405162461bcd60e51b815260040161065d906130c9565b600260069081556000868152600360205260408120918201546007830154610fd8919061313f565b60028301549091506001600160a01b031633146110265760405162461bcd60e51b815260206004820152600c60248201526b2727aa2fa922a9a7a62b22a960a11b604482015260640161065d565b815462010000900460ff1661106a5760405162461bcd60e51b815260206004820152600a6024820152691393d517d313d0d2d15160b21b604482015260640161065d565b806110758688613156565b146110b25760405162461bcd60e51b815260206004820152600d60248201526c2727aa2fa922a6a0a4a72222a960991b604482015260640161065d565b60028201546001600160a01b03166000908152600460205260408120546110e190610100900460ff168361316e565b90506110ee60028261316e565b6110f8908861313f565b965061110560028261316e565b61110f908761313f565b60038401549096506001600160a01b031661117557825461114090630100000090046001600160a01b031688612665565b6001830154611158906001600160a01b031687612665565b6002830154611170906001600160a01b031682612665565b611427565b825460ff161561133e5760038301548354604051633c6340f360e21b81526001600160a01b037f000000000000000000000000000000000000000000000000000000000000000081169363f18d03cc936111e393918316923092630100000090920416908d906004016130e9565b600060405180830381600087803b1580156111fd57600080fd5b505af1158015611211573d6000803e3d6000fd5b5050505060038301546001840154604051633c6340f360e21b81526001600160a01b037f000000000000000000000000000000000000000000000000000000000000000081169363f18d03cc93611275939183169230929116908c906004016130e9565b600060405180830381600087803b15801561128f57600080fd5b505af11580156112a3573d6000803e3d6000fd5b5050505060038301546002840154604051633c6340f360e21b81526001600160a01b037f000000000000000000000000000000000000000000000000000000000000000081169363f18d03cc936113079391831692309291169087906004016130e9565b600060405180830381600087803b15801561132157600080fd5b505af1158015611335573d6000803e3d6000fd5b50505050611427565b8254610100900460ff166113b35760038301548354611371916001600160a01b0390811691630100000090041689612703565b60038301546001840154611392916001600160a01b03908116911688612703565b60038301546002840154611170916001600160a01b03908116911683612703565b86156113f35760038301548354600485018054611170936001600160a01b039081169330936301000000909104909116916000906109c9576109c9613113565b60038301546001840154600485018054611427936001600160a01b039081169330939116916000906109c9576109c9613113565b6000888152600360208190526040822080546001600160b81b03191681556001810180546001600160a01b03199081169091556002820180548216905591810180549092169091559061147d6004830182612922565b600582016000905560068201600090556007820160009055600882016000905550508587897f6eb850ab7e146f6edb53acb7f95559fba222c26806e2a2ba2c5056043af7098388886040516114d3929190613190565b60405180910390a450506001600655505050505050565b60006114f4610a80565b7f0686b1187eca3c6b95b4cac603085a7185455f66b05e91dc4f8be4646f055891338f8f8960405160200161152d9594939291906131bf565b6040516020818303038152906040528051906020012060405160200161156a92919061190160f01b81526002810192909252602282015260420190565b60408051601f198184030181528282528051602091820120600080855291840180845281905260ff88169284019290925260608301869052608083018590529092509060019060a0016020604051602081039080840390855afa1580156115d5573d6000803e3d6000fd5b5050506020604051035190508d6001600160a01b0316816001600160a01b0316146116345760405162461bcd60e51b815260206004820152600f60248201526e494e56414c49445f494e564f49434560881b604482015260640161065d565b8861164e576116488e8e8e8e8e8d8c611a82565b5061165f565b61165d8e8e8e8e8e8c8c612017565b505b6040516001600160a01b038f169033907fdb7dd26da71b644d169a0b3d86a9a13fdb4ab8903527408cb23f8f9b0065d3c790600090a35050505050505050505050505050565b6000546001600160a01b031633146116ec5760405162461bcd60e51b815260206004820152600a6024820152694e4f545f4c455844414f60b01b604482015260640161065d565b6000838152600260205260409020611705908383612943565b50827fd68bcd6f84001ed66f1083ec342e3ad7038be2c24bd39561b29ff3d405cd17d48383604051611738929190613190565b60405180910390a2505050565b6040513360248201523060448201526064810186905260848101859052600160a482015260ff841660c482015260e4810183905261010481018290526000906001600160a01b03881690638fcbaf0c90610124015b6040516020818303038152906040529060e01b6020820180516001600160e01b0383818316178352505050506040516117d391906131f9565b6000604051808303816000865af19150503d8060008114611810576040519150601f19603f3d011682016040523d82523d6000602084013e611815565b606091505b50509050806106005760405162461bcd60e51b815260206004820152600d60248201526c14115493525517d19052531151609a1b604482015260640161065d565b604051336024820152306044820152606481018690526084810185905260ff841660a482015260c4810183905260e481018290526000906001600160a01b0388169063d505accf906101040161179a565b6060816001600160401b038111156118c1576118c1612bec565b6040519080825280602002602001820160405280156118f457816020015b60608152602001906001900390816118df5790505b50905060005b828110156119ec576000803086868581811061191857611918613113565b905060200281019061192a9190613215565b60405161193892919061325b565b600060405180830381855af49150503d8060008114611973576040519150601f19603f3d011682016040523d82523d6000602084013e611978565b606091505b5091509150816119c45760448151101561199157600080fd5b600481019050808060200190518101906119ab919061326b565b60405162461bcd60e51b815260040161065d91906130b6565b808484815181106119d7576119d7613113565b602090810291909101015250506001016118fa565b5092915050565b6000546001600160a01b03163314611a3a5760405162461bcd60e51b815260206004820152600a6024820152694e4f545f4c455844414f60b01b604482015260640161065d565b600080546001600160a01b0319166001600160a01b038316908117825560405190917f825a66cec4462a68a7a7c3488ce373198080660f3e29fa9b969527a2e83be60091a250565b6000600654600114611aa65760405162461bcd60e51b815260040161065d906130c9565b60026006556001600160a01b03871660009081526004602052604090205460ff16611b095760405162461bcd60e51b81526020600482015260136024820152725245534f4c5645525f4e4f545f41435449564560681b604482015260640161065d565b6001600160a01b0387163314801590611b345750876001600160a01b0316876001600160a01b031614155b611b7b5760405162461bcd60e51b81526020600482015260186024820152775245534f4c5645525f43414e4e4f545f42455f504152545960401b604482015260640161065d565b6000805b8651811015611bb357868181518110611b9a57611b9a613113565b6020026020010151820191508080600101915050611b7f565b503415611c1f57803414611bfb5760405162461bcd60e51b815260206004820152600f60248201526e57524f4e475f4d53475f56414c554560881b604482015260640161065d565b6001600160a01b03871615611c0f57600096505b8315611c1a57600093505b611c2b565b611c2b87333084612810565b60015491506040518061018001604052806000151581526020018515158152602001600015158152602001336001600160a01b031681526020018a6001600160a01b03168152602001896001600160a01b03168152602001886001600160a01b031681526020018781526020016000815260200160008152602001828152602001868152506003600084815260200190815260200160002060008201518160000160006101000a81548160ff02191690831515021790555060208201518160000160016101000a81548160ff02191690831515021790555060408201518160000160026101000a81548160ff02191690831515021790555060608201518160000160036101000a8154816001600160a01b0302191690836001600160a01b0316021790555060808201518160010160006101000a8154816001600160a01b0302191690836001600160a01b0316021790555060a08201518160020160006101000a8154816001600160a01b0302191690836001600160a01b0316021790555060c08201518160030160006101000a8154816001600160a01b0302191690836001600160a01b0316021790555060e0820151816004019080519060200190611df39291906129c7565b5061010082015160058201556101208201516006820155610140820151600782015561016090910151600890910155600180548101905560405182906001600160a01b038b169033907f16c4e9cb7d94a39f3a7405b76e4a26bc377010889b26dcfff85422d54ce25b5b90611e76906000908a908f908f908a908f908e906132e1565b60405180910390a4506001600655979650505050505050565b60026020526000908152604090208054611ea890613338565b80601f0160208091040260200160405190810160405280929190818152602001828054611ed490613338565b8015611f215780601f10611ef657610100808354040283529160200191611f21565b820191906000526020600020905b815481529060010190602001808311611f0457829003601f168201915b505050505081565b600654600114611f4b5760405162461bcd60e51b815260040161065d906130c9565b600260065560008381526003602052604090208054630100000090046001600160a01b0316331480611f89575060018101546001600160a01b031633145b611fc15760405162461bcd60e51b81526020600482015260096024820152684e4f545f504152545960b81b604482015260640161065d565b805462ff000019166201000017815560405184907f163e50b2645bed06053460d0680d98664bd767b646d786ade17af55001da517e906120049086908690613190565b60405180910390a2505060016006555050565b600060065460011461203b5760405162461bcd60e51b815260040161065d906130c9565b60026006556001600160a01b03871660009081526004602052604090205460ff1661209e5760405162461bcd60e51b81526020600482015260136024820152725245534f4c5645525f4e4f545f41435449564560681b604482015260640161065d565b6001600160a01b03871633148015906120c95750876001600160a01b0316876001600160a01b031614155b6121105760405162461bcd60e51b81526020600482015260186024820152775245534f4c5645525f43414e4e4f545f42455f504152545960401b604482015260640161065d565b6000805b86518110156121485786818151811061212f5761212f613113565b6020026020010151820191508080600101915050612114565b5034156122ae578034146121905760405162461bcd60e51b815260206004820152600f60248201526e57524f4e475f4d53475f56414c554560881b604482015260640161065d565b7f00000000000000000000000000000000000000000000000000000000000000006001600160a01b0316876001600160a01b0316146121ed577f000000000000000000000000000000000000000000000000000000000000000096505b60405162ae511b60e21b815260006004820181905230602483018190526044830152346064830181905260848301919091527f00000000000000000000000000000000000000000000000000000000000000006001600160a01b0316916302b9446c919060a40160408051808303818588803b15801561226c57600080fd5b505af1158015612280573d6000803e3d6000fd5b50505050506040513d601f19601f820116820180604052508101906122a59190613373565b91506124199050565b8315612394576122e087337f000000000000000000000000000000000000000000000000000000000000000084612810565b60405162ae511b60e21b81526001600160a01b0388811660048301527f000000000000000000000000000000000000000000000000000000000000000016602482018190523060448301526064820183905260006084830152906302b9446c9060a4016040805180830381600087803b15801561235c57600080fd5b505af1158015612370573d6000803e3d6000fd5b505050506040513d601f19601f820116820180604052508101906122a59190613373565b604051633c6340f360e21b81526001600160a01b037f0000000000000000000000000000000000000000000000000000000000000000169063f18d03cc906123e6908a903390309087906004016130e9565b600060405180830381600087803b15801561240057600080fd5b505af1158015612414573d6000803e3d6000fd5b505050505b6001549150604051806101800160405280600115158152602001600015158152602001600015158152602001336001600160a01b031681526020018a6001600160a01b03168152602001896001600160a01b03168152602001886001600160a01b031681526020018781526020016000815260200160008152602001828152602001868152506003600084815260200190815260200160002060008201518160000160006101000a81548160ff02191690831515021790555060208201518160000160016101000a81548160ff02191690831515021790555060408201518160000160026101000a81548160ff02191690831515021790555060608201518160000160036101000a8154816001600160a01b0302191690836001600160a01b0316021790555060808201518160010160006101000a8154816001600160a01b0302191690836001600160a01b0316021790555060a08201518160020160006101000a8154816001600160a01b0302191690836001600160a01b0316021790555060c08201518160030160006101000a8154816001600160a01b0302191690836001600160a01b0316021790555060e08201518160040190805190602001906125e29291906129c7565b5061010082015160058201556101208201516006820155610140820151600782015561016090910151600890910155600180548101905560405182906001600160a01b038b169033907f16c4e9cb7d94a39f3a7405b76e4a26bc377010889b26dcfff85422d54ce25b5b90611e769060009081908f908f908a908f908e906132e1565b6000826001600160a01b03168260405160006040518083038185875af1925050503d80600081146126b2576040519150601f19603f3d011682016040523d82523d6000602084013e6126b7565b606091505b50509050806126fe5760405162461bcd60e51b815260206004820152601360248201527211551217d514905394d1915497d19052531151606a1b604482015260640161065d565b505050565b604080516001600160a01b038481166024830152604480830185905283518084039091018152606490920183526020820180516001600160e01b031663a9059cbb60e01b179052915160009283929087169161275f91906131f9565b6000604051808303816000865af19150503d806000811461279c576040519150601f19603f3d011682016040523d82523d6000602084013e6127a1565b606091505b50915091508180156127cb5750805115806127cb5750808060200190518101906127cb9190613397565b6128095760405162461bcd60e51b815260206004820152600f60248201526e1514905394d1915497d19052531151608a1b604482015260640161065d565b5050505050565b604080516001600160a01b0385811660248301528481166044830152606480830185905283518084039091018152608490920183526020820180516001600160e01b03166323b872dd60e01b179052915160009283929088169161287491906131f9565b6000604051808303816000865af19150503d80600081146128b1576040519150601f19603f3d011682016040523d82523d6000602084013e6128b6565b606091505b50915091508180156128e05750805115806128e05750808060200190518101906128e09190613397565b61291a5760405162461bcd60e51b815260206004820152600b60248201526a1415531317d1905253115160aa1b604482015260640161065d565b505050505050565b50805460008255906000526020600020908101906129409190612a02565b50565b82805461294f90613338565b90600052602060002090601f01602090048101928261297157600085556129b7565b82601f1061298a5782800160ff198235161785556129b7565b828001600101855582156129b7579182015b828111156129b757823582559160200191906001019061299c565b506129c3929150612a02565b5090565b8280548282559060005260206000209081019282156129b7579160200282015b828111156129b75782518255916020019190600101906129e7565b5b808211156129c35760008155600101612a03565b803560ff81168114612a2857600080fd5b919050565b600080600060608486031215612a4257600080fd5b612a4b84612a17565b95602085013595506040909401359392505050565b80356001600160a01b0381168114612a2857600080fd5b600060208284031215612a8957600080fd5b612a9282612a60565b9392505050565b801515811461294057600080fd5b8035612a2881612a99565b60008060408385031215612ac557600080fd5b8235612ad081612a99565b9150612ade60208401612a17565b90509250929050565b600060208284031215612af957600080fd5b5035919050565b6020808252825182820181905260009190848201906040850190845b81811015612b3857835183529284019291840191600101612b1c565b50909695505050505050565b60008083601f840112612b5657600080fd5b5081356001600160401b03811115612b6d57600080fd5b602083019150836020828501011115612b8557600080fd5b9250929050565b600080600080600060808688031215612ba457600080fd5b85359450602086013593506040860135925060608601356001600160401b03811115612bcf57600080fd5b612bdb88828901612b44565b969995985093965092949392505050565b634e487b7160e01b600052604160045260246000fd5b604051601f8201601f191681016001600160401b0381118282101715612c2a57612c2a612bec565b604052919050565b600082601f830112612c4357600080fd5b813560206001600160401b03821115612c5e57612c5e612bec565b8160051b612c6d828201612c02565b9283528481018201928281019087851115612c8757600080fd5b83870192505b84831015612ca657823582529183019190830190612c8d565b979650505050505050565b60006001600160401b03821115612cca57612cca612bec565b50601f01601f191660200190565b600082601f830112612ce957600080fd5b8135612cfc612cf782612cb1565b612c02565b818152846020838601011115612d1157600080fd5b816020850160208301376000918101602001919091529392505050565b6000806000806000806000806000806000806101808d8f031215612d5157600080fd5b612d5a8d612a60565b9b50612d6860208e01612a60565b9a50612d7660408e01612a60565b99506001600160401b0360608e01351115612d9057600080fd5b612da08e60608f01358f01612c32565b985060808d01359750612db560a08e01612aa7565b9650612dc360c08e01612aa7565b9550612dd160e08e01612aa7565b94506001600160401b036101008e01351115612dec57600080fd5b612dfd8e6101008f01358f01612cd8565b9350612e0c6101208e01612a17565b92506101408d013591506101608d013590509295989b509295989b509295989b565b600080600060408486031215612e4357600080fd5b8335925060208401356001600160401b03811115612e6057600080fd5b612e6c86828701612b44565b9497909650939450505050565b60008060008060008060c08789031215612e9257600080fd5b612e9b87612a60565b95506020870135945060408701359350612eb760608801612a17565b92506080870135915060a087013590509295509295509295565b60008060208385031215612ee457600080fd5b82356001600160401b0380821115612efb57600080fd5b818501915085601f830112612f0f57600080fd5b813581811115612f1e57600080fd5b8660208260051b8501011115612f3357600080fd5b60209290920196919550909350505050565b60005b83811015612f60578181015183820152602001612f48565b83811115612f6f576000848401525b50505050565b60008151808452612f8d816020860160208601612f45565b601f01601f19169290920160200192915050565b6000602080830181845280855180835260408601915060408160051b870101925083870160005b82811015612ff657603f19888603018452612fe4858351612f75565b94509285019290850190600101612fc8565b5092979650505050505050565b600080600080600080600060e0888a03121561301e57600080fd5b61302788612a60565b965061303560208901612a60565b955061304360408901612a60565b945060608801356001600160401b038082111561305f57600080fd5b61306b8b838c01612c32565b955060808a0135945060a08a0135915061308482612a99565b90925060c0890135908082111561309a57600080fd5b506130a78a828b01612cd8565b91505092959891949750929550565b602081526000612a926020830184612f75565b6020808252600690820152651313d0d2d15160d21b604082015260600190565b6001600160a01b039485168152928416602084015292166040820152606081019190915260800190565b634e487b7160e01b600052603260045260246000fd5b634e487b7160e01b600052601160045260246000fd5b60008282101561315157613151613129565b500390565b6000821982111561316957613169613129565b500190565b60008261318b57634e487b7160e01b600052601260045260246000fd5b500490565b60208152816020820152818360408301376000818301604090810191909152601f909201601f19160101919050565b8581526001600160a01b03858116602083015284811660408301528316606082015260a060808201819052600090612ca690830184612f75565b6000825161320b818460208701612f45565b9190910192915050565b6000808335601e1984360301811261322c57600080fd5b8301803591506001600160401b0382111561324657600080fd5b602001915036819003821315612b8557600080fd5b8183823760009101908152919050565b60006020828403121561327d57600080fd5b81516001600160401b0381111561329357600080fd5b8201601f810184136132a457600080fd5b80516132b2612cf782612cb1565b8181528560208385010111156132c757600080fd5b6132d8826020830160208601612f45565b95945050505050565b871515815286151560208201526001600160a01b038681166040830152851660608201526080810184905260a0810183905260e060c0820181905260009061332b90830184612f75565b9998505050505050505050565b600181811c9082168061334c57607f821691505b6020821081141561336d57634e487b7160e01b600052602260045260246000fd5b50919050565b6000806040838503121561338657600080fd5b505080516020909101519092909150565b6000602082840312156133a957600080fd5b8151612a9281612a9956fea2646970667358221220360cbe39a93e0050a76d73cae37d037b49b86ac837d7a452108e50689671528364736f6c63430008090033",
  "immutableReferences": {
    "57": [
      {
        "length": 32,
        "start": 1440
      },
      {
        "length": 32,
        "start": 2254
      },
      {
        "length": 32,
        "start": 3332
      },
      {
        "length": 32,
        "start": 4509
      },
      {
        "length": 32,
        "start": 4662
      },
      {
        "length": 32,
        "start": 4808
      },
      {
        "length": 32,
        "start": 8737
      },
      {
        "length": 32,
        "start": 8891
      },
      {
        "length": 32,
        "start": 8958
      },
      {
        "length": 32,
        "start": 9131
      }
    ],
    "61": [
      {
        "length": 32,
        "start": 8594
      },
      {
        "length": 32,
        "start": 8651
      }
    ],
    "66": [
      {
        "length": 32,
        "start": 2692
      }
    ],
    "69": [
      {
        "length": 32,
        "start": 2941
      }
    ]
  },
  "source": "/**\n *Submitted for verification at Etherscan.io on 2021-10-30\n*/\n\n// SPDX-License-Identifier: GPL-3.0-or-later\n\npragma solidity 0.8.9;\n\n/// @notice Minimal BentoBox vault interface.\n/// @dev `token` is aliased as `address` from `IERC20` for simplicity.\ninterface IBentoBoxMinimal {\n    /// @notice Registers contract so that users can approve it for BentoBox.\n    function registerProtocol() external;\n\n    /// @notice Provides way for users to sign approval for BentoBox spends.\n    function setMasterContractApproval(\n        address user,\n        address masterContract,\n        bool approved,\n        uint8 v,\n        bytes32 r,\n        bytes32 s\n    ) external;\n\n    /// @notice Deposit an amount of `token` represented in either `amount` or `share`.\n    /// @param token_ The ERC-20 token to deposit.\n    /// @param from which account to pull the tokens.\n    /// @param to which account to push the tokens.\n    /// @param amount Token amount in native representation to deposit.\n    /// @param share Token amount represented in shares to deposit. Takes precedence over `amount`.\n    /// @return amountOut The amount deposited.\n    /// @return shareOut The deposited amount represented in shares.\n    function deposit(\n        address token_,\n        address from,\n        address to,\n        uint256 amount,\n        uint256 share\n    ) external payable returns (uint256 amountOut, uint256 shareOut);\n\n    /// @notice Transfer shares from a user account to another one.\n    /// @param token The ERC-20 token to transfer.\n    /// @param from which user to pull the tokens.\n    /// @param to which user to push the tokens.\n    /// @param share The amount of `token` in shares.\n    function transfer(\n        address token,\n        address from,\n        address to,\n        uint256 share\n    ) external;\n}\n\n/// @notice Bilateral escrow for ETH and ERC-20/721 tokens with BentoBox integration.\n/// @author LexDAO LLC.\ncontract LexLocker {\n    IBentoBoxMinimal immutable bento;\n    address public lexDAO;\n    address immutable wETH;\n\n    uint256 public lockerCount;\n\n    /// @dev Chain Id at this contract's deployment.\n    uint256 immutable DOMAIN_SEPARATOR_CHAIN_ID;\n    /// @dev EIP-712 typehash for this contract's domain at deployment.\n    bytes32 immutable _DOMAIN_SEPARATOR;\n\n    bytes32 public constant INVOICE_HASH = keccak256(\"DepositInvoiceSig(address depositor,address receiver,address resolver,string details)\");\n\n    mapping(uint256 => string) public agreements;\n    mapping(uint256 => Locker) public lockers;\n    mapping(address => Resolver) public resolvers;\n    mapping(address => uint256) public lastActionTimestamp;\n\n    /// @notice Initialize contract.\n    /// @param bento_ BentoBox vault contract.\n    /// @param lexDAO_ Legal engineering guild.\n    /// @param wETH_ Wrapped ether (or native asset) supported on BentoBox.\n    constructor(IBentoBoxMinimal bento_, address lexDAO_, address wETH_) {\n        bento_.registerProtocol();\n        bento = bento_;\n        lexDAO = lexDAO_;\n        wETH = wETH_;\n\n        DOMAIN_SEPARATOR_CHAIN_ID = block.chainid;\n        _DOMAIN_SEPARATOR = _calculateDomainSeparator();\n    }\n\n    /// @dev Events to assist web3 applications.\n    event Deposit(\n        bool bento,\n        bool nft,\n        address indexed depositor,\n        address indexed receiver,\n        address resolver,\n        address token,\n        uint256 sum,\n        uint256 termination,\n        uint256 indexed registration,\n        string details);\n    event DepositInvoiceSig(address indexed depositor, address indexed receiver);\n    event Release(uint256 indexed registration);\n    event Withdraw(uint256 indexed registration);\n    event Lock(uint256 indexed registration, string details);\n    event Resolve(uint256 indexed registration, uint256 indexed depositorAward, uint256 indexed receiverAward, string details);\n    event RegisterResolver(address indexed resolver, bool indexed active, uint256 indexed fee);\n    event RegisterAgreement(uint256 indexed index, string agreement);\n    event UpdateLexDAO(address indexed lexDAO);\n\n    /// @dev Tracks registered escrow status.\n    struct Locker {\n        bool bento;\n        bool nft;\n        bool locked;\n        address depositor;\n        address receiver;\n        address resolver;\n        address token;\n        uint256[] value;\n        uint256 currentMilestone;\n        uint256 paid;\n        uint256 sum;\n        uint256 termination;\n    }\n\n    /// @dev Tracks registered resolver status.\n    struct Resolver {\n        bool active;\n        uint8 fee;\n    }\n\n    /// @dev Ensures registered resolver cooldown.\n    modifier cooldown() {\n        unchecked {\n            require(block.timestamp - lastActionTimestamp[msg.sender] > 8 weeks, \"NOT_COOLED_DOWN\");\n        }\n        _;\n    }\n\n    /// @dev Reentrancy guard.\n    uint256 unlocked = 1;\n    modifier nonReentrant() {\n        require(unlocked == 1, \"LOCKED\");\n        unlocked = 2;\n        _;\n        unlocked = 1;\n    }\n\n    /// @notice EIP-712 typehash for this contract's domain.\n    function DOMAIN_SEPARATOR() public view returns (bytes32 domainSeparator) {\n        domainSeparator = block.chainid == DOMAIN_SEPARATOR_CHAIN_ID ? _DOMAIN_SEPARATOR : _calculateDomainSeparator();\n    }\n\n    function _calculateDomainSeparator() private view returns (bytes32 domainSeparator) {\n        domainSeparator = keccak256(\n            abi.encode(\n                keccak256(\"EIP712Domain(string name,string version,uint256 chainId,address verifyingContract)\"),\n                keccak256(bytes(\"LexLocker\")),\n                keccak256(bytes(\"1\")),\n                block.chainid,\n                address(this)\n            )\n        );\n    }\n\n    // **** ESCROW PROTOCOL **** //\n    // ------------------------ //\n\n    /// @notice Returns escrow milestone deposits per `value` array.\n    /// @param registration The index of escrow deposit.\n    function getMilestones(uint256 registration) external view returns (uint256[] memory milestones) {\n        milestones = lockers[registration].value;\n    }\n\n    /// @notice Deposits tokens (ERC-20/721) into escrow\n    /// - locked funds can be released by `msg.sender` `depositor`\n    /// - both parties can {lock} for `resolver`.\n    /// @param receiver The account that receives funds.\n    /// @param resolver The account that unlock funds.\n    /// @param token The asset used for funds.\n    /// @param value The amount of funds in milestones - if `nft`, the 'tokenId' in first value is used.\n    /// @param termination Unix time upon which `depositor` can claim back funds.\n    /// @param nft If 'false', ERC-20 is assumed, otherwise, non-fungible asset.\n    /// @param details Describes context of escrow - stamped into event.\n    function deposit(\n        address receiver,\n        address resolver,\n        address token,\n        uint256[] memory value,\n        uint256 termination,\n        bool nft,\n        string memory details\n    ) public payable nonReentrant returns (uint256 registration) {\n        require(resolvers[resolver].active, \"RESOLVER_NOT_ACTIVE\");\n        require(resolver != msg.sender && resolver != receiver, \"RESOLVER_CANNOT_BE_PARTY\"); // Avoid conflicts.\n\n        // Tally up `sum` from `value` milestones.\n        uint256 sum;\n        unchecked {\n            for (uint256 i = 0; i < value.length; i++) {\n                sum += value[i];\n            }\n        }\n\n        // Handle ETH/ERC-20/721 deposit.\n        if (msg.value != 0) {\n            require(msg.value == sum, \"WRONG_MSG_VALUE\");\n            // Overrides to clarify ETH is used.\n            if (token != address(0)) token = address(0);\n            if (nft) nft = false;\n        } else {\n            safeTransferFrom(token, msg.sender, address(this), sum);\n        }\n\n        registration = lockerCount;\n        lockers[registration] =\n            Locker(\n                false, nft, false, msg.sender, receiver, resolver, token, value, 0, 0, sum, termination);\n\n        // Increment registered lockers.\n        unchecked {\n            lockerCount++;\n        }\n\n        emit Deposit(false, nft, msg.sender, receiver, resolver, token, sum, termination, registration, details);\n    }\n\n    /// @notice Deposits tokens (ERC-20/721) into BentoBox escrow\n    /// - locked funds can be released by `msg.sender` `depositor`\n    /// - both parties can {lock} for `resolver`.\n    /// @param receiver The account that receives funds.\n    /// @param resolver The account that unlock funds.\n    /// @param token The asset used for funds (note: NFT not supported in BentoBox).\n    /// @param value The amount of funds in milestones (note: locker converts to 'shares').\n    /// @param termination Unix time upon which `depositor` can claim back funds.\n    /// @param wrapBento If 'false', raw ERC-20 is assumed, otherwise, BentoBox 'shares'.\n    /// @param details Describes context of escrow - stamped into event.\n    function depositBento(\n        address receiver,\n        address resolver,\n        address token,\n        uint256[] memory value,\n        uint256 termination,\n        bool wrapBento,\n        string memory details\n    ) public payable nonReentrant returns (uint256 registration) {\n        require(resolvers[resolver].active, \"RESOLVER_NOT_ACTIVE\");\n        require(resolver != msg.sender && resolver != receiver, \"RESOLVER_CANNOT_BE_PARTY\"); // Avoid conflicts.\n\n        // Tally up `sum` from `value` milestones.\n        uint256 sum;\n        unchecked {\n            for (uint256 i = 0; i < value.length; i++) {\n                sum += value[i];\n            }\n        }\n\n        // Handle ETH/ERC-20 deposit.\n        if (msg.value != 0) {\n            require(msg.value == sum, \"WRONG_MSG_VALUE\");\n            // Override to clarify wETH is used in BentoBox for ETH.\n            if (token != wETH) token = wETH;\n            (, sum) = bento.deposit{value: msg.value}(address(0), address(this), address(this), msg.value, 0);\n        } else if (wrapBento) {\n            safeTransferFrom(token, msg.sender, address(bento), sum);\n            (, sum) = bento.deposit(token, address(bento), address(this), sum, 0);\n        } else {\n            bento.transfer(token, msg.sender, address(this), sum);\n        }\n\n        registration = lockerCount;\n        lockers[registration] =\n        Locker(\n            true, false, false, msg.sender, receiver, resolver, token, value, 0, 0, sum, termination);\n\n        // Increment registered lockers.\n        unchecked {\n            lockerCount++;\n        }\n\n        emit Deposit(false, false, msg.sender, receiver, resolver, token, sum, termination, registration, details);\n    }\n\n    /// @notice Validates deposit request 'invoice' for locker escrow.\n    /// @param receiver The account that receives funds.\n    /// @param resolver The account that unlock funds.\n    /// @param token The asset used for funds.\n    /// @param value The amount of funds in milestones - if `nft`, the 'tokenId'.\n    /// @param termination Unix time upon which `depositor` can claim back funds.\n    /// @param bentoBoxed If 'false', regular deposit is assumed, otherwise, BentoBox.\n    /// @param nft If 'false', ERC-20 is assumed, otherwise, non-fungible asset.\n    /// @param wrapBento If 'false', raw ERC-20 is assumed, otherwise, BentoBox 'shares'.\n    /// @param details Describes context of escrow - stamped into event.\n    /// @param v The recovery byte of the signature.\n    /// @param r Half of the ECDSA signature pair.\n    /// @param s Half of the ECDSA signature pair.\n    function depositInvoiceSig(\n        address receiver,\n        address resolver,\n        address token,\n        uint256[] memory value,\n        uint256 termination,\n        bool bentoBoxed,\n        bool nft,\n        bool wrapBento,\n        string memory details,\n        uint8 v,\n        bytes32 r,\n        bytes32 s\n    ) public payable {\n        // Validate basic elements of invoice.\n        bytes32 digest =\n            keccak256(\n                abi.encodePacked(\n                    \"\\x19\\x01\",\n                    DOMAIN_SEPARATOR(),\n                    keccak256(\n                        abi.encode(\n                            INVOICE_HASH,\n                            msg.sender,\n                            receiver,\n                            resolver,\n                            details\n                        )\n                    )\n                )\n            );\n        address recoveredAddress = ecrecover(digest, v, r, s);\n        require(recoveredAddress == receiver, \"INVALID_INVOICE\");\n\n        // Perform deposit.\n        if (!bentoBoxed) {\n            deposit(receiver, resolver, token, value, termination, nft, details);\n        } else {\n            depositBento(receiver, resolver, token, value, termination, wrapBento, details);\n        }\n\n        emit DepositInvoiceSig(msg.sender, receiver);\n    }\n\n    /// @notice Releases escrowed assets to designated `receiver`\n    /// - can only be called by `depositor` if not `locked`\n    /// - can be called after `termination` as optional extension\n    /// - escrowed sum is released in order of `value` milestones array.\n    /// @param registration The index of escrow deposit.\n    function release(uint256 registration) external nonReentrant {\n        Locker storage locker = lockers[registration];\n\n        require(!locker.locked, \"LOCKED\");\n        require(msg.sender == locker.depositor, \"NOT_DEPOSITOR\");\n\n        unchecked {\n            // Handle asset transfer.\n            if (locker.token == address(0)) { // Release ETH.\n                safeTransferETH(locker.receiver, locker.value[locker.currentMilestone]);\n                locker.paid += locker.value[locker.currentMilestone];\n                locker.currentMilestone++;\n            } else if (locker.bento) { // Release BentoBox shares.\n                bento.transfer(locker.token, address(this), locker.receiver, locker.value[locker.currentMilestone]);\n                locker.paid += locker.value[locker.currentMilestone];\n                locker.currentMilestone++;\n            } else if (!locker.nft) { // ERC-20.\n                safeTransfer(locker.token, locker.receiver, locker.value[locker.currentMilestone]);\n                locker.paid += locker.value[locker.currentMilestone];\n                locker.currentMilestone++;\n            } else { // Release NFT (note: set to single milestone).\n                safeTransferFrom(locker.token, address(this), locker.receiver, locker.value[0]);\n                locker.paid += locker.value[0];\n            }\n        }\n\n        // If remainder paid out or NFT released, delete from storage.\n        if (locker.paid == locker.sum) {\n            delete lockers[registration];\n        }\n\n        emit Release(registration);\n    }\n\n    /// @notice Releases escrowed assets back to designated `depositor`\n    // - can only be called by `depositor` if `termination` reached.\n    /// @param registration The index of escrow deposit.\n    function withdraw(uint256 registration) external nonReentrant {\n        Locker storage locker = lockers[registration];\n\n        require(msg.sender == locker.depositor, \"NOT_DEPOSITOR\");\n        require(!locker.locked, \"LOCKED\");\n        require(block.timestamp >= locker.termination, \"NOT_TERMINATED\");\n\n        // Handle asset transfer.\n        unchecked {\n            if (locker.token == address(0)) { // Release ETH.\n                safeTransferETH(locker.depositor, locker.sum - locker.paid);\n            } else if (locker.bento) { // Release BentoBox shares.\n                bento.transfer(locker.token, address(this), locker.depositor, locker.sum - locker.paid);\n            } else if (!locker.nft) { // Release ERC-20.\n                safeTransfer(locker.token, locker.depositor, locker.sum - locker.paid);\n            } else { // Release NFT.\n                safeTransferFrom(locker.token, address(this), locker.depositor, locker.value[0]);\n            }\n        }\n\n        delete lockers[registration];\n\n        emit Withdraw(registration);\n    }\n\n    // **** DISPUTE PROTOCOL **** //\n    // ------------------------- //\n\n    /// @notice Locks escrowed assets for resolution - can only be called by locker parties.\n    /// @param registration The index of escrow deposit.\n    /// @param details Description of lock action (note: can link to secure dispute details, etc.).\n    function lock(uint256 registration, string calldata details) external nonReentrant {\n        Locker storage locker = lockers[registration];\n\n        require(msg.sender == locker.depositor || msg.sender == locker.receiver, \"NOT_PARTY\");\n\n        locker.locked = true;\n\n        emit Lock(registration, details);\n    }\n\n    /// @notice Resolves locked escrow deposit in split between parties - if NFT, must be complete award (so, one party receives '0')\n    // - `resolverFee` is automatically deducted from both parties' awards.\n    /// @param registration The registration index of escrow deposit.\n    /// @param depositorAward The sum given to `depositor`.\n    /// @param receiverAward The sum given to `receiver`.\n    /// @param details Description of resolution (note: can link to secure judgment details, etc.).\n    function resolve(uint256 registration, uint256 depositorAward, uint256 receiverAward, string calldata details) external nonReentrant {\n        Locker storage locker = lockers[registration];\n\n        uint256 remainder = locker.sum - locker.paid;\n\n        require(msg.sender == locker.resolver, \"NOT_RESOLVER\");\n        require(locker.locked, \"NOT_LOCKED\");\n        require(depositorAward + receiverAward == remainder, \"NOT_REMAINDER\");\n\n        // Calculate resolution fee from remainder and apply to awards.\n        uint256 resolverFee = remainder / resolvers[locker.resolver].fee;\n        depositorAward -= resolverFee / 2;\n        receiverAward -= resolverFee / 2;\n\n        // Handle asset transfers.\n        if (locker.token == address(0)) { // Split ETH.\n            safeTransferETH(locker.depositor, depositorAward);\n            safeTransferETH(locker.receiver, receiverAward);\n            safeTransferETH(locker.resolver, resolverFee);\n        } else if (locker.bento) { // ...BentoBox shares.\n            bento.transfer(locker.token, address(this), locker.depositor, depositorAward);\n            bento.transfer(locker.token, address(this), locker.receiver, receiverAward);\n            bento.transfer(locker.token, address(this), locker.resolver, resolverFee);\n        } else if (!locker.nft) { // ...ERC20.\n            safeTransfer(locker.token, locker.depositor, depositorAward);\n            safeTransfer(locker.token, locker.receiver, receiverAward);\n            safeTransfer(locker.token, locker.resolver, resolverFee);\n        } else { // Award NFT.\n            if (depositorAward != 0) {\n                safeTransferFrom(locker.token, address(this), locker.depositor, locker.value[0]);\n            } else {\n                safeTransferFrom(locker.token, address(this), locker.receiver, locker.value[0]);\n            }\n        }\n\n        delete lockers[registration];\n\n        emit Resolve(registration, depositorAward, receiverAward, details);\n    }\n\n    /// @notice Registers an account to serve as a potential `resolver`.\n    /// @param active Tracks willingness to serve - if 'true', can be joined to a locker.\n    /// @param fee The divisor to determine resolution fee - e.g., if '20', fee is 5% of locker.\n    function registerResolver(bool active, uint8 fee) external cooldown nonReentrant {\n        require(fee != 0, \"FEE_MUST_BE_GREATER_THAN_ZERO\");\n        resolvers[msg.sender] = Resolver(active, fee);\n        lastActionTimestamp[msg.sender] = block.timestamp;\n        emit RegisterResolver(msg.sender, active, fee);\n    }\n\n    // **** LEXDAO PROTOCOL **** //\n    // ------------------------ //\n\n    /// @notice Protocol for LexDAO to maintain agreements that can be stamped into lockers.\n    /// @param index # to register agreement under.\n    /// @param agreement Text or link to agreement, etc. - this allows for amendments.\n    function registerAgreement(uint256 index, string calldata agreement) external {\n        require(msg.sender == lexDAO, \"NOT_LEXDAO\");\n        agreements[index] = agreement;\n        emit RegisterAgreement(index, agreement);\n    }\n\n    /// @notice Protocol for LexDAO to update role.\n    /// @param lexDAO_ Account to assign role to.\n    function updateLexDAO(address lexDAO_) external {\n        require(msg.sender == lexDAO, \"NOT_LEXDAO\");\n        lexDAO = lexDAO_;\n        emit UpdateLexDAO(lexDAO_);\n    }\n\n    // **** BATCHER UTILITIES **** //\n    // -------------------------- //\n\n    /// @notice Enables calling multiple methods in a single call to this contract.\n    function multicall(bytes[] calldata data) external returns (bytes[] memory results) {\n        results = new bytes[](data.length);\n        unchecked {\n            for (uint256 i = 0; i < data.length; i++) {\n                (bool success, bytes memory result) = address(this).delegatecall(data[i]);\n                if (!success) {\n                    if (result.length < 68) revert();\n                    assembly {\n                        result := add(result, 0x04)\n                    }\n                    revert(abi.decode(result, (string)));\n                }\n                results[i] = result;\n            }\n        }\n    }\n\n    /// @notice Provides EIP-2612 signed approval for this contract to spend user tokens.\n    /// @param token Address of ERC-20 token.\n    /// @param amount Token amount to grant spending right over.\n    /// @param deadline Termination for signed approval in Unix time.\n    /// @param v The recovery byte of the signature.\n    /// @param r Half of the ECDSA signature pair.\n    /// @param s Half of the ECDSA signature pair.\n    function permitThis(\n        address token,\n        uint256 amount,\n        uint256 deadline,\n        uint8 v,\n        bytes32 r,\n        bytes32 s\n    ) external {\n        // permit(address,address,uint256,uint256,uint8,bytes32,bytes32).\n        (bool success, ) = token.call(abi.encodeWithSelector(0xd505accf, msg.sender, address(this), amount, deadline, v, r, s));\n        require(success, \"PERMIT_FAILED\");\n    }\n\n    /// @notice Provides DAI-derived signed approval for this contract to spend user tokens.\n    /// @param token Address of ERC-20 token.\n    /// @param nonce Token owner's nonce - increases at each call to {permit}.\n    /// @param expiry Termination for signed approval in Unix time.\n    /// @param v The recovery byte of the signature.\n    /// @param r Half of the ECDSA signature pair.\n    /// @param s Half of the ECDSA signature pair.\n    function permitThisAllowed(\n        address token,\n        uint256 nonce,\n        uint256 expiry,\n        uint8 v,\n        bytes32 r,\n        bytes32 s\n    ) external {\n        // permit(address,address,uint256,uint256,bool,uint8,bytes32,bytes32).\n        (bool success, ) = token.call(abi.encodeWithSelector(0x8fcbaf0c, msg.sender, address(this), nonce, expiry, true, v, r, s));\n        require(success, \"PERMIT_FAILED\");\n    }\n\n    /// @notice Provides way to sign approval for `bento` spends by locker.\n    /// @param v The recovery byte of the signature.\n    /// @param r Half of the ECDSA signature pair.\n    /// @param s Half of the ECDSA signature pair.\n    function setBentoApproval(uint8 v, bytes32 r, bytes32 s) external {\n        bento.setMasterContractApproval(msg.sender, address(this), true, v, r, s);\n    }\n\n    // **** TRANSFER HELPERS **** //\n    // ------------------------- //\n\n    /// @notice Provides 'safe' ERC-20 {transfer} for tokens that don't consistently return 'true/false'.\n    /// @param token Address of ERC-20 token.\n    /// @param recipient Account to send tokens to.\n    /// @param value Token amount to send.\n    function safeTransfer(address token, address recipient, uint256 value) private {\n        // transfer(address,uint256).\n        (bool success, bytes memory data) = token.call(abi.encodeWithSelector(0xa9059cbb, recipient, value));\n        require(success && (data.length == 0 || abi.decode(data, (bool))), \"TRANSFER_FAILED\");\n    }\n\n    /// @notice Provides 'safe' ERC-20/721 {transferFrom} for tokens that don't consistently return 'true/false'.\n    /// @param token Address of ERC-20/721 token.\n    /// @param sender Account to send tokens from.\n    /// @param recipient Account to send tokens to.\n    /// @param value Token amount to send - if NFT, 'tokenId'.\n    function safeTransferFrom(address token, address sender, address recipient, uint256 value) private {\n        // transferFrom(address,address,uint256).\n        (bool success, bytes memory data) = token.call(abi.encodeWithSelector(0x23b872dd, sender, recipient, value));\n        require(success && (data.length == 0 || abi.decode(data, (bool))), \"PULL_FAILED\");\n    }\n\n    /// @notice Provides 'safe' ETH transfer.\n    /// @param recipient Account to send ETH to.\n    /// @param value ETH amount to send.\n    function safeTransferETH(address recipient, uint256 value) private {\n        (bool success, ) = recipient.call{value: value}(\"\");\n        require(success, \"ETH_TRANSFER_FAILED\");\n    }\n}\n",
  "sourcePath": "/Users/jordanteague/Workspace/eth/100-days-of-solidity/LexLocker2/contracts/LexLocker.sol",
  "compiler": {
    "name": "solc",
    "version": "0.8.9+commit.e5eed63a.Emscripten.clang"
  },
  "schemaVersion": "3.4.3",
  "updatedAt": "2021-10-30T18:10:23.655Z",
  "devdoc": {
    "author": "LexDAO LLC.",
    "events": {
      "Deposit(bool,bool,address,address,address,address,uint256,uint256,uint256,string)": {
        "details": "Events to assist web3 applications."
      }
    },
    "kind": "dev",
    "methods": {
      "constructor": {
        "params": {
          "bento_": "BentoBox vault contract.",
          "lexDAO_": "Legal engineering guild.",
          "wETH_": "Wrapped ether (or native asset) supported on BentoBox."
        }
      },
      "deposit(address,address,address,uint256[],uint256,bool,string)": {
        "params": {
          "details": "Describes context of escrow - stamped into event.",
          "nft": "If 'false', ERC-20 is assumed, otherwise, non-fungible asset.",
          "receiver": "The account that receives funds.",
          "resolver": "The account that unlock funds.",
          "termination": "Unix time upon which `depositor` can claim back funds.",
          "token": "The asset used for funds.",
          "value": "The amount of funds in milestones - if `nft`, the 'tokenId' in first value is used."
        }
      },
      "depositBento(address,address,address,uint256[],uint256,bool,string)": {
        "params": {
          "details": "Describes context of escrow - stamped into event.",
          "receiver": "The account that receives funds.",
          "resolver": "The account that unlock funds.",
          "termination": "Unix time upon which `depositor` can claim back funds.",
          "token": "The asset used for funds (note: NFT not supported in BentoBox).",
          "value": "The amount of funds in milestones (note: locker converts to 'shares').",
          "wrapBento": "If 'false', raw ERC-20 is assumed, otherwise, BentoBox 'shares'."
        }
      },
      "depositInvoiceSig(address,address,address,uint256[],uint256,bool,bool,bool,string,uint8,bytes32,bytes32)": {
        "params": {
          "bentoBoxed": "If 'false', regular deposit is assumed, otherwise, BentoBox.",
          "details": "Describes context of escrow - stamped into event.",
          "nft": "If 'false', ERC-20 is assumed, otherwise, non-fungible asset.",
          "r": "Half of the ECDSA signature pair.",
          "receiver": "The account that receives funds.",
          "resolver": "The account that unlock funds.",
          "s": "Half of the ECDSA signature pair.",
          "termination": "Unix time upon which `depositor` can claim back funds.",
          "token": "The asset used for funds.",
          "v": "The recovery byte of the signature.",
          "value": "The amount of funds in milestones - if `nft`, the 'tokenId'.",
          "wrapBento": "If 'false', raw ERC-20 is assumed, otherwise, BentoBox 'shares'."
        }
      },
      "getMilestones(uint256)": {
        "params": {
          "registration": "The index of escrow deposit."
        }
      },
      "lock(uint256,string)": {
        "params": {
          "details": "Description of lock action (note: can link to secure dispute details, etc.).",
          "registration": "The index of escrow deposit."
        }
      },
      "permitThis(address,uint256,uint256,uint8,bytes32,bytes32)": {
        "params": {
          "amount": "Token amount to grant spending right over.",
          "deadline": "Termination for signed approval in Unix time.",
          "r": "Half of the ECDSA signature pair.",
          "s": "Half of the ECDSA signature pair.",
          "token": "Address of ERC-20 token.",
          "v": "The recovery byte of the signature."
        }
      },
      "permitThisAllowed(address,uint256,uint256,uint8,bytes32,bytes32)": {
        "params": {
          "expiry": "Termination for signed approval in Unix time.",
          "nonce": "Token owner's nonce - increases at each call to {permit}.",
          "r": "Half of the ECDSA signature pair.",
          "s": "Half of the ECDSA signature pair.",
          "token": "Address of ERC-20 token.",
          "v": "The recovery byte of the signature."
        }
      },
      "registerAgreement(uint256,string)": {
        "params": {
          "agreement": "Text or link to agreement, etc. - this allows for amendments.",
          "index": "# to register agreement under."
        }
      },
      "registerResolver(bool,uint8)": {
        "params": {
          "active": "Tracks willingness to serve - if 'true', can be joined to a locker.",
          "fee": "The divisor to determine resolution fee - e.g., if '20', fee is 5% of locker."
        }
      },
      "release(uint256)": {
        "params": {
          "registration": "The index of escrow deposit."
        }
      },
      "resolve(uint256,uint256,uint256,string)": {
        "params": {
          "depositorAward": "The sum given to `depositor`.",
          "details": "Description of resolution (note: can link to secure judgment details, etc.).",
          "receiverAward": "The sum given to `receiver`.",
          "registration": "The registration index of escrow deposit."
        }
      },
      "setBentoApproval(uint8,bytes32,bytes32)": {
        "params": {
          "r": "Half of the ECDSA signature pair.",
          "s": "Half of the ECDSA signature pair.",
          "v": "The recovery byte of the signature."
        }
      },
      "updateLexDAO(address)": {
        "params": {
          "lexDAO_": "Account to assign role to."
        }
      },
      "withdraw(uint256)": {
        "params": {
          "registration": "The index of escrow deposit."
        }
      }
    },
    "stateVariables": {
      "DOMAIN_SEPARATOR_CHAIN_ID": {
        "details": "Chain Id at this contract's deployment."
      },
      "_DOMAIN_SEPARATOR": {
        "details": "EIP-712 typehash for this contract's domain at deployment."
      },
      "unlocked": {
        "details": "Reentrancy guard."
      }
    },
    "version": 1
  },
  "userdoc": {
    "kind": "user",
    "methods": {
      "DOMAIN_SEPARATOR()": {
        "notice": "EIP-712 typehash for this contract's domain."
      },
      "constructor": {
        "notice": "Initialize contract."
      },
      "deposit(address,address,address,uint256[],uint256,bool,string)": {
        "notice": "Deposits tokens (ERC-20/721) into escrow - locked funds can be released by `msg.sender` `depositor` - both parties can {lock} for `resolver`."
      },
      "depositBento(address,address,address,uint256[],uint256,bool,string)": {
        "notice": "Deposits tokens (ERC-20/721) into BentoBox escrow - locked funds can be released by `msg.sender` `depositor` - both parties can {lock} for `resolver`."
      },
      "depositInvoiceSig(address,address,address,uint256[],uint256,bool,bool,bool,string,uint8,bytes32,bytes32)": {
        "notice": "Validates deposit request 'invoice' for locker escrow."
      },
      "getMilestones(uint256)": {
        "notice": "Returns escrow milestone deposits per `value` array."
      },
      "lock(uint256,string)": {
        "notice": "Locks escrowed assets for resolution - can only be called by locker parties."
      },
      "multicall(bytes[])": {
        "notice": "Enables calling multiple methods in a single call to this contract."
      },
      "permitThis(address,uint256,uint256,uint8,bytes32,bytes32)": {
        "notice": "Provides EIP-2612 signed approval for this contract to spend user tokens."
      },
      "permitThisAllowed(address,uint256,uint256,uint8,bytes32,bytes32)": {
        "notice": "Provides DAI-derived signed approval for this contract to spend user tokens."
      },
      "registerAgreement(uint256,string)": {
        "notice": "Protocol for LexDAO to maintain agreements that can be stamped into lockers."
      },
      "registerResolver(bool,uint8)": {
        "notice": "Registers an account to serve as a potential `resolver`."
      },
      "release(uint256)": {
        "notice": "Releases escrowed assets to designated `receiver` - can only be called by `depositor` if not `locked` - can be called after `termination` as optional extension - escrowed sum is released in order of `value` milestones array."
      },
      "setBentoApproval(uint8,bytes32,bytes32)": {
        "notice": "Provides way to sign approval for `bento` spends by locker."
      },
      "updateLexDAO(address)": {
        "notice": "Protocol for LexDAO to update role."
      }
    },
    "notice": "Bilateral escrow for ETH and ERC-20/721 tokens with BentoBox integration.",
    "version": 1
  }
}